{
    "tests/osaka/eip7939_count_leading_zeros/test_count_leading_zeros.py::test_clz_stack_not_overflow[fork_Osaka-state_test]": {
        "env": {
            "currentCoinbase": "0x2adc25665018aa1fe0e6bc666dac8fc2697ff9ba",
            "currentGasLimit": "0x055d4a80",
            "currentNumber": "0x01",
            "currentTimestamp": "0x03e8",
            "currentRandom": "0x0000000000000000000000000000000000000000000000000000000000000000",
            "currentDifficulty": "0x00",
            "currentBaseFee": "0x07",
            "currentExcessBlobGas": "0x00"
        },
        "pre": {
            "0x879cb25adbde70e4a2a00545befe5279eac75201": {
                "nonce": "0x01",
                "balance": "0x00",
                "code": "0x5f5f5f5f5f5f5f5f5f5f5f5f5f5f5f5f5f5f5f5f5f5f5f5f5f5f5f5f5f5f5f5f5f5f5f5f5f5f5f5f5f5f5f5f5f5f5f5f5f5f5f5f5f5f5f5f5f5f5f5f5f5f5f5f5f5f5f5f5f5f5f5f5f5f5f5f5f5f5f5f5f5f5f5f5f5f5f5f5f5f5f5f5f5f5f5f5f5f5f5f5f5f5f5f5f5f5f5f5f5f5f5f5f5f5f5f5f5f5f5f5f5f5f5f5f5f5f5f5f5f5f5f5f5f5f5f5f5f5f5f5f5f5f5f5f5f5f5f5f5f5f5f5f5f5f5f5f5f5f5f5f5f5f5f5f5f5f5f5f5f5f5f5f5f5f5f5f5f5f5f5f5f5f5f5f5f5f5f5f5f5f5f5f5f5f5f5f5f5f5f5f5f5f5f5f5f5f5f5f5f5f5f5f5f5f5f5f5f5f5f5f5f5f5f5f5f5f5f5f5f5f5f5f5f5f5f5f5f5f5f5f5f5f5f5f5f5f5f5f5f5f5f5f5f5f5f5f5f5f5f5f5f5f5f5f5f5f5f5f5f5f5f5f5f5f5f5f5f5f5f5f5f5f5f5f5f5f5f5f5f5f5f5f5f5f5f5f5f5f5f5f5f5f5f5f5f5f5f5f5f5f5f5f5f5f5f5f5f5f5f5f5f5f5f5f5f5f5f5f5f5f5f5f5f5f5f5f5f5f5f5f5f5f5f5f5f5f5f5f5f5f5f5f5f5f5f5f5f5f5f5f5f5f5f5f5f5f5f5f5f5f5f5f5f5f5f5f5f5f5f5f5f5f5f5f5f5f5f5f5f5f5f5f5f5f5f5f5f5f5f5f5f5f5f5f5f5f5f5f5f5f5f5f5f5f5f5f5f5f5f5f5f5f5f5f5f5f5f5f5f5f5f5f5f5f5f5f5f5f5f5f5f5f5f5f5f5f5f5f5f5f5f5f5f5f5f5f5f5f5f5f5f5f5f5f5f5f5f5f5f5f5f5f5f5f5f5f5f5f5f5f5f5f5f5f5f5f5f5f5f5f5f5f5f5f5f5f5f5f5f5f5f5f5f5f5f5f5f5f5f5f5f5f5f5f5f5f5f5f5f5f5f5f5f5f5f5f5f5f5f5f5f5f5f5f5f5f5f5f5f5f5f5f5f5f5f5f5f5f5f5f5f5f5f5f5f5f5f5f5f5f5f5f5f5f5f5f5f5f5f5f5f5f5f5f5f5f5f5f5f5f5f5f5f5f5f5f5f5f5f5f5f5f5f5f5f5f5f5f5f5f5f5f5f5f5f5f5f5f5f5f5f5f5f5f5f5f5f5f5f5f5f5f5f5f5f5f5f5f5f5f5f5f5f5f5f5f5f5f5f5f5f5f5f5f5f5f5f5f5f5f5f5f5f5f5f5f5f5f5f5f5f5f5f5f5f5f5f5f5f5f5f5f5f5f5f5f5f5f5f5f5f5f5f5f5f5f5f5f5f5f5f5f5f5f5f5f5f5f5f5f5f5f5f5f5f5f5f5f5f5f5f5f5f5f5f5f5f5f5f5f5f5f5f5f5f5f5f5f5f5f5f5f5f5f5f5f5f5f5f5f5f5f5f5f5f5f5f5f5f5f5f5f5f5f5f5f5f5f5f5f5f5f5f5f5f5f5f5f5f5f5f5f5f5f5f5f5f5f5f5f5f5f5f5f5f5f5f5f5f5f5f5f5f5f5f5f5f5f5f5f5f5f5f5f5f5f5f5f5f5f5f5f5f5f5f5f5f5f5f5f5f5f5f5f5f5f5f5f5f5f5f5f5f5f5f5f5f5f5f5f5f5f5f5f5f5f5f5f5f5f5f5f5f5f5f5f5f5f5f5f5f5f5f5f5f5f5f5f5f5f5f5f5f5f5f5f5f5f5f5f5f5f5f5f5f5f5f5f5f5f5f5f5f5f5f5f5f5f5f5f5f5f5f5f5f5f5f5f5f5f5f5f5f5f5f5f5f5f5f5f5f5f5f5f5f5f5f5f5f5f5f5f5f5f5f5f5f5f5f5f5f5f5f5f5f5f5f5f5f5f5f5f5f5f5f5f5f5f5f5f5f5f5f5f5f5f5f5f5f5f5f5f5f5f5f5f5f5f5f5f5f5f5f5f5f5f5f5f5f5f5f5f5f5f5f5f5f5f5f5f5f5f5f5f5f5f5f5f5f5f5f5f5f5f5f5f5f5f5f5f5f600060011e9055600160021e9055600260041e9055600360081e9055600460101e9055600560201e9055600660401e9055600760801e905560086101001e905560096102001e9055600a6104001e9055600b6108001e9055600c6110001e9055600d6120001e9055600e6140001e9055600f6180001e90556010620100001e90556011620200001e90556012620400001e90556013620800001e90556014621000001e90556015622000001e90556016624000001e90556017628000001e9055601863010000001e9055601963020000001e9055601a63040000001e9055601b63080000001e9055601c63100000001e9055601d63200000001e9055601e63400000001e9055601f63800000001e905560206401000000001e905560216402000000001e905560226404000000001e905560236408000000001e905560246410000000001e905560256420000000001e905560266440000000001e905560276480000000001e90556028650100000000001e90556029650200000000001e9055602a650400000000001e9055602b650800000000001e9055602c651000000000001e9055602d652000000000001e9055602e654000000000001e9055602f658000000000001e9055603066010000000000001e9055603166020000000000001e9055603266040000000000001e9055603366080000000000001e9055603466100000000000001e9055603566200000000000001e9055603666400000000000001e9055603766800000000000001e905560386701000000000000001e905560396702000000000000001e9055603a6704000000000000001e9055603b6708000000000000001e9055603c6710000000000000001e9055603d6720000000000000001e9055603e6740000000000000001e9055603f6780000000000000001e90556040680100000000000000001e90556041680200000000000000001e90556042680400000000000000001e90556043680800000000000000001e90556044681000000000000000001e90556045682000000000000000001e90556046684000000000000000001e90556047688000000000000000001e9055604869010000000000000000001e9055604969020000000000000000001e9055604a69040000000000000000001e9055604b69080000000000000000001e9055604c69100000000000000000001e9055604d69200000000000000000001e9055604e69400000000000000000001e9055604f69800000000000000000001e905560506a01000000000000000000001e905560516a02000000000000000000001e905560526a04000000000000000000001e905560536a08000000000000000000001e905560546a10000000000000000000001e905560556a20000000000000000000001e905560566a40000000000000000000001e905560576a80000000000000000000001e905560586b0100000000000000000000001e905560596b0200000000000000000000001e9055605a6b0400000000000000000000001e9055605b6b0800000000000000000000001e9055605c6b1000000000000000000000001e9055605d6b2000000000000000000000001e9055605e6b4000000000000000000000001e9055605f6b8000000000000000000000001e905560606c010000000000000000000000001e905560616c020000000000000000000000001e905560626c040000000000000000000000001e905560636c080000000000000000000000001e905560646c100000000000000000000000001e905560656c200000000000000000000000001e905560666c400000000000000000000000001e905560676c800000000000000000000000001e905560686d01000000000000000000000000001e905560696d02000000000000000000000000001e9055606a6d04000000000000000000000000001e9055606b6d08000000000000000000000000001e9055606c6d10000000000000000000000000001e9055606d6d20000000000000000000000000001e9055606e6d40000000000000000000000000001e9055606f6d80000000000000000000000000001e905560706e0100000000000000000000000000001e905560716e0200000000000000000000000000001e905560726e0400000000000000000000000000001e905560736e0800000000000000000000000000001e905560746e1000000000000000000000000000001e905560756e2000000000000000000000000000001e905560766e4000000000000000000000000000001e905560776e8000000000000000000000000000001e905560786f010000000000000000000000000000001e905560796f020000000000000000000000000000001e9055607a6f040000000000000000000000000000001e9055607b6f080000000000000000000000000000001e9055607c6f100000000000000000000000000000001e9055607d6f200000000000000000000000000000001e9055607e6f400000000000000000000000000000001e9055607f6f800000000000000000000000000000001e905560807001000000000000000000000000000000001e905560817002000000000000000000000000000000001e905560827004000000000000000000000000000000001e905560837008000000000000000000000000000000001e905560847010000000000000000000000000000000001e905560857020000000000000000000000000000000001e905560867040000000000000000000000000000000001e905560877080000000000000000000000000000000001e90556088710100000000000000000000000000000000001e90556089710200000000000000000000000000000000001e9055608a710400000000000000000000000000000000001e9055608b710800000000000000000000000000000000001e9055608c711000000000000000000000000000000000001e9055608d712000000000000000000000000000000000001e9055608e714000000000000000000000000000000000001e9055608f718000000000000000000000000000000000001e9055609072010000000000000000000000000000000000001e9055609172020000000000000000000000000000000000001e9055609272040000000000000000000000000000000000001e9055609372080000000000000000000000000000000000001e9055609472100000000000000000000000000000000000001e9055609572200000000000000000000000000000000000001e9055609672400000000000000000000000000000000000001e9055609772800000000000000000000000000000000000001e905560987301000000000000000000000000000000000000001e905560997302000000000000000000000000000000000000001e9055609a7304000000000000000000000000000000000000001e9055609b7308000000000000000000000000000000000000001e9055609c7310000000000000000000000000000000000000001e9055609d7320000000000000000000000000000000000000001e9055609e7340000000000000000000000000000000000000001e9055609f7380000000000000000000000000000000000000001e905560a0740100000000000000000000000000000000000000001e905560a1740200000000000000000000000000000000000000001e905560a2740400000000000000000000000000000000000000001e905560a3740800000000000000000000000000000000000000001e905560a4741000000000000000000000000000000000000000001e905560a5742000000000000000000000000000000000000000001e905560a6744000000000000000000000000000000000000000001e905560a7748000000000000000000000000000000000000000001e905560a875010000000000000000000000000000000000000000001e905560a975020000000000000000000000000000000000000000001e905560aa75040000000000000000000000000000000000000000001e905560ab75080000000000000000000000000000000000000000001e905560ac75100000000000000000000000000000000000000000001e905560ad75200000000000000000000000000000000000000000001e905560ae75400000000000000000000000000000000000000000001e905560af75800000000000000000000000000000000000000000001e905560b07601000000000000000000000000000000000000000000001e905560b17602000000000000000000000000000000000000000000001e905560b27604000000000000000000000000000000000000000000001e905560b37608000000000000000000000000000000000000000000001e905560b47610000000000000000000000000000000000000000000001e905560b57620000000000000000000000000000000000000000000001e905560b67640000000000000000000000000000000000000000000001e905560b77680000000000000000000000000000000000000000000001e905560b8770100000000000000000000000000000000000000000000001e905560b9770200000000000000000000000000000000000000000000001e905560ba770400000000000000000000000000000000000000000000001e905560bb770800000000000000000000000000000000000000000000001e905560bc771000000000000000000000000000000000000000000000001e905560bd772000000000000000000000000000000000000000000000001e905560be774000000000000000000000000000000000000000000000001e905560bf778000000000000000000000000000000000000000000000001e905560c078010000000000000000000000000000000000000000000000001e905560c178020000000000000000000000000000000000000000000000001e905560c278040000000000000000000000000000000000000000000000001e905560c378080000000000000000000000000000000000000000000000001e905560c478100000000000000000000000000000000000000000000000001e905560c578200000000000000000000000000000000000000000000000001e905560c678400000000000000000000000000000000000000000000000001e905560c778800000000000000000000000000000000000000000000000001e905560c87901000000000000000000000000000000000000000000000000001e905560c97902000000000000000000000000000000000000000000000000001e905560ca7904000000000000000000000000000000000000000000000000001e905560cb7908000000000000000000000000000000000000000000000000001e905560cc7910000000000000000000000000000000000000000000000000001e905560cd7920000000000000000000000000000000000000000000000000001e905560ce7940000000000000000000000000000000000000000000000000001e905560cf7980000000000000000000000000000000000000000000000000001e905560d07a0100000000000000000000000000000000000000000000000000001e905560d17a0200000000000000000000000000000000000000000000000000001e905560d27a0400000000000000000000000000000000000000000000000000001e905560d37a0800000000000000000000000000000000000000000000000000001e905560d47a1000000000000000000000000000000000000000000000000000001e905560d57a2000000000000000000000000000000000000000000000000000001e905560d67a4000000000000000000000000000000000000000000000000000001e905560d77a8000000000000000000000000000000000000000000000000000001e905560d87b010000000000000000000000000000000000000000000000000000001e905560d97b020000000000000000000000000000000000000000000000000000001e905560da7b040000000000000000000000000000000000000000000000000000001e905560db7b080000000000000000000000000000000000000000000000000000001e905560dc7b100000000000000000000000000000000000000000000000000000001e905560dd7b200000000000000000000000000000000000000000000000000000001e905560de7b400000000000000000000000000000000000000000000000000000001e905560df7b800000000000000000000000000000000000000000000000000000001e905560e07c01000000000000000000000000000000000000000000000000000000001e905560e17c02000000000000000000000000000000000000000000000000000000001e905560e27c04000000000000000000000000000000000000000000000000000000001e905560e37c08000000000000000000000000000000000000000000000000000000001e905560e47c10000000000000000000000000000000000000000000000000000000001e905560e57c20000000000000000000000000000000000000000000000000000000001e905560e67c40000000000000000000000000000000000000000000000000000000001e905560e77c80000000000000000000000000000000000000000000000000000000001e905560e87d0100000000000000000000000000000000000000000000000000000000001e905560e97d0200000000000000000000000000000000000000000000000000000000001e905560ea7d0400000000000000000000000000000000000000000000000000000000001e905560eb7d0800000000000000000000000000000000000000000000000000000000001e905560ec7d1000000000000000000000000000000000000000000000000000000000001e905560ed7d2000000000000000000000000000000000000000000000000000000000001e905560ee7d4000000000000000000000000000000000000000000000000000000000001e905560ef7d8000000000000000000000000000000000000000000000000000000000001e905560f07e010000000000000000000000000000000000000000000000000000000000001e905560f17e020000000000000000000000000000000000000000000000000000000000001e905560f27e040000000000000000000000000000000000000000000000000000000000001e905560f37e080000000000000000000000000000000000000000000000000000000000001e905560f47e100000000000000000000000000000000000000000000000000000000000001e905560f57e200000000000000000000000000000000000000000000000000000000000001e905560f67e400000000000000000000000000000000000000000000000000000000000001e905560f77e800000000000000000000000000000000000000000000000000000000000001e905560f87f01000000000000000000000000000000000000000000000000000000000000001e905560f97f02000000000000000000000000000000000000000000000000000000000000001e905560fa7f04000000000000000000000000000000000000000000000000000000000000001e905560fb7f08000000000000000000000000000000000000000000000000000000000000001e905560fc7f10000000000000000000000000000000000000000000000000000000000000001e905560fd7f20000000000000000000000000000000000000000000000000000000000000001e905560fe7f40000000000000000000000000000000000000000000000000000000000000001e905560ff7f80000000000000000000000000000000000000000000000000000000000000001e9055",
                "storage": {}
            },
            "0x2db059bfc3423fc2e582293874f09c8e417ae383": {
                "nonce": "0x00",
                "balance": "0x3635c9adc5dea00000",
                "code": "0x",
                "storage": {}
            }
        },
        "transaction": {
            "nonce": "0x00",
            "gasPrice": "0x0a",
            "gasLimit": [
                "0x5b8d80"
            ],
            "to": "0x879cb25adbde70e4a2a00545befe5279eac75201",
            "value": [
                "0x00"
            ],
            "data": [
                "0x"
            ],
            "sender": "0x2db059bfc3423fc2e582293874f09c8e417ae383",
            "secretKey": "0x88a8dd7ac9b640024fec6b7a879cb25adbde70e4a2a00545befe5279eac75201"
        },
        "post": {
            "Osaka": [
                {
                    "hash": "0x1c1aa97947e335698472d106b3ab759e73974d8ac42dddd26a802d67fbfbdc2c",
                    "logs": "0x1dcc4de8dec75d7aab85b567b6ccd41ad312451b948a7413f0a142fd40d49347",
                    "txbytes": "0xf860800a835b8d8094879cb25adbde70e4a2a00545befe5279eac75201808026a0c36fd02d015b0ab034a0318759e4a7c5dfe02a887680e9c86334c2dba8736748a07079164dc0ffcfedf1d8dbf4c5dbe5ba2d80122f4f5f6912b8c2985bf12b07d4",
                    "indexes": {
                        "data": 0,
                        "gas": 0,
                        "value": 0
                    },
                    "state": {
                        "0x879cb25adbde70e4a2a00545befe5279eac75201": {
                            "nonce": "0x01",
                            "balance": "0x00",
                            "code": "0x5f5f5f5f5f5f5f5f5f5f5f5f5f5f5f5f5f5f5f5f5f5f5f5f5f5f5f5f5f5f5f5f5f5f5f5f5f5f5f5f5f5f5f5f5f5f5f5f5f5f5f5f5f5f5f5f5f5f5f5f5f5f5f5f5f5f5f5f5f5f5f5f5f5f5f5f5f5f5f5f5f5f5f5f5f5f5f5f5f5f5f5f5f5f5f5f5f5f5f5f5f5f5f5f5f5f5f5f5f5f5f5f5f5f5f5f5f5f5f5f5f5f5f5f5f5f5f5f5f5f5f5f5f5f5f5f5f5f5f5f5f5f5f5f5f5f5f5f5f5f5f5f5f5f5f5f5f5f5f5f5f5f5f5f5f5f5f5f5f5f5f5f5f5f5f5f5f5f5f5f5f5f5f5f5f5f5f5f5f5f5f5f5f5f5f5f5f5f5f5f5f5f5f5f5f5f5f5f5f5f5f5f5f5f5f5f5f5f5f5f5f5f5f5f5f5f5f5f5f5f5f5f5f5f5f5f5f5f5f5f5f5f5f5f5f5f5f5f5f5f5f5f5f5f5f5f5f5f5f5f5f5f5f5f5f5f5f5f5f5f5f5f5f5f5f5f5f5f5f5f5f5f5f5f5f5f5f5f5f5f5f5f5f5f5f5f5f5f5f5f5f5f5f5f5f5f5f5f5f5f5f5f5f5f5f5f5f5f5f5f5f5f5f5f5f5f5f5f5f5f5f5f5f5f5f5f5f5f5f5f5f5f5f5f5f5f5f5f5f5f5f5f5f5f5f5f5f5f5f5f5f5f5f5f5f5f5f5f5f5f5f5f5f5f5f5f5f5f5f5f5f5f5f5f5f5f5f5f5f5f5f5f5f5f5f5f5f5f5f5f5f5f5f5f5f5f5f5f5f5f5f5f5f5f5f5f5f5f5f5f5f5f5f5f5f5f5f5f5f5f5f5f5f5f5f5f5f5f5f5f5f5f5f5f5f5f5f5f5f5f5f5f5f5f5f5f5f5f5f5f5f5f5f5f5f5f5f5f5f5f5f5f5f5f5f5f5f5f5f5f5f5f5f5f5f5f5f5f5f5f5f5f5f5f5f5f5f5f5f5f5f5f5f5f5f5f5f5f5f5f5f5f5f5f5f5f5f5f5f5f5f5f5f5f5f5f5f5f5f5f5f5f5f5f5f5f5f5f5f5f5f5f5f5f5f5f5f5f5f5f5f5f5f5f5f5f5f5f5f5f5f5f5f5f5f5f5f5f5f5f5f5f5f5f5f5f5f5f5f5f5f5f5f5f5f5f5f5f5f5f5f5f5f5f5f5f5f5f5f5f5f5f5f5f5f5f5f5f5f5f5f5f5f5f5f5f5f5f5f5f5f5f5f5f5f5f5f5f5f5f5f5f5f5f5f5f5f5f5f5f5f5f5f5f5f5f5f5f5f5f5f5f5f5f5f5f5f5f5f5f5f5f5f5f5f5f5f5f5f5f5f5f5f5f5f5f5f5f5f5f5f5f5f5f5f5f5f5f5f5f5f5f5f5f5f5f5f5f5f5f5f5f5f5f5f5f5f5f5f5f5f5f5f5f5f5f5f5f5f5f5f5f5f5f5f5f5f5f5f5f5f5f5f5f5f5f5f5f5f5f5f5f5f5f5f5f5f5f5f5f5f5f5f5f5f5f5f5f5f5f5f5f5f5f5f5f5f5f5f5f5f5f5f5f5f5f5f5f5f5f5f5f5f5f5f5f5f5f5f5f5f5f5f5f5f5f5f5f5f5f5f5f5f5f5f5f5f5f5f5f5f5f5f5f5f5f5f5f5f5f5f5f5f5f5f5f5f5f5f5f5f5f5f5f5f5f5f5f5f5f5f5f5f5f5f5f5f5f5f5f5f5f5f5f5f5f5f5f5f5f5f5f5f5f5f5f5f5f5f5f5f5f5f5f5f5f5f5f5f5f5f5f5f5f5f5f5f5f5f5f5f5f5f5f5f5f5f5f5f5f5f5f5f5f5f5f5f5f5f5f5f5f5f5f5f5f5f5f5f5f5f5f5f5f5f5f5f5f5f5f5f5f5f5f5f5f5f5f5f5f5f5f5f5f5f5f5f5f5f5f5f5f5f5f5f5f5f5f5f5f5f5f5f5f5f5f5f5f5f5f5f5f5f5f5f5f5f5f5f5f5f5f5f5f5f5f5f5f5f5f5f5f5f5f5f5f5f5f5f5f5f5f5f5f5f5f5f5f5f5f5f5f5f5f5f5f5f5f5f5f5f5f600060011e9055600160021e9055600260041e9055600360081e9055600460101e9055600560201e9055600660401e9055600760801e905560086101001e905560096102001e9055600a6104001e9055600b6108001e9055600c6110001e9055600d6120001e9055600e6140001e9055600f6180001e90556010620100001e90556011620200001e90556012620400001e90556013620800001e90556014621000001e90556015622000001e90556016624000001e90556017628000001e9055601863010000001e9055601963020000001e9055601a63040000001e9055601b63080000001e9055601c63100000001e9055601d63200000001e9055601e63400000001e9055601f63800000001e905560206401000000001e905560216402000000001e905560226404000000001e905560236408000000001e905560246410000000001e905560256420000000001e905560266440000000001e905560276480000000001e90556028650100000000001e90556029650200000000001e9055602a650400000000001e9055602b650800000000001e9055602c651000000000001e9055602d652000000000001e9055602e654000000000001e9055602f658000000000001e9055603066010000000000001e9055603166020000000000001e9055603266040000000000001e9055603366080000000000001e9055603466100000000000001e9055603566200000000000001e9055603666400000000000001e9055603766800000000000001e905560386701000000000000001e905560396702000000000000001e9055603a6704000000000000001e9055603b6708000000000000001e9055603c6710000000000000001e9055603d6720000000000000001e9055603e6740000000000000001e9055603f6780000000000000001e90556040680100000000000000001e90556041680200000000000000001e90556042680400000000000000001e90556043680800000000000000001e90556044681000000000000000001e90556045682000000000000000001e90556046684000000000000000001e90556047688000000000000000001e9055604869010000000000000000001e9055604969020000000000000000001e9055604a69040000000000000000001e9055604b69080000000000000000001e9055604c69100000000000000000001e9055604d69200000000000000000001e9055604e69400000000000000000001e9055604f69800000000000000000001e905560506a01000000000000000000001e905560516a02000000000000000000001e905560526a04000000000000000000001e905560536a08000000000000000000001e905560546a10000000000000000000001e905560556a20000000000000000000001e905560566a40000000000000000000001e905560576a80000000000000000000001e905560586b0100000000000000000000001e905560596b0200000000000000000000001e9055605a6b0400000000000000000000001e9055605b6b0800000000000000000000001e9055605c6b1000000000000000000000001e9055605d6b2000000000000000000000001e9055605e6b4000000000000000000000001e9055605f6b8000000000000000000000001e905560606c010000000000000000000000001e905560616c020000000000000000000000001e905560626c040000000000000000000000001e905560636c080000000000000000000000001e905560646c100000000000000000000000001e905560656c200000000000000000000000001e905560666c400000000000000000000000001e905560676c800000000000000000000000001e905560686d01000000000000000000000000001e905560696d02000000000000000000000000001e9055606a6d04000000000000000000000000001e9055606b6d08000000000000000000000000001e9055606c6d10000000000000000000000000001e9055606d6d20000000000000000000000000001e9055606e6d40000000000000000000000000001e9055606f6d80000000000000000000000000001e905560706e0100000000000000000000000000001e905560716e0200000000000000000000000000001e905560726e0400000000000000000000000000001e905560736e0800000000000000000000000000001e905560746e1000000000000000000000000000001e905560756e2000000000000000000000000000001e905560766e4000000000000000000000000000001e905560776e8000000000000000000000000000001e905560786f010000000000000000000000000000001e905560796f020000000000000000000000000000001e9055607a6f040000000000000000000000000000001e9055607b6f080000000000000000000000000000001e9055607c6f100000000000000000000000000000001e9055607d6f200000000000000000000000000000001e9055607e6f400000000000000000000000000000001e9055607f6f800000000000000000000000000000001e905560807001000000000000000000000000000000001e905560817002000000000000000000000000000000001e905560827004000000000000000000000000000000001e905560837008000000000000000000000000000000001e905560847010000000000000000000000000000000001e905560857020000000000000000000000000000000001e905560867040000000000000000000000000000000001e905560877080000000000000000000000000000000001e90556088710100000000000000000000000000000000001e90556089710200000000000000000000000000000000001e9055608a710400000000000000000000000000000000001e9055608b710800000000000000000000000000000000001e9055608c711000000000000000000000000000000000001e9055608d712000000000000000000000000000000000001e9055608e714000000000000000000000000000000000001e9055608f718000000000000000000000000000000000001e9055609072010000000000000000000000000000000000001e9055609172020000000000000000000000000000000000001e9055609272040000000000000000000000000000000000001e9055609372080000000000000000000000000000000000001e9055609472100000000000000000000000000000000000001e9055609572200000000000000000000000000000000000001e9055609672400000000000000000000000000000000000001e9055609772800000000000000000000000000000000000001e905560987301000000000000000000000000000000000000001e905560997302000000000000000000000000000000000000001e9055609a7304000000000000000000000000000000000000001e9055609b7308000000000000000000000000000000000000001e9055609c7310000000000000000000000000000000000000001e9055609d7320000000000000000000000000000000000000001e9055609e7340000000000000000000000000000000000000001e9055609f7380000000000000000000000000000000000000001e905560a0740100000000000000000000000000000000000000001e905560a1740200000000000000000000000000000000000000001e905560a2740400000000000000000000000000000000000000001e905560a3740800000000000000000000000000000000000000001e905560a4741000000000000000000000000000000000000000001e905560a5742000000000000000000000000000000000000000001e905560a6744000000000000000000000000000000000000000001e905560a7748000000000000000000000000000000000000000001e905560a875010000000000000000000000000000000000000000001e905560a975020000000000000000000000000000000000000000001e905560aa75040000000000000000000000000000000000000000001e905560ab75080000000000000000000000000000000000000000001e905560ac75100000000000000000000000000000000000000000001e905560ad75200000000000000000000000000000000000000000001e905560ae75400000000000000000000000000000000000000000001e905560af75800000000000000000000000000000000000000000001e905560b07601000000000000000000000000000000000000000000001e905560b17602000000000000000000000000000000000000000000001e905560b27604000000000000000000000000000000000000000000001e905560b37608000000000000000000000000000000000000000000001e905560b47610000000000000000000000000000000000000000000001e905560b57620000000000000000000000000000000000000000000001e905560b67640000000000000000000000000000000000000000000001e905560b77680000000000000000000000000000000000000000000001e905560b8770100000000000000000000000000000000000000000000001e905560b9770200000000000000000000000000000000000000000000001e905560ba770400000000000000000000000000000000000000000000001e905560bb770800000000000000000000000000000000000000000000001e905560bc771000000000000000000000000000000000000000000000001e905560bd772000000000000000000000000000000000000000000000001e905560be774000000000000000000000000000000000000000000000001e905560bf778000000000000000000000000000000000000000000000001e905560c078010000000000000000000000000000000000000000000000001e905560c178020000000000000000000000000000000000000000000000001e905560c278040000000000000000000000000000000000000000000000001e905560c378080000000000000000000000000000000000000000000000001e905560c478100000000000000000000000000000000000000000000000001e905560c578200000000000000000000000000000000000000000000000001e905560c678400000000000000000000000000000000000000000000000001e905560c778800000000000000000000000000000000000000000000000001e905560c87901000000000000000000000000000000000000000000000000001e905560c97902000000000000000000000000000000000000000000000000001e905560ca7904000000000000000000000000000000000000000000000000001e905560cb7908000000000000000000000000000000000000000000000000001e905560cc7910000000000000000000000000000000000000000000000000001e905560cd7920000000000000000000000000000000000000000000000000001e905560ce7940000000000000000000000000000000000000000000000000001e905560cf7980000000000000000000000000000000000000000000000000001e905560d07a0100000000000000000000000000000000000000000000000000001e905560d17a0200000000000000000000000000000000000000000000000000001e905560d27a0400000000000000000000000000000000000000000000000000001e905560d37a0800000000000000000000000000000000000000000000000000001e905560d47a1000000000000000000000000000000000000000000000000000001e905560d57a2000000000000000000000000000000000000000000000000000001e905560d67a4000000000000000000000000000000000000000000000000000001e905560d77a8000000000000000000000000000000000000000000000000000001e905560d87b010000000000000000000000000000000000000000000000000000001e905560d97b020000000000000000000000000000000000000000000000000000001e905560da7b040000000000000000000000000000000000000000000000000000001e905560db7b080000000000000000000000000000000000000000000000000000001e905560dc7b100000000000000000000000000000000000000000000000000000001e905560dd7b200000000000000000000000000000000000000000000000000000001e905560de7b400000000000000000000000000000000000000000000000000000001e905560df7b800000000000000000000000000000000000000000000000000000001e905560e07c01000000000000000000000000000000000000000000000000000000001e905560e17c02000000000000000000000000000000000000000000000000000000001e905560e27c04000000000000000000000000000000000000000000000000000000001e905560e37c08000000000000000000000000000000000000000000000000000000001e905560e47c10000000000000000000000000000000000000000000000000000000001e905560e57c20000000000000000000000000000000000000000000000000000000001e905560e67c40000000000000000000000000000000000000000000000000000000001e905560e77c80000000000000000000000000000000000000000000000000000000001e905560e87d0100000000000000000000000000000000000000000000000000000000001e905560e97d0200000000000000000000000000000000000000000000000000000000001e905560ea7d0400000000000000000000000000000000000000000000000000000000001e905560eb7d0800000000000000000000000000000000000000000000000000000000001e905560ec7d1000000000000000000000000000000000000000000000000000000000001e905560ed7d2000000000000000000000000000000000000000000000000000000000001e905560ee7d4000000000000000000000000000000000000000000000000000000000001e905560ef7d8000000000000000000000000000000000000000000000000000000000001e905560f07e010000000000000000000000000000000000000000000000000000000000001e905560f17e020000000000000000000000000000000000000000000000000000000000001e905560f27e040000000000000000000000000000000000000000000000000000000000001e905560f37e080000000000000000000000000000000000000000000000000000000000001e905560f47e100000000000000000000000000000000000000000000000000000000000001e905560f57e200000000000000000000000000000000000000000000000000000000000001e905560f67e400000000000000000000000000000000000000000000000000000000000001e905560f77e800000000000000000000000000000000000000000000000000000000000001e905560f87f01000000000000000000000000000000000000000000000000000000000000001e905560f97f02000000000000000000000000000000000000000000000000000000000000001e905560fa7f04000000000000000000000000000000000000000000000000000000000000001e905560fb7f08000000000000000000000000000000000000000000000000000000000000001e905560fc7f10000000000000000000000000000000000000000000000000000000000000001e905560fd7f20000000000000000000000000000000000000000000000000000000000000001e905560fe7f40000000000000000000000000000000000000000000000000000000000000001e905560ff7f80000000000000000000000000000000000000000000000000000000000000001e9055",
                            "storage": {
                                "0x00": "0xff",
                                "0x01": "0xfe",
                                "0x02": "0xfd",
                                "0x03": "0xfc",
                                "0x04": "0xfb",
                                "0x05": "0xfa",
                                "0x06": "0xf9",
                                "0x07": "0xf8",
                                "0x08": "0xf7",
                                "0x09": "0xf6",
                                "0x0a": "0xf5",
                                "0x0b": "0xf4",
                                "0x0c": "0xf3",
                                "0x0d": "0xf2",
                                "0x0e": "0xf1",
                                "0x0f": "0xf0",
                                "0x10": "0xef",
                                "0x11": "0xee",
                                "0x12": "0xed",
                                "0x13": "0xec",
                                "0x14": "0xeb",
                                "0x15": "0xea",
                                "0x16": "0xe9",
                                "0x17": "0xe8",
                                "0x18": "0xe7",
                                "0x19": "0xe6",
                                "0x1a": "0xe5",
                                "0x1b": "0xe4",
                                "0x1c": "0xe3",
                                "0x1d": "0xe2",
                                "0x1e": "0xe1",
                                "0x1f": "0xe0",
                                "0x20": "0xdf",
                                "0x21": "0xde",
                                "0x22": "0xdd",
                                "0x23": "0xdc",
                                "0x24": "0xdb",
                                "0x25": "0xda",
                                "0x26": "0xd9",
                                "0x27": "0xd8",
                                "0x28": "0xd7",
                                "0x29": "0xd6",
                                "0x2a": "0xd5",
                                "0x2b": "0xd4",
                                "0x2c": "0xd3",
                                "0x2d": "0xd2",
                                "0x2e": "0xd1",
                                "0x2f": "0xd0",
                                "0x30": "0xcf",
                                "0x31": "0xce",
                                "0x32": "0xcd",
                                "0x33": "0xcc",
                                "0x34": "0xcb",
                                "0x35": "0xca",
                                "0x36": "0xc9",
                                "0x37": "0xc8",
                                "0x38": "0xc7",
                                "0x39": "0xc6",
                                "0x3a": "0xc5",
                                "0x3b": "0xc4",
                                "0x3c": "0xc3",
                                "0x3d": "0xc2",
                                "0x3e": "0xc1",
                                "0x3f": "0xc0",
                                "0x40": "0xbf",
                                "0x41": "0xbe",
                                "0x42": "0xbd",
                                "0x43": "0xbc",
                                "0x44": "0xbb",
                                "0x45": "0xba",
                                "0x46": "0xb9",
                                "0x47": "0xb8",
                                "0x48": "0xb7",
                                "0x49": "0xb6",
                                "0x4a": "0xb5",
                                "0x4b": "0xb4",
                                "0x4c": "0xb3",
                                "0x4d": "0xb2",
                                "0x4e": "0xb1",
                                "0x4f": "0xb0",
                                "0x50": "0xaf",
                                "0x51": "0xae",
                                "0x52": "0xad",
                                "0x53": "0xac",
                                "0x54": "0xab",
                                "0x55": "0xaa",
                                "0x56": "0xa9",
                                "0x57": "0xa8",
                                "0x58": "0xa7",
                                "0x59": "0xa6",
                                "0x5a": "0xa5",
                                "0x5b": "0xa4",
                                "0x5c": "0xa3",
                                "0x5d": "0xa2",
                                "0x5e": "0xa1",
                                "0x5f": "0xa0",
                                "0x60": "0x9f",
                                "0x61": "0x9e",
                                "0x62": "0x9d",
                                "0x63": "0x9c",
                                "0x64": "0x9b",
                                "0x65": "0x9a",
                                "0x66": "0x99",
                                "0x67": "0x98",
                                "0x68": "0x97",
                                "0x69": "0x96",
                                "0x6a": "0x95",
                                "0x6b": "0x94",
                                "0x6c": "0x93",
                                "0x6d": "0x92",
                                "0x6e": "0x91",
                                "0x6f": "0x90",
                                "0x70": "0x8f",
                                "0x71": "0x8e",
                                "0x72": "0x8d",
                                "0x73": "0x8c",
                                "0x74": "0x8b",
                                "0x75": "0x8a",
                                "0x76": "0x89",
                                "0x77": "0x88",
                                "0x78": "0x87",
                                "0x79": "0x86",
                                "0x7a": "0x85",
                                "0x7b": "0x84",
                                "0x7c": "0x83",
                                "0x7d": "0x82",
                                "0x7e": "0x81",
                                "0x7f": "0x80",
                                "0x80": "0x7f",
                                "0x81": "0x7e",
                                "0x82": "0x7d",
                                "0x83": "0x7c",
                                "0x84": "0x7b",
                                "0x85": "0x7a",
                                "0x86": "0x79",
                                "0x87": "0x78",
                                "0x88": "0x77",
                                "0x89": "0x76",
                                "0x8a": "0x75",
                                "0x8b": "0x74",
                                "0x8c": "0x73",
                                "0x8d": "0x72",
                                "0x8e": "0x71",
                                "0x8f": "0x70",
                                "0x90": "0x6f",
                                "0x91": "0x6e",
                                "0x92": "0x6d",
                                "0x93": "0x6c",
                                "0x94": "0x6b",
                                "0x95": "0x6a",
                                "0x96": "0x69",
                                "0x97": "0x68",
                                "0x98": "0x67",
                                "0x99": "0x66",
                                "0x9a": "0x65",
                                "0x9b": "0x64",
                                "0x9c": "0x63",
                                "0x9d": "0x62",
                                "0x9e": "0x61",
                                "0x9f": "0x60",
                                "0xa0": "0x5f",
                                "0xa1": "0x5e",
                                "0xa2": "0x5d",
                                "0xa3": "0x5c",
                                "0xa4": "0x5b",
                                "0xa5": "0x5a",
                                "0xa6": "0x59",
                                "0xa7": "0x58",
                                "0xa8": "0x57",
                                "0xa9": "0x56",
                                "0xaa": "0x55",
                                "0xab": "0x54",
                                "0xac": "0x53",
                                "0xad": "0x52",
                                "0xae": "0x51",
                                "0xaf": "0x50",
                                "0xb0": "0x4f",
                                "0xb1": "0x4e",
                                "0xb2": "0x4d",
                                "0xb3": "0x4c",
                                "0xb4": "0x4b",
                                "0xb5": "0x4a",
                                "0xb6": "0x49",
                                "0xb7": "0x48",
                                "0xb8": "0x47",
                                "0xb9": "0x46",
                                "0xba": "0x45",
                                "0xbb": "0x44",
                                "0xbc": "0x43",
                                "0xbd": "0x42",
                                "0xbe": "0x41",
                                "0xbf": "0x40",
                                "0xc0": "0x3f",
                                "0xc1": "0x3e",
                                "0xc2": "0x3d",
                                "0xc3": "0x3c",
                                "0xc4": "0x3b",
                                "0xc5": "0x3a",
                                "0xc6": "0x39",
                                "0xc7": "0x38",
                                "0xc8": "0x37",
                                "0xc9": "0x36",
                                "0xca": "0x35",
                                "0xcb": "0x34",
                                "0xcc": "0x33",
                                "0xcd": "0x32",
                                "0xce": "0x31",
                                "0xcf": "0x30",
                                "0xd0": "0x2f",
                                "0xd1": "0x2e",
                                "0xd2": "0x2d",
                                "0xd3": "0x2c",
                                "0xd4": "0x2b",
                                "0xd5": "0x2a",
                                "0xd6": "0x29",
                                "0xd7": "0x28",
                                "0xd8": "0x27",
                                "0xd9": "0x26",
                                "0xda": "0x25",
                                "0xdb": "0x24",
                                "0xdc": "0x23",
                                "0xdd": "0x22",
                                "0xde": "0x21",
                                "0xdf": "0x20",
                                "0xe0": "0x1f",
                                "0xe1": "0x1e",
                                "0xe2": "0x1d",
                                "0xe3": "0x1c",
                                "0xe4": "0x1b",
                                "0xe5": "0x1a",
                                "0xe6": "0x19",
                                "0xe7": "0x18",
                                "0xe8": "0x17",
                                "0xe9": "0x16",
                                "0xea": "0x15",
                                "0xeb": "0x14",
                                "0xec": "0x13",
                                "0xed": "0x12",
                                "0xee": "0x11",
                                "0xef": "0x10",
                                "0xf0": "0x0f",
                                "0xf1": "0x0e",
                                "0xf2": "0x0d",
                                "0xf3": "0x0c",
                                "0xf4": "0x0b",
                                "0xf5": "0x0a",
                                "0xf6": "0x09",
                                "0xf7": "0x08",
                                "0xf8": "0x07",
                                "0xf9": "0x06",
                                "0xfa": "0x05",
                                "0xfb": "0x04",
                                "0xfc": "0x03",
                                "0xfd": "0x02",
                                "0xfe": "0x01"
                            }
                        },
                        "0x2db059bfc3423fc2e582293874f09c8e417ae383": {
                            "nonce": "0x01",
                            "balance": "0x3635c9adc5db3fb130",
                            "code": "0x",
                            "storage": {}
                        },
                        "0x2adc25665018aa1fe0e6bc666dac8fc2697ff9ba": {
                            "nonce": "0x00",
                            "balance": "0x01034ad8",
                            "code": "0x",
                            "storage": {}
                        }
                    }
                }
            ]
        },
        "config": {
            "blobSchedule": {
                "Cancun": {
                    "target": "0x03",
                    "max": "0x06",
                    "baseFeeUpdateFraction": "0x32f0ed"
                },
                "Prague": {
                    "target": "0x06",
                    "max": "0x09",
                    "baseFeeUpdateFraction": "0x4c6964"
                },
                "Osaka": {
                    "target": "0x06",
                    "max": "0x09",
                    "baseFeeUpdateFraction": "0x4c6964"
                }
            },
            "chainid": "0x01"
        },
        "_info": {
            "hash": "0x98cf6902e50e13490a273fed9b219a460b72ab272de43707d4292e1c5043082e",
            "comment": "`execution-spec-tests` generated test",
            "filling-transition-tool": "ethereum-spec-evm-resolver 0.0.5",
            "description": "Test CLZ opcode never causes stack overflow.",
            "url": "https://github.com/ethereum/execution-spec-tests/blob/fusaka-devnet-5@v1.1.0/tests/osaka/eip7939_count_leading_zeros/test_count_leading_zeros.py#L205",
            "fixture-format": "state_test",
            "reference-spec": "https://github.com/ethereum/EIPs/blob/master/EIPS/eip-7939.md",
            "reference-spec-version": "c8321494fdfbfda52ad46c3515a7ca5dc86b857c",
            "eels-resolution": {
                "git-url": "https://github.com/marioevz/execution-specs.git",
                "branch": "forks/bpo1",
                "commit": "3387e5f4aedfe99becfdc39b444d6371e25e0924"
            }
        }
    }
}