{
    "tests/osaka/eip7939_count_leading_zeros/test_count_leading_zeros.py::test_clz_call_operation[fork_Osaka-state_test-call]": {
        "env": {
            "currentCoinbase": "0x2adc25665018aa1fe0e6bc666dac8fc2697ff9ba",
            "currentGasLimit": "0x055d4a80",
            "currentNumber": "0x01",
            "currentTimestamp": "0x03e8",
            "currentRandom": "0x0000000000000000000000000000000000000000000000000000000000000000",
            "currentDifficulty": "0x00",
            "currentBaseFee": "0x07",
            "currentExcessBlobGas": "0x00"
        },
        "pre": {
            "0x4933a2ee9d4ba818e978c98fc8d9d3e20eb78f57": {
                "nonce": "0x01",
                "balance": "0x00",
                "code": "0x7f80000000000000000000000000000000000000000000000000000000000000001e680100000000000000001e60011e60011e600055680100000000000000001e6001557f80000000000000000000000000000000000000000000000000000000000000001e6002557f0000000000000000000000000000000000000000000000000000000000000000527f0000000000000000000000000000000000000000000000000000000000000020527f00000000000000000000000000000000000000000000000000000000000000405260606000f3",
                "storage": {}
            },
            "0x4933a2ee9d4ba818e978c98fc8d9d3e20eb79057": {
                "nonce": "0x01",
                "balance": "0x00",
                "code": "0x60606000600060006000734933a2ee9d4ba818e978c98fc8d9d3e20eb78f5761fffff1600051600055602051600155604051600255",
                "storage": {}
            },
            "0x2c470a064f45a7d5181017f839f88f63b3eb2e26": {
                "nonce": "0x00",
                "balance": "0x3635c9adc5dea00000",
                "code": "0x",
                "storage": {}
            }
        },
        "transaction": {
            "nonce": "0x00",
            "gasPrice": "0x0a",
            "gasLimit": [
                "0x030d40"
            ],
            "to": "0x4933a2ee9d4ba818e978c98fc8d9d3e20eb79057",
            "value": [
                "0x00"
            ],
            "data": [
                "0x"
            ],
            "sender": "0x2c470a064f45a7d5181017f839f88f63b3eb2e26",
            "secretKey": "0x02cb3953cbc2dcb2e01e95a24933a2ee9d4ba818e978c98fc8d9d3e20eb78f57"
        },
        "post": {
            "Osaka": [
                {
                    "hash": "0x4db84de5f87faf991c379545f58d382aed81fa67ca6433c0c93c03c16560d59c",
                    "logs": "0x1dcc4de8dec75d7aab85b567b6ccd41ad312451b948a7413f0a142fd40d49347",
                    "txbytes": "0xf860800a83030d40944933a2ee9d4ba818e978c98fc8d9d3e20eb79057808026a05ccf64799ee4cb87f95576ac4e19b4e7fc74e5ba258bc048d8c0f776bde17cb9a01762ebbe28ac2123ab2883864ff8df96db6f0f285e8f601ac49ed416a518ba04",
                    "indexes": {
                        "data": 0,
                        "gas": 0,
                        "value": 0
                    },
                    "state": {
                        "0x4933a2ee9d4ba818e978c98fc8d9d3e20eb78f57": {
                            "nonce": "0x01",
                            "balance": "0x00",
                            "code": "0x7f80000000000000000000000000000000000000000000000000000000000000001e680100000000000000001e60011e60011e600055680100000000000000001e6001557f80000000000000000000000000000000000000000000000000000000000000001e6002557f0000000000000000000000000000000000000000000000000000000000000000527f0000000000000000000000000000000000000000000000000000000000000020527f00000000000000000000000000000000000000000000000000000000000000405260606000f3",
                            "storage": {
                                "0x00": "0xff",
                                "0x01": "0xbf"
                            }
                        },
                        "0x4933a2ee9d4ba818e978c98fc8d9d3e20eb79057": {
                            "nonce": "0x01",
                            "balance": "0x00",
                            "code": "0x60606000600060006000734933a2ee9d4ba818e978c98fc8d9d3e20eb78f5761fffff1600051600055602051600155604051600255",
                            "storage": {
                                "0x00": "0xff",
                                "0x01": "0xbf"
                            }
                        },
                        "0x2c470a064f45a7d5181017f839f88f63b3eb2e26": {
                            "nonce": "0x01",
                            "balance": "0x3635c9adc5de8e3762",
                            "code": "0x",
                            "storage": {}
                        },
                        "0x2adc25665018aa1fe0e6bc666dac8fc2697ff9ba": {
                            "nonce": "0x00",
                            "balance": "0x0555c9",
                            "code": "0x",
                            "storage": {}
                        }
                    }
                }
            ]
        },
        "config": {
            "blobSchedule": {
                "Cancun": {
                    "target": "0x03",
                    "max": "0x06",
                    "baseFeeUpdateFraction": "0x32f0ed"
                },
                "Prague": {
                    "target": "0x06",
                    "max": "0x09",
                    "baseFeeUpdateFraction": "0x4c6964"
                },
                "Osaka": {
                    "target": "0x06",
                    "max": "0x09",
                    "baseFeeUpdateFraction": "0x4c6964"
                }
            },
            "chainid": "0x01"
        },
        "_info": {
            "hash": "0xdb157b89edf33481bc4c6b889e06e8f81622662a7f921a30ea06218547e72a68",
            "comment": "`execution-spec-tests` generated test",
            "filling-transition-tool": "ethereum-spec-evm-resolver 0.0.5",
            "description": "Test CLZ opcode with call operation.",
            "url": "https://github.com/ethereum/execution-spec-tests/blob/fusaka-devnet-5@v1.1.0/tests/osaka/eip7939_count_leading_zeros/test_count_leading_zeros.py#L612",
            "fixture-format": "state_test",
            "reference-spec": "https://github.com/ethereum/EIPs/blob/master/EIPS/eip-7939.md",
            "reference-spec-version": "c8321494fdfbfda52ad46c3515a7ca5dc86b857c",
            "eels-resolution": {
                "git-url": "https://github.com/marioevz/execution-specs.git",
                "branch": "forks/bpo1",
                "commit": "3387e5f4aedfe99becfdc39b444d6371e25e0924"
            }
        }
    },
    "tests/osaka/eip7939_count_leading_zeros/test_count_leading_zeros.py::test_clz_call_operation[fork_Osaka-state_test-callcode]": {
        "env": {
            "currentCoinbase": "0x2adc25665018aa1fe0e6bc666dac8fc2697ff9ba",
            "currentGasLimit": "0x055d4a80",
            "currentNumber": "0x01",
            "currentTimestamp": "0x03e8",
            "currentRandom": "0x0000000000000000000000000000000000000000000000000000000000000000",
            "currentDifficulty": "0x00",
            "currentBaseFee": "0x07",
            "currentExcessBlobGas": "0x00"
        },
        "pre": {
            "0x62d3cf722b6286ce7d1f3e9439809ab28bed3698": {
                "nonce": "0x01",
                "balance": "0x00",
                "code": "0x7f80000000000000000000000000000000000000000000000000000000000000001e680100000000000000001e60011e60011e600055680100000000000000001e6001557f80000000000000000000000000000000000000000000000000000000000000001e6002557f0000000000000000000000000000000000000000000000000000000000000000527f0000000000000000000000000000000000000000000000000000000000000020527f00000000000000000000000000000000000000000000000000000000000000405260606000f3",
                "storage": {}
            },
            "0x62d3cf722b6286ce7d1f3e9439809ab28bed3798": {
                "nonce": "0x01",
                "balance": "0x00",
                "code": "0x606060006000600060007362d3cf722b6286ce7d1f3e9439809ab28bed369861fffff2600051600055602051600155604051600255",
                "storage": {}
            },
            "0x1d5215982d440401cf03eca43d883a242ad99aab": {
                "nonce": "0x00",
                "balance": "0x3635c9adc5dea00000",
                "code": "0x",
                "storage": {}
            }
        },
        "transaction": {
            "nonce": "0x00",
            "gasPrice": "0x0a",
            "gasLimit": [
                "0x030d40"
            ],
            "to": "0x62d3cf722b6286ce7d1f3e9439809ab28bed3798",
            "value": [
                "0x00"
            ],
            "data": [
                "0x"
            ],
            "sender": "0x1d5215982d440401cf03eca43d883a242ad99aab",
            "secretKey": "0x339debc875eba77908f68a6562d3cf722b6286ce7d1f3e9439809ab28bed3698"
        },
        "post": {
            "Osaka": [
                {
                    "hash": "0x8c7c9d52bdabc3f36e0f8aa3f030c7f96165426cd80565fe65ec6cd5b11fea57",
                    "logs": "0x1dcc4de8dec75d7aab85b567b6ccd41ad312451b948a7413f0a142fd40d49347",
                    "txbytes": "0xf860800a83030d409462d3cf722b6286ce7d1f3e9439809ab28bed3798808025a01f97d3b215d3934f8b43fd0da044c503efa2a3108d79fef82ab7299114ea22a8a033ca631928d8ed7bc2b07f16379283922dc73d68575604d5ecdd3528be733c11",
                    "indexes": {
                        "data": 0,
                        "gas": 0,
                        "value": 0
                    },
                    "state": {
                        "0x62d3cf722b6286ce7d1f3e9439809ab28bed3698": {
                            "nonce": "0x01",
                            "balance": "0x00",
                            "code": "0x7f80000000000000000000000000000000000000000000000000000000000000001e680100000000000000001e60011e60011e600055680100000000000000001e6001557f80000000000000000000000000000000000000000000000000000000000000001e6002557f0000000000000000000000000000000000000000000000000000000000000000527f0000000000000000000000000000000000000000000000000000000000000020527f00000000000000000000000000000000000000000000000000000000000000405260606000f3",
                            "storage": {}
                        },
                        "0x62d3cf722b6286ce7d1f3e9439809ab28bed3798": {
                            "nonce": "0x01",
                            "balance": "0x00",
                            "code": "0x606060006000600060007362d3cf722b6286ce7d1f3e9439809ab28bed369861fffff2600051600055602051600155604051600255",
                            "storage": {
                                "0x00": "0xff",
                                "0x01": "0xbf"
                            }
                        },
                        "0x1d5215982d440401cf03eca43d883a242ad99aab": {
                            "nonce": "0x01",
                            "balance": "0x3635c9adc5de95402a",
                            "code": "0x",
                            "storage": {}
                        },
                        "0x2adc25665018aa1fe0e6bc666dac8fc2697ff9ba": {
                            "nonce": "0x00",
                            "balance": "0x03398d",
                            "code": "0x",
                            "storage": {}
                        }
                    }
                }
            ]
        },
        "config": {
            "blobSchedule": {
                "Cancun": {
                    "target": "0x03",
                    "max": "0x06",
                    "baseFeeUpdateFraction": "0x32f0ed"
                },
                "Prague": {
                    "target": "0x06",
                    "max": "0x09",
                    "baseFeeUpdateFraction": "0x4c6964"
                },
                "Osaka": {
                    "target": "0x06",
                    "max": "0x09",
                    "baseFeeUpdateFraction": "0x4c6964"
                }
            },
            "chainid": "0x01"
        },
        "_info": {
            "hash": "0xfeb318a89a3c7e6745cda095c60007ab7c70bd8a22524c56dda0da9af2906f41",
            "comment": "`execution-spec-tests` generated test",
            "filling-transition-tool": "ethereum-spec-evm-resolver 0.0.5",
            "description": "Test CLZ opcode with call operation.",
            "url": "https://github.com/ethereum/execution-spec-tests/blob/fusaka-devnet-5@v1.1.0/tests/osaka/eip7939_count_leading_zeros/test_count_leading_zeros.py#L612",
            "fixture-format": "state_test",
            "reference-spec": "https://github.com/ethereum/EIPs/blob/master/EIPS/eip-7939.md",
            "reference-spec-version": "c8321494fdfbfda52ad46c3515a7ca5dc86b857c",
            "eels-resolution": {
                "git-url": "https://github.com/marioevz/execution-specs.git",
                "branch": "forks/bpo1",
                "commit": "3387e5f4aedfe99becfdc39b444d6371e25e0924"
            }
        }
    },
    "tests/osaka/eip7939_count_leading_zeros/test_count_leading_zeros.py::test_clz_call_operation[fork_Osaka-state_test-delegatecall]": {
        "env": {
            "currentCoinbase": "0x2adc25665018aa1fe0e6bc666dac8fc2697ff9ba",
            "currentGasLimit": "0x055d4a80",
            "currentNumber": "0x01",
            "currentTimestamp": "0x03e8",
            "currentRandom": "0x0000000000000000000000000000000000000000000000000000000000000000",
            "currentDifficulty": "0x00",
            "currentBaseFee": "0x07",
            "currentExcessBlobGas": "0x00"
        },
        "pre": {
            "0xee7c50d4c16e6fa7428bc19de4346f7ec496ebc2": {
                "nonce": "0x01",
                "balance": "0x00",
                "code": "0x7f80000000000000000000000000000000000000000000000000000000000000001e680100000000000000001e60011e60011e600055680100000000000000001e6001557f80000000000000000000000000000000000000000000000000000000000000001e6002557f0000000000000000000000000000000000000000000000000000000000000000527f0000000000000000000000000000000000000000000000000000000000000020527f00000000000000000000000000000000000000000000000000000000000000405260606000f3",
                "storage": {}
            },
            "0xee7c50d4c16e6fa7428bc19de4346f7ec496ecc2": {
                "nonce": "0x01",
                "balance": "0x00",
                "code": "0x606060006000600073ee7c50d4c16e6fa7428bc19de4346f7ec496ebc261fffff4600051600055602051600155604051600255",
                "storage": {}
            },
            "0x4a28d10061cab82b0938b6da7850ac4aabfc91bc": {
                "nonce": "0x00",
                "balance": "0x3635c9adc5dea00000",
                "code": "0x",
                "storage": {}
            }
        },
        "transaction": {
            "nonce": "0x00",
            "gasPrice": "0x0a",
            "gasLimit": [
                "0x030d40"
            ],
            "to": "0xee7c50d4c16e6fa7428bc19de4346f7ec496ecc2",
            "value": [
                "0x00"
            ],
            "data": [
                "0x"
            ],
            "sender": "0x4a28d10061cab82b0938b6da7850ac4aabfc91bc",
            "secretKey": "0x0a40f1092e5ea4559c5b7eebee7c50d4c16e6fa7428bc19de4346f7ec496ebc2"
        },
        "post": {
            "Osaka": [
                {
                    "hash": "0x0472fd37a111af2cce74915cd20a3a20ae8860aa8a7a7fbfd8e585cd49c574c1",
                    "logs": "0x1dcc4de8dec75d7aab85b567b6ccd41ad312451b948a7413f0a142fd40d49347",
                    "txbytes": "0xf860800a83030d4094ee7c50d4c16e6fa7428bc19de4346f7ec496ecc2808025a0289ad06f8eeb172a9abfc90f978ef3dd7879433383f73e2c7f8fda823fa8f154a04e8c89ddff5a73eb40604f325db3d0df31f48d243aba32080e3a0d84974b54f5",
                    "indexes": {
                        "data": 0,
                        "gas": 0,
                        "value": 0
                    },
                    "state": {
                        "0xee7c50d4c16e6fa7428bc19de4346f7ec496ebc2": {
                            "nonce": "0x01",
                            "balance": "0x00",
                            "code": "0x7f80000000000000000000000000000000000000000000000000000000000000001e680100000000000000001e60011e60011e600055680100000000000000001e6001557f80000000000000000000000000000000000000000000000000000000000000001e6002557f0000000000000000000000000000000000000000000000000000000000000000527f0000000000000000000000000000000000000000000000000000000000000020527f00000000000000000000000000000000000000000000000000000000000000405260606000f3",
                            "storage": {}
                        },
                        "0xee7c50d4c16e6fa7428bc19de4346f7ec496ecc2": {
                            "nonce": "0x01",
                            "balance": "0x00",
                            "code": "0x606060006000600073ee7c50d4c16e6fa7428bc19de4346f7ec496ebc261fffff4600051600055602051600155604051600255",
                            "storage": {
                                "0x00": "0xff",
                                "0x01": "0xbf"
                            }
                        },
                        "0x4a28d10061cab82b0938b6da7850ac4aabfc91bc": {
                            "nonce": "0x01",
                            "balance": "0x3635c9adc5de954048",
                            "code": "0x",
                            "storage": {}
                        },
                        "0x2adc25665018aa1fe0e6bc666dac8fc2697ff9ba": {
                            "nonce": "0x00",
                            "balance": "0x033984",
                            "code": "0x",
                            "storage": {}
                        }
                    }
                }
            ]
        },
        "config": {
            "blobSchedule": {
                "Cancun": {
                    "target": "0x03",
                    "max": "0x06",
                    "baseFeeUpdateFraction": "0x32f0ed"
                },
                "Prague": {
                    "target": "0x06",
                    "max": "0x09",
                    "baseFeeUpdateFraction": "0x4c6964"
                },
                "Osaka": {
                    "target": "0x06",
                    "max": "0x09",
                    "baseFeeUpdateFraction": "0x4c6964"
                }
            },
            "chainid": "0x01"
        },
        "_info": {
            "hash": "0x10d258aa24b6c4e2dc04182645142a6377594b13a5e4af8dd57bf8db016a94ec",
            "comment": "`execution-spec-tests` generated test",
            "filling-transition-tool": "ethereum-spec-evm-resolver 0.0.5",
            "description": "Test CLZ opcode with call operation.",
            "url": "https://github.com/ethereum/execution-spec-tests/blob/fusaka-devnet-5@v1.1.0/tests/osaka/eip7939_count_leading_zeros/test_count_leading_zeros.py#L612",
            "fixture-format": "state_test",
            "reference-spec": "https://github.com/ethereum/EIPs/blob/master/EIPS/eip-7939.md",
            "reference-spec-version": "c8321494fdfbfda52ad46c3515a7ca5dc86b857c",
            "eels-resolution": {
                "git-url": "https://github.com/marioevz/execution-specs.git",
                "branch": "forks/bpo1",
                "commit": "3387e5f4aedfe99becfdc39b444d6371e25e0924"
            }
        }
    },
    "tests/osaka/eip7939_count_leading_zeros/test_count_leading_zeros.py::test_clz_call_operation[fork_Osaka-state_test-staticcall]": {
        "env": {
            "currentCoinbase": "0x2adc25665018aa1fe0e6bc666dac8fc2697ff9ba",
            "currentGasLimit": "0x055d4a80",
            "currentNumber": "0x01",
            "currentTimestamp": "0x03e8",
            "currentRandom": "0x0000000000000000000000000000000000000000000000000000000000000000",
            "currentDifficulty": "0x00",
            "currentBaseFee": "0x07",
            "currentExcessBlobGas": "0x00"
        },
        "pre": {
            "0xae5b0b7adef4abb6308b532554348d2fb4121591": {
                "nonce": "0x01",
                "balance": "0x00",
                "code": "0x7f80000000000000000000000000000000000000000000000000000000000000001e680100000000000000001e60011e7f0000000000000000000000000000000000000000000000000000000000000000527f0000000000000000000000000000000000000000000000000000000000000020527f00000000000000000000000000000000000000000000000000000000000000405260606000f3",
                "storage": {}
            },
            "0xae5b0b7adef4abb6308b532554348d2fb4121691": {
                "nonce": "0x01",
                "balance": "0x00",
                "code": "0x606060006000600073ae5b0b7adef4abb6308b532554348d2fb412159161fffffa600051600055602051600155604051600255",
                "storage": {}
            },
            "0x38df340b984d5aacf2b0f5c09289bf46cc934e03": {
                "nonce": "0x00",
                "balance": "0x3635c9adc5dea00000",
                "code": "0x",
                "storage": {}
            }
        },
        "transaction": {
            "nonce": "0x00",
            "gasPrice": "0x0a",
            "gasLimit": [
                "0x030d40"
            ],
            "to": "0xae5b0b7adef4abb6308b532554348d2fb4121691",
            "value": [
                "0x00"
            ],
            "data": [
                "0x"
            ],
            "sender": "0x38df340b984d5aacf2b0f5c09289bf46cc934e03",
            "secretKey": "0xd75e84245728a840b975c966ae5b0b7adef4abb6308b532554348d2fb4121591"
        },
        "post": {
            "Osaka": [
                {
                    "hash": "0x956e3d2c712596c978928bfe17d00fd75bfe4a91faea4d023b6f776ddf1ad54b",
                    "logs": "0x1dcc4de8dec75d7aab85b567b6ccd41ad312451b948a7413f0a142fd40d49347",
                    "txbytes": "0xf860800a83030d4094ae5b0b7adef4abb6308b532554348d2fb4121691808025a0f8c596b0c0286bc6e2c0aa5068d3b930ec63552e9cb5d0e659937707ba4265c6a03abf631ccc5c1e3c1473d83e10ed50346a4bb3e4e8b0af2eb241cba61b5d2d79",
                    "indexes": {
                        "data": 0,
                        "gas": 0,
                        "value": 0
                    },
                    "state": {
                        "0xae5b0b7adef4abb6308b532554348d2fb4121591": {
                            "nonce": "0x01",
                            "balance": "0x00",
                            "code": "0x7f80000000000000000000000000000000000000000000000000000000000000001e680100000000000000001e60011e7f0000000000000000000000000000000000000000000000000000000000000000527f0000000000000000000000000000000000000000000000000000000000000020527f00000000000000000000000000000000000000000000000000000000000000405260606000f3",
                            "storage": {}
                        },
                        "0xae5b0b7adef4abb6308b532554348d2fb4121691": {
                            "nonce": "0x01",
                            "balance": "0x00",
                            "code": "0x606060006000600073ae5b0b7adef4abb6308b532554348d2fb412159161fffffa600051600055602051600155604051600255",
                            "storage": {
                                "0x00": "0xff",
                                "0x01": "0xbf"
                            }
                        },
                        "0x38df340b984d5aacf2b0f5c09289bf46cc934e03": {
                            "nonce": "0x01",
                            "balance": "0x3635c9adc5de954d4a",
                            "code": "0x",
                            "storage": {}
                        },
                        "0x2adc25665018aa1fe0e6bc666dac8fc2697ff9ba": {
                            "nonce": "0x00",
                            "balance": "0x03359d",
                            "code": "0x",
                            "storage": {}
                        }
                    }
                }
            ]
        },
        "config": {
            "blobSchedule": {
                "Cancun": {
                    "target": "0x03",
                    "max": "0x06",
                    "baseFeeUpdateFraction": "0x32f0ed"
                },
                "Prague": {
                    "target": "0x06",
                    "max": "0x09",
                    "baseFeeUpdateFraction": "0x4c6964"
                },
                "Osaka": {
                    "target": "0x06",
                    "max": "0x09",
                    "baseFeeUpdateFraction": "0x4c6964"
                }
            },
            "chainid": "0x01"
        },
        "_info": {
            "hash": "0xf72b831448e3cffc0e0456306fd19f4fe17bfc989c7cc37ef64ea4a729b8654a",
            "comment": "`execution-spec-tests` generated test",
            "filling-transition-tool": "ethereum-spec-evm-resolver 0.0.5",
            "description": "Test CLZ opcode with call operation.",
            "url": "https://github.com/ethereum/execution-spec-tests/blob/fusaka-devnet-5@v1.1.0/tests/osaka/eip7939_count_leading_zeros/test_count_leading_zeros.py#L612",
            "fixture-format": "state_test",
            "reference-spec": "https://github.com/ethereum/EIPs/blob/master/EIPS/eip-7939.md",
            "reference-spec-version": "c8321494fdfbfda52ad46c3515a7ca5dc86b857c",
            "eels-resolution": {
                "git-url": "https://github.com/marioevz/execution-specs.git",
                "branch": "forks/bpo1",
                "commit": "3387e5f4aedfe99becfdc39b444d6371e25e0924"
            }
        }
    }
}