{
    "tests/osaka/eip7939_count_leading_zeros/test_count_leading_zeros.py::test_clz_initcode_create[fork_Osaka-state_test-opcode_CREATE2]": {
        "env": {
            "currentCoinbase": "0x2adc25665018aa1fe0e6bc666dac8fc2697ff9ba",
            "currentGasLimit": "0x055d4a80",
            "currentNumber": "0x01",
            "currentTimestamp": "0x03e8",
            "currentRandom": "0x0000000000000000000000000000000000000000000000000000000000000000",
            "currentDifficulty": "0x00",
            "currentBaseFee": "0x07",
            "currentExcessBlobGas": "0x00"
        },
        "pre": {
            "0x06e2b465e8902a18469dfb6ddb25ff35d451dc04": {
                "nonce": "0x00",
                "balance": "0x3635c9adc5dea00000",
                "code": "0x",
                "storage": {}
            },
            "0x698b9908681cd14ae2f894798df5b04851ca43c0": {
                "nonce": "0x01",
                "balance": "0x00",
                "code": "0x605560006000376000605560006000f500",
                "storage": {}
            }
        },
        "transaction": {
            "nonce": "0x00",
            "gasPrice": "0x0a",
            "gasLimit": [
                "0x030d40"
            ],
            "to": "0x698b9908681cd14ae2f894798df5b04851ca43c0",
            "value": [
                "0x00"
            ],
            "data": [
                "0x60011e60005560021e600155680100000000000000001e6002557001000000000000000000000000000000001e6003557f80000000000000000000000000000000000000000000000000000000000000001e600455"
            ],
            "sender": "0x06e2b465e8902a18469dfb6ddb25ff35d451dc04",
            "secretKey": "0x5213cc54583d015b125ef82c698b9908681cd14ae2f894798df5b04851ca43c0"
        },
        "post": {
            "Osaka": [
                {
                    "hash": "0x23f25bb5911f9c01895d880f4d5f54d880a41c51aee8b29dd5eaef379535aa20",
                    "logs": "0x1dcc4de8dec75d7aab85b567b6ccd41ad312451b948a7413f0a142fd40d49347",
                    "txbytes": "0xf8b6800a83030d4094698b9908681cd14ae2f894798df5b04851ca43c080b85560011e60005560021e600155680100000000000000001e6002557001000000000000000000000000000000001e6003557f80000000000000000000000000000000000000000000000000000000000000001e60045525a0efe7cb39012a00ed3c26e4698aa9b9d73398b4ececef165f9aeb4084feef6102a049c8641cda20e31f19bce9e88a80211b7cac425db1d5830f54270f2381cdb9cf",
                    "indexes": {
                        "data": 0,
                        "gas": 0,
                        "value": 0
                    },
                    "state": {
                        "0x06e2b465e8902a18469dfb6ddb25ff35d451dc04": {
                            "nonce": "0x01",
                            "balance": "0x3635c9adc5de89f706",
                            "code": "0x",
                            "storage": {}
                        },
                        "0x698b9908681cd14ae2f894798df5b04851ca43c0": {
                            "nonce": "0x02",
                            "balance": "0x00",
                            "code": "0x605560006000376000605560006000f500",
                            "storage": {}
                        },
                        "0x088e2a47ae3cf994fbd9d5475f3c46c2d84582af": {
                            "nonce": "0x01",
                            "balance": "0x00",
                            "code": "0x",
                            "storage": {
                                "0x00": "0xff",
                                "0x01": "0xfe",
                                "0x02": "0xbf",
                                "0x03": "0x7f"
                            }
                        },
                        "0x2adc25665018aa1fe0e6bc666dac8fc2697ff9ba": {
                            "nonce": "0x00",
                            "balance": "0x069c4b",
                            "code": "0x",
                            "storage": {}
                        }
                    }
                }
            ]
        },
        "config": {
            "blobSchedule": {
                "Cancun": {
                    "target": "0x03",
                    "max": "0x06",
                    "baseFeeUpdateFraction": "0x32f0ed"
                },
                "Prague": {
                    "target": "0x06",
                    "max": "0x09",
                    "baseFeeUpdateFraction": "0x4c6964"
                },
                "Osaka": {
                    "target": "0x06",
                    "max": "0x09",
                    "baseFeeUpdateFraction": "0x4c6964"
                }
            },
            "chainid": "0x01"
        },
        "_info": {
            "hash": "0x1815058e339c4c62b0272ed8e58ecd96fff558b8f589406429dd52fb1babc7b4",
            "comment": "`execution-spec-tests` generated test",
            "filling-transition-tool": "ethereum-spec-evm-resolver 0.0.5",
            "description": "Test CLZ opcode behavior when creating a contract.",
            "url": "https://github.com/ethereum/execution-spec-tests/blob/fusaka-devnet-5@v1.1.0/tests/osaka/eip7939_count_leading_zeros/test_count_leading_zeros.py#L562",
            "fixture-format": "state_test",
            "reference-spec": "https://github.com/ethereum/EIPs/blob/master/EIPS/eip-7939.md",
            "reference-spec-version": "c8321494fdfbfda52ad46c3515a7ca5dc86b857c",
            "eels-resolution": {
                "git-url": "https://github.com/marioevz/execution-specs.git",
                "branch": "forks/bpo1",
                "commit": "3387e5f4aedfe99becfdc39b444d6371e25e0924"
            }
        }
    },
    "tests/osaka/eip7939_count_leading_zeros/test_count_leading_zeros.py::test_clz_initcode_create[fork_Osaka-state_test-opcode_CREATE]": {
        "env": {
            "currentCoinbase": "0x2adc25665018aa1fe0e6bc666dac8fc2697ff9ba",
            "currentGasLimit": "0x055d4a80",
            "currentNumber": "0x01",
            "currentTimestamp": "0x03e8",
            "currentRandom": "0x0000000000000000000000000000000000000000000000000000000000000000",
            "currentDifficulty": "0x00",
            "currentBaseFee": "0x07",
            "currentExcessBlobGas": "0x00"
        },
        "pre": {
            "0x88aeaaa2cc5eb810ff8d5d0bf62e1aac7a5b86bf": {
                "nonce": "0x00",
                "balance": "0x3635c9adc5dea00000",
                "code": "0x",
                "storage": {}
            },
            "0x576fd5f4ea9607696e2ed7383aeef86279affec4": {
                "nonce": "0x01",
                "balance": "0x00",
                "code": "0x60556000600037605560006000f000",
                "storage": {}
            }
        },
        "transaction": {
            "nonce": "0x00",
            "gasPrice": "0x0a",
            "gasLimit": [
                "0x030d40"
            ],
            "to": "0x576fd5f4ea9607696e2ed7383aeef86279affec4",
            "value": [
                "0x00"
            ],
            "data": [
                "0x60011e60005560021e600155680100000000000000001e6002557001000000000000000000000000000000001e6003557f80000000000000000000000000000000000000000000000000000000000000001e600455"
            ],
            "sender": "0x88aeaaa2cc5eb810ff8d5d0bf62e1aac7a5b86bf",
            "secretKey": "0x462567834084415bdc7e97e6576fd5f4ea9607696e2ed7383aeef86279affec4"
        },
        "post": {
            "Osaka": [
                {
                    "hash": "0x338e8a4b910f6351849cd08f0463e3e7cdcc2930be092bbdaa8af2d070eff932",
                    "logs": "0x1dcc4de8dec75d7aab85b567b6ccd41ad312451b948a7413f0a142fd40d49347",
                    "txbytes": "0xf8b6800a83030d4094576fd5f4ea9607696e2ed7383aeef86279affec480b85560011e60005560021e600155680100000000000000001e6002557001000000000000000000000000000000001e6003557f80000000000000000000000000000000000000000000000000000000000000001e60045526a075c4de3040767a076f2895cc37fa294da2518e41a52d89abf509cd0923fb1a6fa05cb1ef30e571e9a6128aebcda005cdbfa4146f30d215f8385a48edb9cf4df949",
                    "indexes": {
                        "data": 0,
                        "gas": 0,
                        "value": 0
                    },
                    "state": {
                        "0x88aeaaa2cc5eb810ff8d5d0bf62e1aac7a5b86bf": {
                            "nonce": "0x01",
                            "balance": "0x3635c9adc5de89f7d8",
                            "code": "0x",
                            "storage": {}
                        },
                        "0x576fd5f4ea9607696e2ed7383aeef86279affec4": {
                            "nonce": "0x02",
                            "balance": "0x00",
                            "code": "0x60556000600037605560006000f000",
                            "storage": {}
                        },
                        "0x152aac04ce3f7afcf88ae55782d2d4355128e7bd": {
                            "nonce": "0x01",
                            "balance": "0x00",
                            "code": "0x",
                            "storage": {
                                "0x00": "0xff",
                                "0x01": "0xfe",
                                "0x02": "0xbf",
                                "0x03": "0x7f"
                            }
                        },
                        "0x2adc25665018aa1fe0e6bc666dac8fc2697ff9ba": {
                            "nonce": "0x00",
                            "balance": "0x069c0c",
                            "code": "0x",
                            "storage": {}
                        }
                    }
                }
            ]
        },
        "config": {
            "blobSchedule": {
                "Cancun": {
                    "target": "0x03",
                    "max": "0x06",
                    "baseFeeUpdateFraction": "0x32f0ed"
                },
                "Prague": {
                    "target": "0x06",
                    "max": "0x09",
                    "baseFeeUpdateFraction": "0x4c6964"
                },
                "Osaka": {
                    "target": "0x06",
                    "max": "0x09",
                    "baseFeeUpdateFraction": "0x4c6964"
                }
            },
            "chainid": "0x01"
        },
        "_info": {
            "hash": "0x554e8164acc14cc81df1f16cb4d0482edbfc309014aa5a5555e7ab3219ed21a2",
            "comment": "`execution-spec-tests` generated test",
            "filling-transition-tool": "ethereum-spec-evm-resolver 0.0.5",
            "description": "Test CLZ opcode behavior when creating a contract.",
            "url": "https://github.com/ethereum/execution-spec-tests/blob/fusaka-devnet-5@v1.1.0/tests/osaka/eip7939_count_leading_zeros/test_count_leading_zeros.py#L562",
            "fixture-format": "state_test",
            "reference-spec": "https://github.com/ethereum/EIPs/blob/master/EIPS/eip-7939.md",
            "reference-spec-version": "c8321494fdfbfda52ad46c3515a7ca5dc86b857c",
            "eels-resolution": {
                "git-url": "https://github.com/marioevz/execution-specs.git",
                "branch": "forks/bpo1",
                "commit": "3387e5f4aedfe99becfdc39b444d6371e25e0924"
            }
        }
    }
}