{
    "tests/osaka/eip7951_p256verify_precompiles/test_p256verify.py::test_call_types[fork_Osaka-state_test--valid_call-call_opcode_CALLCODE]": {
        "env": {
            "currentCoinbase": "0x2adc25665018aa1fe0e6bc666dac8fc2697ff9ba",
            "currentGasLimit": "0x055d4a80",
            "currentNumber": "0x01",
            "currentTimestamp": "0x03e8",
            "currentRandom": "0x0000000000000000000000000000000000000000000000000000000000000000",
            "currentDifficulty": "0x00",
            "currentBaseFee": "0x07",
            "currentExcessBlobGas": "0x00"
        },
        "pre": {
            "0xbb55df2ab86c55ae3378522936c75ef4e596e7e9": {
                "nonce": "0x01",
                "balance": "0x00",
                "code": "0x366000600037600060003660006000610100611af4f23d6001556000553d600060003e3d600020600255",
                "storage": {}
            },
            "0x91aecbe3e2ce6b0fd180b1e1b9e671c34f71f1db": {
                "nonce": "0x00",
                "balance": "0x3635c9adc5dea00000",
                "code": "0x",
                "storage": {}
            }
        },
        "transaction": {
            "nonce": "0x00",
            "gasPrice": "0x0a",
            "gasLimit": [
                "0x020c6f"
            ],
            "to": "0xbb55df2ab86c55ae3378522936c75ef4e596e7e9",
            "value": [
                "0x00"
            ],
            "data": [
                "0xbb5a52f42f9c9261ed4361f59422a1e30036e7c32b270c8807a419feca6050232ba3a8be6b94d5ec80a6d9d1190a436effe50d85a1eee859b8cc6af9bd5c2e184cd60b855d442f5b3c7b11eb6c4e0ae7525fe710fab9aa7c77a67f79e6fadd762927b10512bae3eddcfe467828128bad2903269919f7086069c8c4df6c732838c7787964eaac00e5921fb1498a60f4606766b3d9685001558d1a974e7341513e"
            ],
            "sender": "0x91aecbe3e2ce6b0fd180b1e1b9e671c34f71f1db",
            "secretKey": "0xd6a21106fdda5d0e9231191dbb55df2ab86c55ae3378522936c75ef4e596e7e9"
        },
        "post": {
            "Osaka": [
                {
                    "hash": "0x465003eecd032c8fa503b15370bc61e9256455206b2b530a8b9873d79d3da30b",
                    "logs": "0x1dcc4de8dec75d7aab85b567b6ccd41ad312451b948a7413f0a142fd40d49347",
                    "txbytes": "0xf90101800a83020c6f94bb55df2ab86c55ae3378522936c75ef4e596e7e980b8a0bb5a52f42f9c9261ed4361f59422a1e30036e7c32b270c8807a419feca6050232ba3a8be6b94d5ec80a6d9d1190a436effe50d85a1eee859b8cc6af9bd5c2e184cd60b855d442f5b3c7b11eb6c4e0ae7525fe710fab9aa7c77a67f79e6fadd762927b10512bae3eddcfe467828128bad2903269919f7086069c8c4df6c732838c7787964eaac00e5921fb1498a60f4606766b3d9685001558d1a974e7341513e26a069fe833302e721aef35af5bc15860f8082d683e8dc4b3f31b1670c834d0e78aea001b67ad93fb8095e4279032602ac6835fa651a5ed86a724af8cf51d280af6f92",
                    "indexes": {
                        "data": 0,
                        "gas": 0,
                        "value": 0
                    },
                    "state": {
                        "0xbb55df2ab86c55ae3378522936c75ef4e596e7e9": {
                            "nonce": "0x01",
                            "balance": "0x00",
                            "code": "0x366000600037600060003660006000610100611af4f23d6001556000553d600060003e3d600020600255",
                            "storage": {
                                "0x01": "0x20",
                                "0x00": "0x01",
                                "0x02": "0xb10e2d527612073b26eecdfd717e6a320cf44b4afac2b0732d9fcbe2b7fa0cf6"
                            }
                        },
                        "0x91aecbe3e2ce6b0fd180b1e1b9e671c34f71f1db": {
                            "nonce": "0x01",
                            "balance": "0x3635c9adc5de913462",
                            "code": "0x",
                            "storage": {}
                        },
                        "0x2adc25665018aa1fe0e6bc666dac8fc2697ff9ba": {
                            "nonce": "0x00",
                            "balance": "0x047049",
                            "code": "0x",
                            "storage": {}
                        }
                    }
                }
            ]
        },
        "config": {
            "blobSchedule": {
                "Cancun": {
                    "target": "0x03",
                    "max": "0x06",
                    "baseFeeUpdateFraction": "0x32f0ed"
                },
                "Prague": {
                    "target": "0x06",
                    "max": "0x09",
                    "baseFeeUpdateFraction": "0x4c6964"
                },
                "Osaka": {
                    "target": "0x06",
                    "max": "0x09",
                    "baseFeeUpdateFraction": "0x4c6964"
                }
            },
            "chainid": "0x01"
        },
        "_info": {
            "hash": "0xce6808ccc0a29d562e71ec3085cbe76154b3069c551d1112fb6d9a2fffec8d08",
            "comment": "`execution-spec-tests` generated test",
            "filling-transition-tool": "ethereum-spec-evm-resolver 0.0.5",
            "description": "Test P256Verify precompile using different call types.",
            "url": "https://github.com/ethereum/execution-spec-tests/blob/fusaka-devnet-5@v1.1.0/tests/osaka/eip7951_p256verify_precompiles/test_p256verify.py#L179",
            "fixture-format": "state_test",
            "reference-spec": "https://github.com/ethereum/EIPs/blob/master/EIPS/eip-7951.md",
            "reference-spec-version": "06aadd458ee04ede80498db55927b052eb5bef38",
            "eels-resolution": {
                "git-url": "https://github.com/marioevz/execution-specs.git",
                "branch": "forks/bpo1",
                "commit": "3387e5f4aedfe99becfdc39b444d6371e25e0924"
            }
        }
    },
    "tests/osaka/eip7951_p256verify_precompiles/test_p256verify.py::test_call_types[fork_Osaka-state_test--valid_call-call_opcode_DELEGATECALL]": {
        "env": {
            "currentCoinbase": "0x2adc25665018aa1fe0e6bc666dac8fc2697ff9ba",
            "currentGasLimit": "0x055d4a80",
            "currentNumber": "0x01",
            "currentTimestamp": "0x03e8",
            "currentRandom": "0x0000000000000000000000000000000000000000000000000000000000000000",
            "currentDifficulty": "0x00",
            "currentBaseFee": "0x07",
            "currentExcessBlobGas": "0x00"
        },
        "pre": {
            "0x7549c206ae00b0be679eb26d18396625884897f7": {
                "nonce": "0x01",
                "balance": "0x00",
                "code": "0x36600060003760006000366000610100611af4f43d6001556000553d600060003e3d600020600255",
                "storage": {}
            },
            "0x3a7f000c9dc38ec041ce1354b3e74c8292b97310": {
                "nonce": "0x00",
                "balance": "0x3635c9adc5dea00000",
                "code": "0x",
                "storage": {}
            }
        },
        "transaction": {
            "nonce": "0x00",
            "gasPrice": "0x0a",
            "gasLimit": [
                "0x020c6f"
            ],
            "to": "0x7549c206ae00b0be679eb26d18396625884897f7",
            "value": [
                "0x00"
            ],
            "data": [
                "0xbb5a52f42f9c9261ed4361f59422a1e30036e7c32b270c8807a419feca6050232ba3a8be6b94d5ec80a6d9d1190a436effe50d85a1eee859b8cc6af9bd5c2e184cd60b855d442f5b3c7b11eb6c4e0ae7525fe710fab9aa7c77a67f79e6fadd762927b10512bae3eddcfe467828128bad2903269919f7086069c8c4df6c732838c7787964eaac00e5921fb1498a60f4606766b3d9685001558d1a974e7341513e"
            ],
            "sender": "0x3a7f000c9dc38ec041ce1354b3e74c8292b97310",
            "secretKey": "0x3f80f2624c480440f95b20c07549c206ae00b0be679eb26d18396625884897f7"
        },
        "post": {
            "Osaka": [
                {
                    "hash": "0xa09a5407db1f15cef6710f433bd3d39c8bdbd339b545973b6db0c05e2ccabd65",
                    "logs": "0x1dcc4de8dec75d7aab85b567b6ccd41ad312451b948a7413f0a142fd40d49347",
                    "txbytes": "0xf90101800a83020c6f947549c206ae00b0be679eb26d18396625884897f780b8a0bb5a52f42f9c9261ed4361f59422a1e30036e7c32b270c8807a419feca6050232ba3a8be6b94d5ec80a6d9d1190a436effe50d85a1eee859b8cc6af9bd5c2e184cd60b855d442f5b3c7b11eb6c4e0ae7525fe710fab9aa7c77a67f79e6fadd762927b10512bae3eddcfe467828128bad2903269919f7086069c8c4df6c732838c7787964eaac00e5921fb1498a60f4606766b3d9685001558d1a974e7341513e25a074e1e55fe549e7aaf53d57edcc5fcc7d6b060e2026715d13132bebd358e47d18a02b1c61c0437be3e13b949f2c87d96b196882b06ceb6f0f4565a4ed4f614a063e",
                    "indexes": {
                        "data": 0,
                        "gas": 0,
                        "value": 0
                    },
                    "state": {
                        "0x7549c206ae00b0be679eb26d18396625884897f7": {
                            "nonce": "0x01",
                            "balance": "0x00",
                            "code": "0x36600060003760006000366000610100611af4f43d6001556000553d600060003e3d600020600255",
                            "storage": {
                                "0x01": "0x20",
                                "0x00": "0x01",
                                "0x02": "0xb10e2d527612073b26eecdfd717e6a320cf44b4afac2b0732d9fcbe2b7fa0cf6"
                            }
                        },
                        "0x3a7f000c9dc38ec041ce1354b3e74c8292b97310": {
                            "nonce": "0x01",
                            "balance": "0x3635c9adc5de913480",
                            "code": "0x",
                            "storage": {}
                        },
                        "0x2adc25665018aa1fe0e6bc666dac8fc2697ff9ba": {
                            "nonce": "0x00",
                            "balance": "0x047040",
                            "code": "0x",
                            "storage": {}
                        }
                    }
                }
            ]
        },
        "config": {
            "blobSchedule": {
                "Cancun": {
                    "target": "0x03",
                    "max": "0x06",
                    "baseFeeUpdateFraction": "0x32f0ed"
                },
                "Prague": {
                    "target": "0x06",
                    "max": "0x09",
                    "baseFeeUpdateFraction": "0x4c6964"
                },
                "Osaka": {
                    "target": "0x06",
                    "max": "0x09",
                    "baseFeeUpdateFraction": "0x4c6964"
                }
            },
            "chainid": "0x01"
        },
        "_info": {
            "hash": "0xa99c518b2048a2d3b707216c3633c3de54851f1581cf85dd596f066f8f97da6d",
            "comment": "`execution-spec-tests` generated test",
            "filling-transition-tool": "ethereum-spec-evm-resolver 0.0.5",
            "description": "Test P256Verify precompile using different call types.",
            "url": "https://github.com/ethereum/execution-spec-tests/blob/fusaka-devnet-5@v1.1.0/tests/osaka/eip7951_p256verify_precompiles/test_p256verify.py#L179",
            "fixture-format": "state_test",
            "reference-spec": "https://github.com/ethereum/EIPs/blob/master/EIPS/eip-7951.md",
            "reference-spec-version": "06aadd458ee04ede80498db55927b052eb5bef38",
            "eels-resolution": {
                "git-url": "https://github.com/marioevz/execution-specs.git",
                "branch": "forks/bpo1",
                "commit": "3387e5f4aedfe99becfdc39b444d6371e25e0924"
            }
        }
    },
    "tests/osaka/eip7951_p256verify_precompiles/test_p256verify.py::test_call_types[fork_Osaka-state_test--valid_call-call_opcode_STATICCALL]": {
        "env": {
            "currentCoinbase": "0x2adc25665018aa1fe0e6bc666dac8fc2697ff9ba",
            "currentGasLimit": "0x055d4a80",
            "currentNumber": "0x01",
            "currentTimestamp": "0x03e8",
            "currentRandom": "0x0000000000000000000000000000000000000000000000000000000000000000",
            "currentDifficulty": "0x00",
            "currentBaseFee": "0x07",
            "currentExcessBlobGas": "0x00"
        },
        "pre": {
            "0xf9f59dee303d325fa600162715210a9b16d43860": {
                "nonce": "0x01",
                "balance": "0x00",
                "code": "0x36600060003760006000366000610100611af4fa3d6001556000553d600060003e3d600020600255",
                "storage": {}
            },
            "0x87a3b51263a4fad94e76d5eb1834275e36a15446": {
                "nonce": "0x00",
                "balance": "0x3635c9adc5dea00000",
                "code": "0x",
                "storage": {}
            }
        },
        "transaction": {
            "nonce": "0x00",
            "gasPrice": "0x0a",
            "gasLimit": [
                "0x020c6f"
            ],
            "to": "0xf9f59dee303d325fa600162715210a9b16d43860",
            "value": [
                "0x00"
            ],
            "data": [
                "0xbb5a52f42f9c9261ed4361f59422a1e30036e7c32b270c8807a419feca6050232ba3a8be6b94d5ec80a6d9d1190a436effe50d85a1eee859b8cc6af9bd5c2e184cd60b855d442f5b3c7b11eb6c4e0ae7525fe710fab9aa7c77a67f79e6fadd762927b10512bae3eddcfe467828128bad2903269919f7086069c8c4df6c732838c7787964eaac00e5921fb1498a60f4606766b3d9685001558d1a974e7341513e"
            ],
            "sender": "0x87a3b51263a4fad94e76d5eb1834275e36a15446",
            "secretKey": "0x908cd68fb7877bee913882aff9f59dee303d325fa600162715210a9b16d43860"
        },
        "post": {
            "Osaka": [
                {
                    "hash": "0x9ddaf79e66f66fd264d0d1dd063ebd642d8a150fbb89d6cb6099b767f688bbf8",
                    "logs": "0x1dcc4de8dec75d7aab85b567b6ccd41ad312451b948a7413f0a142fd40d49347",
                    "txbytes": "0xf90101800a83020c6f94f9f59dee303d325fa600162715210a9b16d4386080b8a0bb5a52f42f9c9261ed4361f59422a1e30036e7c32b270c8807a419feca6050232ba3a8be6b94d5ec80a6d9d1190a436effe50d85a1eee859b8cc6af9bd5c2e184cd60b855d442f5b3c7b11eb6c4e0ae7525fe710fab9aa7c77a67f79e6fadd762927b10512bae3eddcfe467828128bad2903269919f7086069c8c4df6c732838c7787964eaac00e5921fb1498a60f4606766b3d9685001558d1a974e7341513e26a0e977668b9f197b6795a7d111fda9586ba8d2fd50c5bedad137cc2de606f9a08fa02e20862f4c4abc23ad5665d25145bb89717aca4dd7ef60224cfc31903b87a74a",
                    "indexes": {
                        "data": 0,
                        "gas": 0,
                        "value": 0
                    },
                    "state": {
                        "0xf9f59dee303d325fa600162715210a9b16d43860": {
                            "nonce": "0x01",
                            "balance": "0x00",
                            "code": "0x36600060003760006000366000610100611af4fa3d6001556000553d600060003e3d600020600255",
                            "storage": {
                                "0x01": "0x20",
                                "0x00": "0x01",
                                "0x02": "0xb10e2d527612073b26eecdfd717e6a320cf44b4afac2b0732d9fcbe2b7fa0cf6"
                            }
                        },
                        "0x87a3b51263a4fad94e76d5eb1834275e36a15446": {
                            "nonce": "0x01",
                            "balance": "0x3635c9adc5de913480",
                            "code": "0x",
                            "storage": {}
                        },
                        "0x2adc25665018aa1fe0e6bc666dac8fc2697ff9ba": {
                            "nonce": "0x00",
                            "balance": "0x047040",
                            "code": "0x",
                            "storage": {}
                        }
                    }
                }
            ]
        },
        "config": {
            "blobSchedule": {
                "Cancun": {
                    "target": "0x03",
                    "max": "0x06",
                    "baseFeeUpdateFraction": "0x32f0ed"
                },
                "Prague": {
                    "target": "0x06",
                    "max": "0x09",
                    "baseFeeUpdateFraction": "0x4c6964"
                },
                "Osaka": {
                    "target": "0x06",
                    "max": "0x09",
                    "baseFeeUpdateFraction": "0x4c6964"
                }
            },
            "chainid": "0x01"
        },
        "_info": {
            "hash": "0x71ecacdb8dcec36d825508c9ae1f8689b5323b8abfb79565749d390247f40705",
            "comment": "`execution-spec-tests` generated test",
            "filling-transition-tool": "ethereum-spec-evm-resolver 0.0.5",
            "description": "Test P256Verify precompile using different call types.",
            "url": "https://github.com/ethereum/execution-spec-tests/blob/fusaka-devnet-5@v1.1.0/tests/osaka/eip7951_p256verify_precompiles/test_p256verify.py#L179",
            "fixture-format": "state_test",
            "reference-spec": "https://github.com/ethereum/EIPs/blob/master/EIPS/eip-7951.md",
            "reference-spec-version": "06aadd458ee04ede80498db55927b052eb5bef38",
            "eels-resolution": {
                "git-url": "https://github.com/marioevz/execution-specs.git",
                "branch": "forks/bpo1",
                "commit": "3387e5f4aedfe99becfdc39b444d6371e25e0924"
            }
        }
    }
}