{
    "tests/osaka/eip7951_p256verify_precompiles/test_p256verify.py::test_gas[fork_Osaka-state_test--3450_gas]": {
        "env": {
            "currentCoinbase": "0x2adc25665018aa1fe0e6bc666dac8fc2697ff9ba",
            "currentGasLimit": "0x055d4a80",
            "currentNumber": "0x01",
            "currentTimestamp": "0x03e8",
            "currentRandom": "0x0000000000000000000000000000000000000000000000000000000000000000",
            "currentDifficulty": "0x00",
            "currentBaseFee": "0x07",
            "currentExcessBlobGas": "0x00"
        },
        "pre": {
            "0x4a63414c6be3268430d84079bf5d71eec2e051fd": {
                "nonce": "0x01",
                "balance": "0x00",
                "code": "0x366000600037600060003660006000610100610d7af13d600155600055",
                "storage": {}
            },
            "0x5a82bba94ea3f2f3b51fcf071371049d78688b6b": {
                "nonce": "0x00",
                "balance": "0x3635c9adc5dea00000",
                "code": "0x",
                "storage": {}
            }
        },
        "transaction": {
            "nonce": "0x00",
            "gasPrice": "0x0a",
            "gasLimit": [
                "0x020c6f"
            ],
            "to": "0x4a63414c6be3268430d84079bf5d71eec2e051fd",
            "value": [
                "0x00"
            ],
            "data": [
                "0xbb5a52f42f9c9261ed4361f59422a1e30036e7c32b270c8807a419feca6050232ba3a8be6b94d5ec80a6d9d1190a436effe50d85a1eee859b8cc6af9bd5c2e184cd60b855d442f5b3c7b11eb6c4e0ae7525fe710fab9aa7c77a67f79e6fadd762927b10512bae3eddcfe467828128bad2903269919f7086069c8c4df6c732838c7787964eaac00e5921fb1498a60f4606766b3d9685001558d1a974e7341513e"
            ],
            "sender": "0x5a82bba94ea3f2f3b51fcf071371049d78688b6b",
            "secretKey": "0xff33967c11ed4757e293aa774a63414c6be3268430d84079bf5d71eec2e051fd"
        },
        "post": {
            "Osaka": [
                {
                    "hash": "0x20c2e2f6344266a7c33bd2eb712461685be03d1f78505044c129a4ee9cbc2a92",
                    "logs": "0x1dcc4de8dec75d7aab85b567b6ccd41ad312451b948a7413f0a142fd40d49347",
                    "txbytes": "0xf90101800a83020c6f944a63414c6be3268430d84079bf5d71eec2e051fd80b8a0bb5a52f42f9c9261ed4361f59422a1e30036e7c32b270c8807a419feca6050232ba3a8be6b94d5ec80a6d9d1190a436effe50d85a1eee859b8cc6af9bd5c2e184cd60b855d442f5b3c7b11eb6c4e0ae7525fe710fab9aa7c77a67f79e6fadd762927b10512bae3eddcfe467828128bad2903269919f7086069c8c4df6c732838c7787964eaac00e5921fb1498a60f4606766b3d9685001558d1a974e7341513e26a0e63863ed76d75fedd5b899f3fb11a173cb16f170706aeab74f5653e1a1c4f709a04c92a9317e048a367a670e116a41a4f2cf753d48a0e6ae2a7e6ea25a35bc1c3f",
                    "indexes": {
                        "data": 0,
                        "gas": 0,
                        "value": 0
                    },
                    "state": {
                        "0x4a63414c6be3268430d84079bf5d71eec2e051fd": {
                            "nonce": "0x01",
                            "balance": "0x00",
                            "code": "0x366000600037600060003660006000610100610d7af13d600155600055",
                            "storage": {}
                        },
                        "0x5a82bba94ea3f2f3b51fcf071371049d78688b6b": {
                            "nonce": "0x01",
                            "balance": "0x3635c9adc5de9b2f62",
                            "code": "0x",
                            "storage": {}
                        },
                        "0x2adc25665018aa1fe0e6bc666dac8fc2697ff9ba": {
                            "nonce": "0x00",
                            "balance": "0x0171c9",
                            "code": "0x",
                            "storage": {}
                        }
                    }
                }
            ]
        },
        "config": {
            "blobSchedule": {
                "Cancun": {
                    "target": "0x03",
                    "max": "0x06",
                    "baseFeeUpdateFraction": "0x32f0ed"
                },
                "Prague": {
                    "target": "0x06",
                    "max": "0x09",
                    "baseFeeUpdateFraction": "0x4c6964"
                },
                "Osaka": {
                    "target": "0x06",
                    "max": "0x09",
                    "baseFeeUpdateFraction": "0x4c6964"
                }
            },
            "chainid": "0x01"
        },
        "_info": {
            "hash": "0xb7e1e08ebe5774caf62cbc9fb90eed8360556b909668a0362af2e7f8dd5f3a0e",
            "comment": "`execution-spec-tests` generated test",
            "filling-transition-tool": "ethereum-spec-evm-resolver 0.0.5",
            "description": "Test P256Verify precompile gas requirements.",
            "url": "https://github.com/ethereum/execution-spec-tests/blob/fusaka-devnet-5@v1.1.0/tests/osaka/eip7951_p256verify_precompiles/test_p256verify.py#L138",
            "fixture-format": "state_test",
            "reference-spec": "https://github.com/ethereum/EIPs/blob/master/EIPS/eip-7951.md",
            "reference-spec-version": "06aadd458ee04ede80498db55927b052eb5bef38",
            "eels-resolution": {
                "git-url": "https://github.com/marioevz/execution-specs.git",
                "branch": "forks/bpo1",
                "commit": "3387e5f4aedfe99becfdc39b444d6371e25e0924"
            }
        }
    },
    "tests/osaka/eip7951_p256verify_precompiles/test_p256verify.py::test_gas[fork_Osaka-state_test--extra_gas]": {
        "env": {
            "currentCoinbase": "0x2adc25665018aa1fe0e6bc666dac8fc2697ff9ba",
            "currentGasLimit": "0x055d4a80",
            "currentNumber": "0x01",
            "currentTimestamp": "0x03e8",
            "currentRandom": "0x0000000000000000000000000000000000000000000000000000000000000000",
            "currentDifficulty": "0x00",
            "currentBaseFee": "0x07",
            "currentExcessBlobGas": "0x00"
        },
        "pre": {
            "0x4bd019cbf4bd2c31439d42254e025d2ac8477357": {
                "nonce": "0x01",
                "balance": "0x00",
                "code": "0x366000600037600060003660006000610100611af5f13d6001556000553d600060003e3d600020600255",
                "storage": {}
            },
            "0xc744506a648cf2dea4a90dec2383fa2e27986437": {
                "nonce": "0x00",
                "balance": "0x3635c9adc5dea00000",
                "code": "0x",
                "storage": {}
            }
        },
        "transaction": {
            "nonce": "0x00",
            "gasPrice": "0x0a",
            "gasLimit": [
                "0x020c6f"
            ],
            "to": "0x4bd019cbf4bd2c31439d42254e025d2ac8477357",
            "value": [
                "0x00"
            ],
            "data": [
                "0xbb5a52f42f9c9261ed4361f59422a1e30036e7c32b270c8807a419feca6050232ba3a8be6b94d5ec80a6d9d1190a436effe50d85a1eee859b8cc6af9bd5c2e184cd60b855d442f5b3c7b11eb6c4e0ae7525fe710fab9aa7c77a67f79e6fadd762927b10512bae3eddcfe467828128bad2903269919f7086069c8c4df6c732838c7787964eaac00e5921fb1498a60f4606766b3d9685001558d1a974e7341513e"
            ],
            "sender": "0xc744506a648cf2dea4a90dec2383fa2e27986437",
            "secretKey": "0xa2b11ca07397fbd063499d1a4bd019cbf4bd2c31439d42254e025d2ac8477357"
        },
        "post": {
            "Osaka": [
                {
                    "hash": "0x83f8059107964f040c70e34ae13008c83ffcac031ad108c7f99b4ba00ca8e245",
                    "logs": "0x1dcc4de8dec75d7aab85b567b6ccd41ad312451b948a7413f0a142fd40d49347",
                    "txbytes": "0xf90101800a83020c6f944bd019cbf4bd2c31439d42254e025d2ac847735780b8a0bb5a52f42f9c9261ed4361f59422a1e30036e7c32b270c8807a419feca6050232ba3a8be6b94d5ec80a6d9d1190a436effe50d85a1eee859b8cc6af9bd5c2e184cd60b855d442f5b3c7b11eb6c4e0ae7525fe710fab9aa7c77a67f79e6fadd762927b10512bae3eddcfe467828128bad2903269919f7086069c8c4df6c732838c7787964eaac00e5921fb1498a60f4606766b3d9685001558d1a974e7341513e25a09ba75f4a309cd47ebb5eee5307880230b8b78b342a313c13ed029eebc95aebf4a04f785af84a2b234482daec354dcab054b8a255f8aeaa39c458cf960cfdd253f5",
                    "indexes": {
                        "data": 0,
                        "gas": 0,
                        "value": 0
                    },
                    "state": {
                        "0x4bd019cbf4bd2c31439d42254e025d2ac8477357": {
                            "nonce": "0x01",
                            "balance": "0x00",
                            "code": "0x366000600037600060003660006000610100611af5f13d6001556000553d600060003e3d600020600255",
                            "storage": {
                                "0x01": "0x20",
                                "0x00": "0x01",
                                "0x02": "0xb10e2d527612073b26eecdfd717e6a320cf44b4afac2b0732d9fcbe2b7fa0cf6"
                            }
                        },
                        "0xc744506a648cf2dea4a90dec2383fa2e27986437": {
                            "nonce": "0x01",
                            "balance": "0x3635c9adc5de913462",
                            "code": "0x",
                            "storage": {}
                        },
                        "0x2adc25665018aa1fe0e6bc666dac8fc2697ff9ba": {
                            "nonce": "0x00",
                            "balance": "0x047049",
                            "code": "0x",
                            "storage": {}
                        }
                    }
                }
            ]
        },
        "config": {
            "blobSchedule": {
                "Cancun": {
                    "target": "0x03",
                    "max": "0x06",
                    "baseFeeUpdateFraction": "0x32f0ed"
                },
                "Prague": {
                    "target": "0x06",
                    "max": "0x09",
                    "baseFeeUpdateFraction": "0x4c6964"
                },
                "Osaka": {
                    "target": "0x06",
                    "max": "0x09",
                    "baseFeeUpdateFraction": "0x4c6964"
                }
            },
            "chainid": "0x01"
        },
        "_info": {
            "hash": "0x2d1e96c81eb2f8b1bdea3fe6b61fe304623969d57cd2f9bede482f0a87bb236b",
            "comment": "`execution-spec-tests` generated test",
            "filling-transition-tool": "ethereum-spec-evm-resolver 0.0.5",
            "description": "Test P256Verify precompile gas requirements.",
            "url": "https://github.com/ethereum/execution-spec-tests/blob/fusaka-devnet-5@v1.1.0/tests/osaka/eip7951_p256verify_precompiles/test_p256verify.py#L138",
            "fixture-format": "state_test",
            "reference-spec": "https://github.com/ethereum/EIPs/blob/master/EIPS/eip-7951.md",
            "reference-spec-version": "06aadd458ee04ede80498db55927b052eb5bef38",
            "eels-resolution": {
                "git-url": "https://github.com/marioevz/execution-specs.git",
                "branch": "forks/bpo1",
                "commit": "3387e5f4aedfe99becfdc39b444d6371e25e0924"
            }
        }
    },
    "tests/osaka/eip7951_p256verify_precompiles/test_p256verify.py::test_gas[fork_Osaka-state_test--insufficient_gas]": {
        "env": {
            "currentCoinbase": "0x2adc25665018aa1fe0e6bc666dac8fc2697ff9ba",
            "currentGasLimit": "0x055d4a80",
            "currentNumber": "0x01",
            "currentTimestamp": "0x03e8",
            "currentRandom": "0x0000000000000000000000000000000000000000000000000000000000000000",
            "currentDifficulty": "0x00",
            "currentBaseFee": "0x07",
            "currentExcessBlobGas": "0x00"
        },
        "pre": {
            "0x7dea7c7fb8195ac3193201d67c9d0966eb4d4981": {
                "nonce": "0x01",
                "balance": "0x00",
                "code": "0x366000600037600060003660006000610100611af3f13d600155600055",
                "storage": {}
            },
            "0xab8f4ff53d58ef11d43ab1627ed0594159e30b88": {
                "nonce": "0x00",
                "balance": "0x3635c9adc5dea00000",
                "code": "0x",
                "storage": {}
            }
        },
        "transaction": {
            "nonce": "0x00",
            "gasPrice": "0x0a",
            "gasLimit": [
                "0x020c6f"
            ],
            "to": "0x7dea7c7fb8195ac3193201d67c9d0966eb4d4981",
            "value": [
                "0x00"
            ],
            "data": [
                "0xbb5a52f42f9c9261ed4361f59422a1e30036e7c32b270c8807a419feca6050232ba3a8be6b94d5ec80a6d9d1190a436effe50d85a1eee859b8cc6af9bd5c2e184cd60b855d442f5b3c7b11eb6c4e0ae7525fe710fab9aa7c77a67f79e6fadd762927b10512bae3eddcfe467828128bad2903269919f7086069c8c4df6c732838c7787964eaac00e5921fb1498a60f4606766b3d9685001558d1a974e7341513e"
            ],
            "sender": "0xab8f4ff53d58ef11d43ab1627ed0594159e30b88",
            "secretKey": "0x4377f99efe4151c7d9d8b9687dea7c7fb8195ac3193201d67c9d0966eb4d4981"
        },
        "post": {
            "Osaka": [
                {
                    "hash": "0xe96a6e41d3b558ca30d8c48e092f19ea95f6ef5c3478c6cb8445f5905e71e44f",
                    "logs": "0x1dcc4de8dec75d7aab85b567b6ccd41ad312451b948a7413f0a142fd40d49347",
                    "txbytes": "0xf90101800a83020c6f947dea7c7fb8195ac3193201d67c9d0966eb4d498180b8a0bb5a52f42f9c9261ed4361f59422a1e30036e7c32b270c8807a419feca6050232ba3a8be6b94d5ec80a6d9d1190a436effe50d85a1eee859b8cc6af9bd5c2e184cd60b855d442f5b3c7b11eb6c4e0ae7525fe710fab9aa7c77a67f79e6fadd762927b10512bae3eddcfe467828128bad2903269919f7086069c8c4df6c732838c7787964eaac00e5921fb1498a60f4606766b3d9685001558d1a974e7341513e26a01243af237e715481cd229aabb3577c9dbdc8230f1ff4e5cf445f6ef237264b43a0474b47b8c709b86ecc31d2fcd5caab2fa057f5102b3e69d277863380518d31ed",
                    "indexes": {
                        "data": 0,
                        "gas": 0,
                        "value": 0
                    },
                    "state": {
                        "0x7dea7c7fb8195ac3193201d67c9d0966eb4d4981": {
                            "nonce": "0x01",
                            "balance": "0x00",
                            "code": "0x366000600037600060003660006000610100611af3f13d600155600055",
                            "storage": {}
                        },
                        "0xab8f4ff53d58ef11d43ab1627ed0594159e30b88": {
                            "nonce": "0x01",
                            "balance": "0x3635c9adc5de9aa8a8",
                            "code": "0x",
                            "storage": {}
                        },
                        "0x2adc25665018aa1fe0e6bc666dac8fc2697ff9ba": {
                            "nonce": "0x00",
                            "balance": "0x019a34",
                            "code": "0x",
                            "storage": {}
                        }
                    }
                }
            ]
        },
        "config": {
            "blobSchedule": {
                "Cancun": {
                    "target": "0x03",
                    "max": "0x06",
                    "baseFeeUpdateFraction": "0x32f0ed"
                },
                "Prague": {
                    "target": "0x06",
                    "max": "0x09",
                    "baseFeeUpdateFraction": "0x4c6964"
                },
                "Osaka": {
                    "target": "0x06",
                    "max": "0x09",
                    "baseFeeUpdateFraction": "0x4c6964"
                }
            },
            "chainid": "0x01"
        },
        "_info": {
            "hash": "0xc74fcc20b4e62cad9d2606bfbb68e9802dbb205526b7df4eb9a0294011e44c48",
            "comment": "`execution-spec-tests` generated test",
            "filling-transition-tool": "ethereum-spec-evm-resolver 0.0.5",
            "description": "Test P256Verify precompile gas requirements.",
            "url": "https://github.com/ethereum/execution-spec-tests/blob/fusaka-devnet-5@v1.1.0/tests/osaka/eip7951_p256verify_precompiles/test_p256verify.py#L138",
            "fixture-format": "state_test",
            "reference-spec": "https://github.com/ethereum/EIPs/blob/master/EIPS/eip-7951.md",
            "reference-spec-version": "06aadd458ee04ede80498db55927b052eb5bef38",
            "eels-resolution": {
                "git-url": "https://github.com/marioevz/execution-specs.git",
                "branch": "forks/bpo1",
                "commit": "3387e5f4aedfe99becfdc39b444d6371e25e0924"
            }
        }
    },
    "tests/osaka/eip7951_p256verify_precompiles/test_p256verify.py::test_gas[fork_Osaka-state_test--zero_gas]": {
        "env": {
            "currentCoinbase": "0x2adc25665018aa1fe0e6bc666dac8fc2697ff9ba",
            "currentGasLimit": "0x055d4a80",
            "currentNumber": "0x01",
            "currentTimestamp": "0x03e8",
            "currentRandom": "0x0000000000000000000000000000000000000000000000000000000000000000",
            "currentDifficulty": "0x00",
            "currentBaseFee": "0x07",
            "currentExcessBlobGas": "0x00"
        },
        "pre": {
            "0xf1bbdeca737bdcb7ad969692d4d228ec4bd849f4": {
                "nonce": "0x01",
                "balance": "0x00",
                "code": "0x3660006000376000600036600060006101006000f13d600155600055",
                "storage": {}
            },
            "0x35e89f37fd7c681c08ff28be511c688e72a135a9": {
                "nonce": "0x00",
                "balance": "0x3635c9adc5dea00000",
                "code": "0x",
                "storage": {}
            }
        },
        "transaction": {
            "nonce": "0x00",
            "gasPrice": "0x0a",
            "gasLimit": [
                "0x020c6f"
            ],
            "to": "0xf1bbdeca737bdcb7ad969692d4d228ec4bd849f4",
            "value": [
                "0x00"
            ],
            "data": [
                "0xbb5a52f42f9c9261ed4361f59422a1e30036e7c32b270c8807a419feca6050232ba3a8be6b94d5ec80a6d9d1190a436effe50d85a1eee859b8cc6af9bd5c2e184cd60b855d442f5b3c7b11eb6c4e0ae7525fe710fab9aa7c77a67f79e6fadd762927b10512bae3eddcfe467828128bad2903269919f7086069c8c4df6c732838c7787964eaac00e5921fb1498a60f4606766b3d9685001558d1a974e7341513e"
            ],
            "sender": "0x35e89f37fd7c681c08ff28be511c688e72a135a9",
            "secretKey": "0xf39f3fe79f8b2702437bff29f1bbdeca737bdcb7ad969692d4d228ec4bd849f4"
        },
        "post": {
            "Osaka": [
                {
                    "hash": "0x9f689156f8b45969dca4cb2548aa86fb2a0ac6f15e78b9585d6f5800e14e773b",
                    "logs": "0x1dcc4de8dec75d7aab85b567b6ccd41ad312451b948a7413f0a142fd40d49347",
                    "txbytes": "0xf90101800a83020c6f94f1bbdeca737bdcb7ad969692d4d228ec4bd849f480b8a0bb5a52f42f9c9261ed4361f59422a1e30036e7c32b270c8807a419feca6050232ba3a8be6b94d5ec80a6d9d1190a436effe50d85a1eee859b8cc6af9bd5c2e184cd60b855d442f5b3c7b11eb6c4e0ae7525fe710fab9aa7c77a67f79e6fadd762927b10512bae3eddcfe467828128bad2903269919f7086069c8c4df6c732838c7787964eaac00e5921fb1498a60f4606766b3d9685001558d1a974e7341513e26a099092eaf2ba583a3bc8156af937df653a352b547d2d636972fc53f7588553d13a03c0e548d1cd3b0a6f1ea2ab78eacf708a90ac4d731770a48ce9774136d11eb9e",
                    "indexes": {
                        "data": 0,
                        "gas": 0,
                        "value": 0
                    },
                    "state": {
                        "0xf1bbdeca737bdcb7ad969692d4d228ec4bd849f4": {
                            "nonce": "0x01",
                            "balance": "0x00",
                            "code": "0x3660006000376000600036600060006101006000f13d600155600055",
                            "storage": {}
                        },
                        "0x35e89f37fd7c681c08ff28be511c688e72a135a9": {
                            "nonce": "0x01",
                            "balance": "0x3635c9adc5de9bb626",
                            "code": "0x",
                            "storage": {}
                        },
                        "0x2adc25665018aa1fe0e6bc666dac8fc2697ff9ba": {
                            "nonce": "0x00",
                            "balance": "0x01495b",
                            "code": "0x",
                            "storage": {}
                        }
                    }
                }
            ]
        },
        "config": {
            "blobSchedule": {
                "Cancun": {
                    "target": "0x03",
                    "max": "0x06",
                    "baseFeeUpdateFraction": "0x32f0ed"
                },
                "Prague": {
                    "target": "0x06",
                    "max": "0x09",
                    "baseFeeUpdateFraction": "0x4c6964"
                },
                "Osaka": {
                    "target": "0x06",
                    "max": "0x09",
                    "baseFeeUpdateFraction": "0x4c6964"
                }
            },
            "chainid": "0x01"
        },
        "_info": {
            "hash": "0xf3af068648678cb191132b561f856f0dc84b29332706f8fe7c9221f746d66eb7",
            "comment": "`execution-spec-tests` generated test",
            "filling-transition-tool": "ethereum-spec-evm-resolver 0.0.5",
            "description": "Test P256Verify precompile gas requirements.",
            "url": "https://github.com/ethereum/execution-spec-tests/blob/fusaka-devnet-5@v1.1.0/tests/osaka/eip7951_p256verify_precompiles/test_p256verify.py#L138",
            "fixture-format": "state_test",
            "reference-spec": "https://github.com/ethereum/EIPs/blob/master/EIPS/eip-7951.md",
            "reference-spec-version": "06aadd458ee04ede80498db55927b052eb5bef38",
            "eels-resolution": {
                "git-url": "https://github.com/marioevz/execution-specs.git",
                "branch": "forks/bpo1",
                "commit": "3387e5f4aedfe99becfdc39b444d6371e25e0924"
            }
        }
    }
}