{
    "tests/osaka/eip7951_p256verify_precompiles/test_p256verify.py::test_modular_comparison[fork_Osaka-state_test--modular_comparison_x_coordinate_exceeds_n]": {
        "env": {
            "currentCoinbase": "0x2adc25665018aa1fe0e6bc666dac8fc2697ff9ba",
            "currentGasLimit": "0x055d4a80",
            "currentNumber": "0x01",
            "currentTimestamp": "0x03e8",
            "currentRandom": "0x0000000000000000000000000000000000000000000000000000000000000000",
            "currentDifficulty": "0x00",
            "currentBaseFee": "0x07",
            "currentExcessBlobGas": "0x00"
        },
        "pre": {
            "0xb153e522545de95423d9668822e0b19e2247b166": {
                "nonce": "0x01",
                "balance": "0x00",
                "code": "0x366000600037600060003660006000610100611af4f13d6001556000553d600060003e3d600020600255",
                "storage": {}
            },
            "0x31447c8d95573501d333ad1ea41dc12bb737fe2f": {
                "nonce": "0x00",
                "balance": "0x3635c9adc5dea00000",
                "code": "0x",
                "storage": {}
            }
        },
        "transaction": {
            "nonce": "0x00",
            "gasPrice": "0x0a",
            "gasLimit": [
                "0x020a17"
            ],
            "to": "0xb153e522545de95423d9668822e0b19e2247b166",
            "value": [
                "0x00"
            ],
            "data": [
                "0xbb5a52f42f9c9261ed4361f59422a1e30036e7c32b270c8807a419feca605023000000000000000000000000000000004319055358e8617b0c46353d039cdaabffffffff00000000ffffffffffffffffbce6faada7179e84f3b9cac2fc63254e0ad99500288d466940031d72a9f5445a4d43784640855bf0a69874d2de5fe103c5011e6ef2c42dcd50d5d3d29f99ae6eba2c80c9244f4c5422f0979ff0c3ba5e"
            ],
            "sender": "0x31447c8d95573501d333ad1ea41dc12bb737fe2f",
            "secretKey": "0xf5388a68f97b569e722ffef1b153e522545de95423d9668822e0b19e2247b166"
        },
        "post": {
            "Osaka": [
                {
                    "hash": "0x6c185e109ca4dff44ce99a09638b93d4f4317883205ec8412c85eac23a124b62",
                    "logs": "0x1dcc4de8dec75d7aab85b567b6ccd41ad312451b948a7413f0a142fd40d49347",
                    "txbytes": "0xf90101800a83020a1794b153e522545de95423d9668822e0b19e2247b16680b8a0bb5a52f42f9c9261ed4361f59422a1e30036e7c32b270c8807a419feca605023000000000000000000000000000000004319055358e8617b0c46353d039cdaabffffffff00000000ffffffffffffffffbce6faada7179e84f3b9cac2fc63254e0ad99500288d466940031d72a9f5445a4d43784640855bf0a69874d2de5fe103c5011e6ef2c42dcd50d5d3d29f99ae6eba2c80c9244f4c5422f0979ff0c3ba5e26a0568701d32f2e7821de1890ce1305c9a7643d49a02396519bed81e88607941b6fa0088277c7b7361b2808e016079f3e00818bd8039e287f82ba3436f288f7f48289",
                    "indexes": {
                        "data": 0,
                        "gas": 0,
                        "value": 0
                    },
                    "state": {
                        "0xb153e522545de95423d9668822e0b19e2247b166": {
                            "nonce": "0x01",
                            "balance": "0x00",
                            "code": "0x366000600037600060003660006000610100611af4f13d6001556000553d600060003e3d600020600255",
                            "storage": {
                                "0x01": "0x20",
                                "0x00": "0x01",
                                "0x02": "0xb10e2d527612073b26eecdfd717e6a320cf44b4afac2b0732d9fcbe2b7fa0cf6"
                            }
                        },
                        "0x31447c8d95573501d333ad1ea41dc12bb737fe2f": {
                            "nonce": "0x01",
                            "balance": "0x3635c9adc5de913dc2",
                            "code": "0x",
                            "storage": {}
                        },
                        "0x2adc25665018aa1fe0e6bc666dac8fc2697ff9ba": {
                            "nonce": "0x00",
                            "balance": "0x046d79",
                            "code": "0x",
                            "storage": {}
                        }
                    }
                }
            ]
        },
        "config": {
            "blobSchedule": {
                "Cancun": {
                    "target": "0x03",
                    "max": "0x06",
                    "baseFeeUpdateFraction": "0x32f0ed"
                },
                "Prague": {
                    "target": "0x06",
                    "max": "0x09",
                    "baseFeeUpdateFraction": "0x4c6964"
                },
                "Osaka": {
                    "target": "0x06",
                    "max": "0x09",
                    "baseFeeUpdateFraction": "0x4c6964"
                }
            },
            "chainid": "0x01"
        },
        "_info": {
            "hash": "0xf859e3c03d19df835c7e1ab2987919793fbe6bf233eec3d6cecab16cb23945c9",
            "comment": "`execution-spec-tests` generated test",
            "filling-transition-tool": "ethereum-spec-evm-resolver 0.0.5",
            "description": "Test the modular comparison condition for secp256r1 precompile.\n\n    This tests that when the x-coordinate of R' exceeds the curve order N,\n    the verification should use modular arithmetic:\n    r' \u2261 r (mod N) instead of direct equality r' == r.",
            "url": "https://github.com/ethereum/execution-spec-tests/blob/fusaka-devnet-5@v1.1.0/tests/osaka/eip7951_p256verify_precompiles/test_p256verify.py#L233",
            "fixture-format": "state_test",
            "reference-spec": "https://github.com/ethereum/EIPs/blob/master/EIPS/eip-7951.md",
            "reference-spec-version": "06aadd458ee04ede80498db55927b052eb5bef38",
            "eels-resolution": {
                "git-url": "https://github.com/marioevz/execution-specs.git",
                "branch": "forks/bpo1",
                "commit": "3387e5f4aedfe99becfdc39b444d6371e25e0924"
            }
        }
    },
    "tests/osaka/eip7951_p256verify_precompiles/test_p256verify.py::test_modular_comparison[fork_Osaka-state_test--r_equals_n_plus_one]": {
        "env": {
            "currentCoinbase": "0x2adc25665018aa1fe0e6bc666dac8fc2697ff9ba",
            "currentGasLimit": "0x055d4a80",
            "currentNumber": "0x01",
            "currentTimestamp": "0x03e8",
            "currentRandom": "0x0000000000000000000000000000000000000000000000000000000000000000",
            "currentDifficulty": "0x00",
            "currentBaseFee": "0x07",
            "currentExcessBlobGas": "0x00"
        },
        "pre": {
            "0x88d01f771b0ddd289f79e1e3a0a2fb306b0ec7a1": {
                "nonce": "0x01",
                "balance": "0x00",
                "code": "0x366000600037600060003660006000610100611af4f13d6001556000553d600060003e3d600020600255",
                "storage": {}
            },
            "0x1418f0fc6b694b3536050685af2f80210d852388": {
                "nonce": "0x00",
                "balance": "0x3635c9adc5dea00000",
                "code": "0x",
                "storage": {}
            }
        },
        "transaction": {
            "nonce": "0x00",
            "gasPrice": "0x0a",
            "gasLimit": [
                "0x020bf7"
            ],
            "to": "0x88d01f771b0ddd289f79e1e3a0a2fb306b0ec7a1",
            "value": [
                "0x00"
            ],
            "data": [
                "0xbb5a52f42f9c9261ed4361f59422a1e30036e7c32b270c8807a419feca605023ffffffff00000000ffffffffffffffffbce6faada7179e84f3b9cac2fc6325524cd60b855d442f5b3c7b11eb6c4e0ae7525fe710fab9aa7c77a67f79e6fadd762927b10512bae3eddcfe467828128bad2903269919f7086069c8c4df6c732838c7787964eaac00e5921fb1498a60f4606766b3d9685001558d1a974e7341513e"
            ],
            "sender": "0x1418f0fc6b694b3536050685af2f80210d852388",
            "secretKey": "0x317240b91db2c11eddc3662a88d01f771b0ddd289f79e1e3a0a2fb306b0ec7a1"
        },
        "post": {
            "Osaka": [
                {
                    "hash": "0x892354794d90f289bb6d5a49f570c96f19cc387c755d0a4e88400c6b5703dd70",
                    "logs": "0x1dcc4de8dec75d7aab85b567b6ccd41ad312451b948a7413f0a142fd40d49347",
                    "txbytes": "0xf90101800a83020bf79488d01f771b0ddd289f79e1e3a0a2fb306b0ec7a180b8a0bb5a52f42f9c9261ed4361f59422a1e30036e7c32b270c8807a419feca605023ffffffff00000000ffffffffffffffffbce6faada7179e84f3b9cac2fc6325524cd60b855d442f5b3c7b11eb6c4e0ae7525fe710fab9aa7c77a67f79e6fadd762927b10512bae3eddcfe467828128bad2903269919f7086069c8c4df6c732838c7787964eaac00e5921fb1498a60f4606766b3d9685001558d1a974e7341513e25a0e91de4132de7668294c838e3e359dfee8feb8e137950a564c3cdce70f9b7f6eaa00ab46ce000e387bfb5a7eac9c3231a00d36f583f6efe8e0c8820c1ee567b8ee9",
                    "indexes": {
                        "data": 0,
                        "gas": 0,
                        "value": 0
                    },
                    "state": {
                        "0x88d01f771b0ddd289f79e1e3a0a2fb306b0ec7a1": {
                            "nonce": "0x01",
                            "balance": "0x00",
                            "code": "0x366000600037600060003660006000610100611af4f13d6001556000553d600060003e3d600020600255",
                            "storage": {
                                "0x00": "0x01",
                                "0x02": "0xc5d2460186f7233c927e7db2dcc703c0e500b653ca82273b7bfad8045d85a470"
                            }
                        },
                        "0x1418f0fc6b694b3536050685af2f80210d852388": {
                            "nonce": "0x01",
                            "balance": "0x3635c9adc5de943ff4",
                            "code": "0x",
                            "storage": {}
                        },
                        "0x2adc25665018aa1fe0e6bc666dac8fc2697ff9ba": {
                            "nonce": "0x00",
                            "balance": "0x03866a",
                            "code": "0x",
                            "storage": {}
                        }
                    }
                }
            ]
        },
        "config": {
            "blobSchedule": {
                "Cancun": {
                    "target": "0x03",
                    "max": "0x06",
                    "baseFeeUpdateFraction": "0x32f0ed"
                },
                "Prague": {
                    "target": "0x06",
                    "max": "0x09",
                    "baseFeeUpdateFraction": "0x4c6964"
                },
                "Osaka": {
                    "target": "0x06",
                    "max": "0x09",
                    "baseFeeUpdateFraction": "0x4c6964"
                }
            },
            "chainid": "0x01"
        },
        "_info": {
            "hash": "0xe254ba267a98410c0596c64247c925a3dd53d1ea75ce3c0a01868db3fbd88b5e",
            "comment": "`execution-spec-tests` generated test",
            "filling-transition-tool": "ethereum-spec-evm-resolver 0.0.5",
            "description": "Test the modular comparison condition for secp256r1 precompile.\n\n    This tests that when the x-coordinate of R' exceeds the curve order N,\n    the verification should use modular arithmetic:\n    r' \u2261 r (mod N) instead of direct equality r' == r.",
            "url": "https://github.com/ethereum/execution-spec-tests/blob/fusaka-devnet-5@v1.1.0/tests/osaka/eip7951_p256verify_precompiles/test_p256verify.py#L233",
            "fixture-format": "state_test",
            "reference-spec": "https://github.com/ethereum/EIPs/blob/master/EIPS/eip-7951.md",
            "reference-spec-version": "06aadd458ee04ede80498db55927b052eb5bef38",
            "eels-resolution": {
                "git-url": "https://github.com/marioevz/execution-specs.git",
                "branch": "forks/bpo1",
                "commit": "3387e5f4aedfe99becfdc39b444d6371e25e0924"
            }
        }
    },
    "tests/osaka/eip7951_p256verify_precompiles/test_p256verify.py::test_modular_comparison[fork_Osaka-state_test--r_equals_n_plus_two]": {
        "env": {
            "currentCoinbase": "0x2adc25665018aa1fe0e6bc666dac8fc2697ff9ba",
            "currentGasLimit": "0x055d4a80",
            "currentNumber": "0x01",
            "currentTimestamp": "0x03e8",
            "currentRandom": "0x0000000000000000000000000000000000000000000000000000000000000000",
            "currentDifficulty": "0x00",
            "currentBaseFee": "0x07",
            "currentExcessBlobGas": "0x00"
        },
        "pre": {
            "0x77d5cc1a3983bb127f0a38a97333d7759b806e66": {
                "nonce": "0x01",
                "balance": "0x00",
                "code": "0x366000600037600060003660006000610100611af4f13d6001556000553d600060003e3d600020600255",
                "storage": {}
            },
            "0x15f6ee027c3661fd618ee41d5ba69eee13018613": {
                "nonce": "0x00",
                "balance": "0x3635c9adc5dea00000",
                "code": "0x",
                "storage": {}
            }
        },
        "transaction": {
            "nonce": "0x00",
            "gasPrice": "0x0a",
            "gasLimit": [
                "0x020bf7"
            ],
            "to": "0x77d5cc1a3983bb127f0a38a97333d7759b806e66",
            "value": [
                "0x00"
            ],
            "data": [
                "0xbb5a52f42f9c9261ed4361f59422a1e30036e7c32b270c8807a419feca605023ffffffff00000000ffffffffffffffffbce6faada7179e84f3b9cac2fc6325534cd60b855d442f5b3c7b11eb6c4e0ae7525fe710fab9aa7c77a67f79e6fadd762927b10512bae3eddcfe467828128bad2903269919f7086069c8c4df6c732838c7787964eaac00e5921fb1498a60f4606766b3d9685001558d1a974e7341513e"
            ],
            "sender": "0x15f6ee027c3661fd618ee41d5ba69eee13018613",
            "secretKey": "0x80b996b291f254506f595f4177d5cc1a3983bb127f0a38a97333d7759b806e66"
        },
        "post": {
            "Osaka": [
                {
                    "hash": "0x468b87433d8a8036f3decb2e6dcc39cf6f39e8ceec83e34a7307fb12f4bea724",
                    "logs": "0x1dcc4de8dec75d7aab85b567b6ccd41ad312451b948a7413f0a142fd40d49347",
                    "txbytes": "0xf90101800a83020bf79477d5cc1a3983bb127f0a38a97333d7759b806e6680b8a0bb5a52f42f9c9261ed4361f59422a1e30036e7c32b270c8807a419feca605023ffffffff00000000ffffffffffffffffbce6faada7179e84f3b9cac2fc6325534cd60b855d442f5b3c7b11eb6c4e0ae7525fe710fab9aa7c77a67f79e6fadd762927b10512bae3eddcfe467828128bad2903269919f7086069c8c4df6c732838c7787964eaac00e5921fb1498a60f4606766b3d9685001558d1a974e7341513e26a009d639f5f40391184cdf451171222d91be8c0a99072ed83a179f85e543e71169a043821b9c98296ee816fe35503f6b37707789266cdff14f220f6496d9cf2a8e61",
                    "indexes": {
                        "data": 0,
                        "gas": 0,
                        "value": 0
                    },
                    "state": {
                        "0x77d5cc1a3983bb127f0a38a97333d7759b806e66": {
                            "nonce": "0x01",
                            "balance": "0x00",
                            "code": "0x366000600037600060003660006000610100611af4f13d6001556000553d600060003e3d600020600255",
                            "storage": {
                                "0x00": "0x01",
                                "0x02": "0xc5d2460186f7233c927e7db2dcc703c0e500b653ca82273b7bfad8045d85a470"
                            }
                        },
                        "0x15f6ee027c3661fd618ee41d5ba69eee13018613": {
                            "nonce": "0x01",
                            "balance": "0x3635c9adc5de943ff4",
                            "code": "0x",
                            "storage": {}
                        },
                        "0x2adc25665018aa1fe0e6bc666dac8fc2697ff9ba": {
                            "nonce": "0x00",
                            "balance": "0x03866a",
                            "code": "0x",
                            "storage": {}
                        }
                    }
                }
            ]
        },
        "config": {
            "blobSchedule": {
                "Cancun": {
                    "target": "0x03",
                    "max": "0x06",
                    "baseFeeUpdateFraction": "0x32f0ed"
                },
                "Prague": {
                    "target": "0x06",
                    "max": "0x09",
                    "baseFeeUpdateFraction": "0x4c6964"
                },
                "Osaka": {
                    "target": "0x06",
                    "max": "0x09",
                    "baseFeeUpdateFraction": "0x4c6964"
                }
            },
            "chainid": "0x01"
        },
        "_info": {
            "hash": "0x1573056770f81abd61e3dcfd24c68026637b77d278e0a7f75966612f46bc1cf0",
            "comment": "`execution-spec-tests` generated test",
            "filling-transition-tool": "ethereum-spec-evm-resolver 0.0.5",
            "description": "Test the modular comparison condition for secp256r1 precompile.\n\n    This tests that when the x-coordinate of R' exceeds the curve order N,\n    the verification should use modular arithmetic:\n    r' \u2261 r (mod N) instead of direct equality r' == r.",
            "url": "https://github.com/ethereum/execution-spec-tests/blob/fusaka-devnet-5@v1.1.0/tests/osaka/eip7951_p256verify_precompiles/test_p256verify.py#L233",
            "fixture-format": "state_test",
            "reference-spec": "https://github.com/ethereum/EIPs/blob/master/EIPS/eip-7951.md",
            "reference-spec-version": "06aadd458ee04ede80498db55927b052eb5bef38",
            "eels-resolution": {
                "git-url": "https://github.com/marioevz/execution-specs.git",
                "branch": "forks/bpo1",
                "commit": "3387e5f4aedfe99becfdc39b444d6371e25e0924"
            }
        }
    }
}