{
    "tests/osaka/eip7951_p256verify_precompiles/test_p256verify.py::test_precompile_as_tx_entry_point[fork_Osaka-state_test-valid_entry_point]": {
        "env": {
            "currentCoinbase": "0x2adc25665018aa1fe0e6bc666dac8fc2697ff9ba",
            "currentGasLimit": "0x055d4a80",
            "currentNumber": "0x01",
            "currentTimestamp": "0x03e8",
            "currentRandom": "0x0000000000000000000000000000000000000000000000000000000000000000",
            "currentDifficulty": "0x00",
            "currentBaseFee": "0x07",
            "currentExcessBlobGas": "0x00"
        },
        "pre": {
            "0xfbe220004ca3917f6a7c4498a1cfe1ee29c987f0": {
                "nonce": "0x00",
                "balance": "0x3635c9adc5dea00000",
                "code": "0x",
                "storage": {}
            }
        },
        "transaction": {
            "nonce": "0x00",
            "gasPrice": "0x0a",
            "gasLimit": [
                "0x020c6f"
            ],
            "to": "0x0000000000000000000000000000000000000100",
            "value": [
                "0x00"
            ],
            "data": [
                "0xbb5a52f42f9c9261ed4361f59422a1e30036e7c32b270c8807a419feca6050232ba3a8be6b94d5ec80a6d9d1190a436effe50d85a1eee859b8cc6af9bd5c2e184cd60b855d442f5b3c7b11eb6c4e0ae7525fe710fab9aa7c77a67f79e6fadd762927b10512bae3eddcfe467828128bad2903269919f7086069c8c4df6c732838c7787964eaac00e5921fb1498a60f4606766b3d9685001558d1a974e7341513e"
            ],
            "sender": "0xfbe220004ca3917f6a7c4498a1cfe1ee29c987f0",
            "secretKey": "0x616eb5484a843b5d858eb3daf3cb7d12081298da985d04ad900055f6f544069f"
        },
        "post": {
            "Osaka": [
                {
                    "hash": "0x80fdb367ff640424469176847bced405771af3000c391bdcfec0bf9c04d22a6d",
                    "logs": "0x1dcc4de8dec75d7aab85b567b6ccd41ad312451b948a7413f0a142fd40d49347",
                    "txbytes": "0xf90101800a83020c6f94000000000000000000000000000000000000010080b8a0bb5a52f42f9c9261ed4361f59422a1e30036e7c32b270c8807a419feca6050232ba3a8be6b94d5ec80a6d9d1190a436effe50d85a1eee859b8cc6af9bd5c2e184cd60b855d442f5b3c7b11eb6c4e0ae7525fe710fab9aa7c77a67f79e6fadd762927b10512bae3eddcfe467828128bad2903269919f7086069c8c4df6c732838c7787964eaac00e5921fb1498a60f4606766b3d9685001558d1a974e7341513e26a027ff950d8ec57f3c0195f32ac84146c23515ad90f3d34be345da78bc6e76cb53a068aee73d3663224b2728d2ff47f01f6d022f28f27ad05faf332da7362323feb4",
                    "indexes": {
                        "data": 0,
                        "gas": 0,
                        "value": 0
                    },
                    "state": {
                        "0xfbe220004ca3917f6a7c4498a1cfe1ee29c987f0": {
                            "nonce": "0x01",
                            "balance": "0x3635c9adc5de9b5b18",
                            "code": "0x",
                            "storage": {}
                        },
                        "0x2adc25665018aa1fe0e6bc666dac8fc2697ff9ba": {
                            "nonce": "0x00",
                            "balance": "0x0164ac",
                            "code": "0x",
                            "storage": {}
                        }
                    }
                }
            ]
        },
        "config": {
            "blobSchedule": {
                "Cancun": {
                    "target": "0x03",
                    "max": "0x06",
                    "baseFeeUpdateFraction": "0x32f0ed"
                },
                "Prague": {
                    "target": "0x06",
                    "max": "0x09",
                    "baseFeeUpdateFraction": "0x4c6964"
                },
                "Osaka": {
                    "target": "0x06",
                    "max": "0x09",
                    "baseFeeUpdateFraction": "0x4c6964"
                }
            },
            "chainid": "0x01"
        },
        "_info": {
            "hash": "0xbf0d4a82f9ee2488b6939e122533c3c255e99dfc30681e9b816bb8d0cd7eec5a",
            "comment": "`execution-spec-tests` generated test",
            "filling-transition-tool": "ethereum-spec-evm-resolver 0.0.5",
            "description": "Test P256Verify precompile entry point.",
            "url": "https://github.com/ethereum/execution-spec-tests/blob/fusaka-devnet-5@v1.1.0/tests/osaka/eip7951_p256verify_precompiles/test_p256verify.py#L211",
            "fixture-format": "state_test",
            "reference-spec": "https://github.com/ethereum/EIPs/blob/master/EIPS/eip-7951.md",
            "reference-spec-version": "06aadd458ee04ede80498db55927b052eb5bef38",
            "eels-resolution": {
                "git-url": "https://github.com/marioevz/execution-specs.git",
                "branch": "forks/bpo1",
                "commit": "3387e5f4aedfe99becfdc39b444d6371e25e0924"
            }
        }
    }
}