{
    "tests/osaka/eip7883_modexp_gas_increase/test_modexp_thresholds.py::test_modexp_used_in_transaction_entry_points[fork_Osaka-state_test-exact_gas]": {
        "env": {
            "currentCoinbase": "0x2adc25665018aa1fe0e6bc666dac8fc2697ff9ba",
            "currentGasLimit": "0x055d4a80",
            "currentNumber": "0x01",
            "currentTimestamp": "0x03e8",
            "currentRandom": "0x0000000000000000000000000000000000000000000000000000000000000000",
            "currentDifficulty": "0x00",
            "currentBaseFee": "0x07",
            "currentExcessBlobGas": "0x00"
        },
        "pre": {
            "0x73b68b9ebc998893a301bf2040ba10741941a620": {
                "nonce": "0x01",
                "balance": "0x00",
                "code": "0x3660006000375a60006000366000600060056104b0f15a906000553d60015561007a0190036002553d600060003e3d600020600355",
                "storage": {}
            },
            "0x948a0ff900dbb78f72b0e80cb805487e8e369a77": {
                "nonce": "0x00",
                "balance": "0x3635c9adc5dea00000",
                "code": "0x",
                "storage": {}
            },
            "0x40a8811f793ad1e0dac16242b28738979c90159d": {
                "nonce": "0x00",
                "balance": "0x3635c9adc5dea00000",
                "code": "0x",
                "storage": {}
            }
        },
        "transaction": {
            "nonce": "0x00",
            "gasPrice": "0x0a",
            "gasLimit": [
                "0x023c88"
            ],
            "to": "0x0000000000000000000000000000000000000005",
            "value": [
                "0x00"
            ],
            "data": [
                "0x000000000000000000000000000000000000000000000000000000000000002800000000000000000000000000000000000000000000000000000000000000040000000000000000000000000000000000000000000000000000000000000028e8e77626586f73b955364c7b4bbf0bb7f7685ebd40e852b164633a4acbd3244c000102030405060701fffffff01681d2220bfea4bb888a5543db8c0916274ddb1ea93b144c042c01d8164c950001020304050607"
            ],
            "sender": "0x40a8811f793ad1e0dac16242b28738979c90159d",
            "secretKey": "0x540d676be31097ba78da8ced73b68b9ebc998893a301bf2040ba10741941a621"
        },
        "post": {
            "Osaka": [
                {
                    "hash": "0x0b807c8e77e6e081aa69e9185aee341d8831ba85c701f03eae1dfd985cb74bde",
                    "logs": "0x1dcc4de8dec75d7aab85b567b6ccd41ad312451b948a7413f0a142fd40d49347",
                    "txbytes": "0xf90115800a83023c8894000000000000000000000000000000000000000580b8b4000000000000000000000000000000000000000000000000000000000000002800000000000000000000000000000000000000000000000000000000000000040000000000000000000000000000000000000000000000000000000000000028e8e77626586f73b955364c7b4bbf0bb7f7685ebd40e852b164633a4acbd3244c000102030405060701fffffff01681d2220bfea4bb888a5543db8c0916274ddb1ea93b144c042c01d8164c95000102030405060726a0244c59e47f517306b3d050955eeed9889decb99769402df33957873fe5709a72a04b59062d7318d3ae3cea51552ce447a73528a4c557f6268757e3a7cb62061578",
                    "indexes": {
                        "data": 0,
                        "gas": 0,
                        "value": 0
                    },
                    "state": {
                        "0x73b68b9ebc998893a301bf2040ba10741941a620": {
                            "nonce": "0x01",
                            "balance": "0x00",
                            "code": "0x3660006000375a60006000366000600060056104b0f15a906000553d60015561007a0190036002553d600060003e3d600020600355",
                            "storage": {}
                        },
                        "0x948a0ff900dbb78f72b0e80cb805487e8e369a77": {
                            "nonce": "0x00",
                            "balance": "0x3635c9adc5dea00000",
                            "code": "0x",
                            "storage": {}
                        },
                        "0x40a8811f793ad1e0dac16242b28738979c90159d": {
                            "nonce": "0x01",
                            "balance": "0x3635c9adc5de9c21c4",
                            "code": "0x",
                            "storage": {}
                        },
                        "0x2adc25665018aa1fe0e6bc666dac8fc2697ff9ba": {
                            "nonce": "0x00",
                            "balance": "0x012912",
                            "code": "0x",
                            "storage": {}
                        }
                    }
                }
            ]
        },
        "config": {
            "blobSchedule": {
                "Cancun": {
                    "target": "0x03",
                    "max": "0x06",
                    "baseFeeUpdateFraction": "0x32f0ed"
                },
                "Prague": {
                    "target": "0x06",
                    "max": "0x09",
                    "baseFeeUpdateFraction": "0x4c6964"
                },
                "Osaka": {
                    "target": "0x06",
                    "max": "0x09",
                    "baseFeeUpdateFraction": "0x4c6964"
                }
            },
            "chainid": "0x01"
        },
        "_info": {
            "hash": "0x55a4c747e06197fa3a62b83f37cac95fb66effb026c4bfb109f398e32b8bd8e1",
            "comment": "`execution-spec-tests` generated test",
            "filling-transition-tool": "ethereum-spec-evm-resolver 0.0.5",
            "description": "Test ModExp using in transaction entry points with different precompile gas modifiers.",
            "url": "https://github.com/ethereum/execution-spec-tests/blob/fusaka-devnet-5@v1.1.0/tests/osaka/eip7883_modexp_gas_increase/test_modexp_thresholds.py#L237",
            "fixture-format": "state_test",
            "reference-spec": "https://github.com/ethereum/EIPs/blob/master/EIPS/eip-7883.md",
            "reference-spec-version": "13aa65810336d4f243d4563a828d5afe36035d23",
            "eels-resolution": {
                "git-url": "https://github.com/marioevz/execution-specs.git",
                "branch": "forks/bpo1",
                "commit": "3387e5f4aedfe99becfdc39b444d6371e25e0924"
            }
        }
    },
    "tests/osaka/eip7883_modexp_gas_increase/test_modexp_thresholds.py::test_modexp_used_in_transaction_entry_points[fork_Osaka-state_test-extra_gas]": {
        "env": {
            "currentCoinbase": "0x2adc25665018aa1fe0e6bc666dac8fc2697ff9ba",
            "currentGasLimit": "0x055d4a80",
            "currentNumber": "0x01",
            "currentTimestamp": "0x03e8",
            "currentRandom": "0x0000000000000000000000000000000000000000000000000000000000000000",
            "currentDifficulty": "0x00",
            "currentBaseFee": "0x07",
            "currentExcessBlobGas": "0x00"
        },
        "pre": {
            "0xd66efb348a2ec74c22b1e8849ed64de90197bbe5": {
                "nonce": "0x01",
                "balance": "0x00",
                "code": "0x3660006000375a60006000366000600060056104b1f15a906000553d60015561007a0190036002553d600060003e3d600020600355",
                "storage": {}
            },
            "0xd48983842de9e7896cc154a1b51259e3b0c250e3": {
                "nonce": "0x00",
                "balance": "0x3635c9adc5dea00000",
                "code": "0x",
                "storage": {}
            },
            "0x2bf5c92b2d68cfe3748f3f0e80fc75ddc8d24279": {
                "nonce": "0x00",
                "balance": "0x3635c9adc5dea00000",
                "code": "0x",
                "storage": {}
            }
        },
        "transaction": {
            "nonce": "0x00",
            "gasPrice": "0x0a",
            "gasLimit": [
                "0x023c88"
            ],
            "to": "0x0000000000000000000000000000000000000005",
            "value": [
                "0x00"
            ],
            "data": [
                "0x000000000000000000000000000000000000000000000000000000000000002800000000000000000000000000000000000000000000000000000000000000040000000000000000000000000000000000000000000000000000000000000028e8e77626586f73b955364c7b4bbf0bb7f7685ebd40e852b164633a4acbd3244c000102030405060701fffffff01681d2220bfea4bb888a5543db8c0916274ddb1ea93b144c042c01d8164c950001020304050607"
            ],
            "sender": "0x2bf5c92b2d68cfe3748f3f0e80fc75ddc8d24279",
            "secretKey": "0x11cf7bb79324fc9aed0bdad1d66efb348a2ec74c22b1e8849ed64de90197bbe6"
        },
        "post": {
            "Osaka": [
                {
                    "hash": "0xcc6d5739bdc3ec0cc7874752e979d2f2ad2ebc1176878a6d28dbefecc4012338",
                    "logs": "0x1dcc4de8dec75d7aab85b567b6ccd41ad312451b948a7413f0a142fd40d49347",
                    "txbytes": "0xf90115800a83023c8894000000000000000000000000000000000000000580b8b4000000000000000000000000000000000000000000000000000000000000002800000000000000000000000000000000000000000000000000000000000000040000000000000000000000000000000000000000000000000000000000000028e8e77626586f73b955364c7b4bbf0bb7f7685ebd40e852b164633a4acbd3244c000102030405060701fffffff01681d2220bfea4bb888a5543db8c0916274ddb1ea93b144c042c01d8164c95000102030405060725a0ceb36b3259b5beebf500e50f5abd5d669942ab94da443667f86d035f59b328e2a04278fb681c6a2735a49a45a86568eb8f07f445319eec238906c99e70d87d79ca",
                    "indexes": {
                        "data": 0,
                        "gas": 0,
                        "value": 0
                    },
                    "state": {
                        "0xd66efb348a2ec74c22b1e8849ed64de90197bbe5": {
                            "nonce": "0x01",
                            "balance": "0x00",
                            "code": "0x3660006000375a60006000366000600060056104b1f15a906000553d60015561007a0190036002553d600060003e3d600020600355",
                            "storage": {}
                        },
                        "0xd48983842de9e7896cc154a1b51259e3b0c250e3": {
                            "nonce": "0x00",
                            "balance": "0x3635c9adc5dea00000",
                            "code": "0x",
                            "storage": {}
                        },
                        "0x2bf5c92b2d68cfe3748f3f0e80fc75ddc8d24279": {
                            "nonce": "0x01",
                            "balance": "0x3635c9adc5de9c21c4",
                            "code": "0x",
                            "storage": {}
                        },
                        "0x2adc25665018aa1fe0e6bc666dac8fc2697ff9ba": {
                            "nonce": "0x00",
                            "balance": "0x012912",
                            "code": "0x",
                            "storage": {}
                        }
                    }
                }
            ]
        },
        "config": {
            "blobSchedule": {
                "Cancun": {
                    "target": "0x03",
                    "max": "0x06",
                    "baseFeeUpdateFraction": "0x32f0ed"
                },
                "Prague": {
                    "target": "0x06",
                    "max": "0x09",
                    "baseFeeUpdateFraction": "0x4c6964"
                },
                "Osaka": {
                    "target": "0x06",
                    "max": "0x09",
                    "baseFeeUpdateFraction": "0x4c6964"
                }
            },
            "chainid": "0x01"
        },
        "_info": {
            "hash": "0xf92abb050210e7e6e39efeec237bda08441b653d7436f1ba04cb2a13300a77db",
            "comment": "`execution-spec-tests` generated test",
            "filling-transition-tool": "ethereum-spec-evm-resolver 0.0.5",
            "description": "Test ModExp using in transaction entry points with different precompile gas modifiers.",
            "url": "https://github.com/ethereum/execution-spec-tests/blob/fusaka-devnet-5@v1.1.0/tests/osaka/eip7883_modexp_gas_increase/test_modexp_thresholds.py#L237",
            "fixture-format": "state_test",
            "reference-spec": "https://github.com/ethereum/EIPs/blob/master/EIPS/eip-7883.md",
            "reference-spec-version": "13aa65810336d4f243d4563a828d5afe36035d23",
            "eels-resolution": {
                "git-url": "https://github.com/marioevz/execution-specs.git",
                "branch": "forks/bpo1",
                "commit": "3387e5f4aedfe99becfdc39b444d6371e25e0924"
            }
        }
    },
    "tests/osaka/eip7883_modexp_gas_increase/test_modexp_thresholds.py::test_modexp_used_in_transaction_entry_points[fork_Osaka-state_test-insufficient_gas]": {
        "env": {
            "currentCoinbase": "0x2adc25665018aa1fe0e6bc666dac8fc2697ff9ba",
            "currentGasLimit": "0x055d4a80",
            "currentNumber": "0x01",
            "currentTimestamp": "0x03e8",
            "currentRandom": "0x0000000000000000000000000000000000000000000000000000000000000000",
            "currentDifficulty": "0x00",
            "currentBaseFee": "0x07",
            "currentExcessBlobGas": "0x00"
        },
        "pre": {
            "0x86adadeb48ff37202798338051cfb30b8095f718": {
                "nonce": "0x01",
                "balance": "0x00",
                "code": "0x3660006000375a60006000366000600060056104aff15a906000553d600155",
                "storage": {}
            },
            "0x9e8e27b5b9f275dcd5c50a63a9597104406ea8bb": {
                "nonce": "0x00",
                "balance": "0x3635c9adc5dea00000",
                "code": "0x",
                "storage": {}
            },
            "0x630c943e978c4306793dcbe500e887f3ecd94cfd": {
                "nonce": "0x00",
                "balance": "0x3635c9adc5dea00000",
                "code": "0x",
                "storage": {}
            }
        },
        "transaction": {
            "nonce": "0x00",
            "gasPrice": "0x0a",
            "gasLimit": [
                "0x01ee68"
            ],
            "to": "0x0000000000000000000000000000000000000005",
            "value": [
                "0x00"
            ],
            "data": [
                "0x000000000000000000000000000000000000000000000000000000000000002800000000000000000000000000000000000000000000000000000000000000040000000000000000000000000000000000000000000000000000000000000028e8e77626586f73b955364c7b4bbf0bb7f7685ebd40e852b164633a4acbd3244c000102030405060701fffffff01681d2220bfea4bb888a5543db8c0916274ddb1ea93b144c042c01d8164c950001020304050607"
            ],
            "sender": "0x630c943e978c4306793dcbe500e887f3ecd94cfd",
            "secretKey": "0xf9f1e1e1c5c3bfc1343b7cfb86adadeb48ff37202798338051cfb30b8095f719"
        },
        "post": {
            "Osaka": [
                {
                    "hash": "0xc8ef47feb03458ddac78011008eb72fdd3a8251a7963c2b505fabb95ed084a40",
                    "logs": "0x1dcc4de8dec75d7aab85b567b6ccd41ad312451b948a7413f0a142fd40d49347",
                    "txbytes": "0xf90115800a8301ee6894000000000000000000000000000000000000000580b8b4000000000000000000000000000000000000000000000000000000000000002800000000000000000000000000000000000000000000000000000000000000040000000000000000000000000000000000000000000000000000000000000028e8e77626586f73b955364c7b4bbf0bb7f7685ebd40e852b164633a4acbd3244c000102030405060701fffffff01681d2220bfea4bb888a5543db8c0916274ddb1ea93b144c042c01d8164c95000102030405060726a021cb501fa254d7abe5b3c221600eb30689c943c2cf6772c698c24d27f3314d0aa0465efe99f21aa047f5f341b592eae7f8f6a700bf414562a5faf0f24e760dd6db",
                    "indexes": {
                        "data": 0,
                        "gas": 0,
                        "value": 0
                    },
                    "state": {
                        "0x86adadeb48ff37202798338051cfb30b8095f718": {
                            "nonce": "0x01",
                            "balance": "0x00",
                            "code": "0x3660006000375a60006000366000600060056104aff15a906000553d600155",
                            "storage": {}
                        },
                        "0x9e8e27b5b9f275dcd5c50a63a9597104406ea8bb": {
                            "nonce": "0x00",
                            "balance": "0x3635c9adc5dea00000",
                            "code": "0x",
                            "storage": {}
                        },
                        "0x630c943e978c4306793dcbe500e887f3ecd94cfd": {
                            "nonce": "0x01",
                            "balance": "0x3635c9adc5de9c21c4",
                            "code": "0x",
                            "storage": {}
                        },
                        "0x2adc25665018aa1fe0e6bc666dac8fc2697ff9ba": {
                            "nonce": "0x00",
                            "balance": "0x012912",
                            "code": "0x",
                            "storage": {}
                        }
                    }
                }
            ]
        },
        "config": {
            "blobSchedule": {
                "Cancun": {
                    "target": "0x03",
                    "max": "0x06",
                    "baseFeeUpdateFraction": "0x32f0ed"
                },
                "Prague": {
                    "target": "0x06",
                    "max": "0x09",
                    "baseFeeUpdateFraction": "0x4c6964"
                },
                "Osaka": {
                    "target": "0x06",
                    "max": "0x09",
                    "baseFeeUpdateFraction": "0x4c6964"
                }
            },
            "chainid": "0x01"
        },
        "_info": {
            "hash": "0x61f05f185a6d6312067d025fd6660a9d313cf8fb642d3092efed8d9c285a94fb",
            "comment": "`execution-spec-tests` generated test",
            "filling-transition-tool": "ethereum-spec-evm-resolver 0.0.5",
            "description": "Test ModExp using in transaction entry points with different precompile gas modifiers.",
            "url": "https://github.com/ethereum/execution-spec-tests/blob/fusaka-devnet-5@v1.1.0/tests/osaka/eip7883_modexp_gas_increase/test_modexp_thresholds.py#L237",
            "fixture-format": "state_test",
            "reference-spec": "https://github.com/ethereum/EIPs/blob/master/EIPS/eip-7883.md",
            "reference-spec-version": "13aa65810336d4f243d4563a828d5afe36035d23",
            "eels-resolution": {
                "git-url": "https://github.com/marioevz/execution-specs.git",
                "branch": "forks/bpo1",
                "commit": "3387e5f4aedfe99becfdc39b444d6371e25e0924"
            }
        }
    },
    "tests/osaka/eip7883_modexp_gas_increase/test_modexp_thresholds.py::test_modexp_used_in_transaction_entry_points[fork_Prague-state_test-exact_gas]": {
        "env": {
            "currentCoinbase": "0x2adc25665018aa1fe0e6bc666dac8fc2697ff9ba",
            "currentGasLimit": "0x055d4a80",
            "currentNumber": "0x01",
            "currentTimestamp": "0x03e8",
            "currentRandom": "0x0000000000000000000000000000000000000000000000000000000000000000",
            "currentDifficulty": "0x00",
            "currentBaseFee": "0x07",
            "currentExcessBlobGas": "0x00"
        },
        "pre": {
            "0x73b68b9ebc998893a301bf2040ba10741941a620": {
                "nonce": "0x01",
                "balance": "0x00",
                "code": "0x3660006000375a600060003660006000600560c8f15a906000553d60015561007a0190036002553d600060003e3d600020600355",
                "storage": {}
            },
            "0x948a0ff900dbb78f72b0e80cb805487e8e369a77": {
                "nonce": "0x00",
                "balance": "0x3635c9adc5dea00000",
                "code": "0x",
                "storage": {}
            },
            "0x40a8811f793ad1e0dac16242b28738979c90159d": {
                "nonce": "0x00",
                "balance": "0x3635c9adc5dea00000",
                "code": "0x",
                "storage": {}
            }
        },
        "transaction": {
            "nonce": "0x00",
            "gasPrice": "0x0a",
            "gasLimit": [
                "0x0238a0"
            ],
            "to": "0x0000000000000000000000000000000000000005",
            "value": [
                "0x00"
            ],
            "data": [
                "0x000000000000000000000000000000000000000000000000000000000000002800000000000000000000000000000000000000000000000000000000000000040000000000000000000000000000000000000000000000000000000000000028e8e77626586f73b955364c7b4bbf0bb7f7685ebd40e852b164633a4acbd3244c000102030405060701fffffff01681d2220bfea4bb888a5543db8c0916274ddb1ea93b144c042c01d8164c950001020304050607"
            ],
            "sender": "0x40a8811f793ad1e0dac16242b28738979c90159d",
            "secretKey": "0x540d676be31097ba78da8ced73b68b9ebc998893a301bf2040ba10741941a621"
        },
        "post": {
            "Prague": [
                {
                    "hash": "0x27931e4b0cc8517716a659bbfb6b3cee3752483cb5f040af481e9c38f475962f",
                    "logs": "0x1dcc4de8dec75d7aab85b567b6ccd41ad312451b948a7413f0a142fd40d49347",
                    "txbytes": "0xf90115800a830238a094000000000000000000000000000000000000000580b8b4000000000000000000000000000000000000000000000000000000000000002800000000000000000000000000000000000000000000000000000000000000040000000000000000000000000000000000000000000000000000000000000028e8e77626586f73b955364c7b4bbf0bb7f7685ebd40e852b164633a4acbd3244c000102030405060701fffffff01681d2220bfea4bb888a5543db8c0916274ddb1ea93b144c042c01d8164c95000102030405060725a0abbc16c0c27199e7f2e022cd7c90e75adf97159921acde4ec9dbef23686ab9c3a02015a77fbc1d29b1c5e34c900d13baf9e330985bd3aeb79b4d2fa01d732d9954",
                    "indexes": {
                        "data": 0,
                        "gas": 0,
                        "value": 0
                    },
                    "state": {
                        "0x73b68b9ebc998893a301bf2040ba10741941a620": {
                            "nonce": "0x01",
                            "balance": "0x00",
                            "code": "0x3660006000375a600060003660006000600560c8f15a906000553d60015561007a0190036002553d600060003e3d600020600355",
                            "storage": {}
                        },
                        "0x948a0ff900dbb78f72b0e80cb805487e8e369a77": {
                            "nonce": "0x00",
                            "balance": "0x3635c9adc5dea00000",
                            "code": "0x",
                            "storage": {}
                        },
                        "0x40a8811f793ad1e0dac16242b28738979c90159d": {
                            "nonce": "0x01",
                            "balance": "0x3635c9adc5de9c21c4",
                            "code": "0x",
                            "storage": {}
                        },
                        "0x2adc25665018aa1fe0e6bc666dac8fc2697ff9ba": {
                            "nonce": "0x00",
                            "balance": "0x012912",
                            "code": "0x",
                            "storage": {}
                        }
                    }
                }
            ]
        },
        "config": {
            "blobSchedule": {
                "Cancun": {
                    "target": "0x03",
                    "max": "0x06",
                    "baseFeeUpdateFraction": "0x32f0ed"
                },
                "Prague": {
                    "target": "0x06",
                    "max": "0x09",
                    "baseFeeUpdateFraction": "0x4c6964"
                }
            },
            "chainid": "0x01"
        },
        "_info": {
            "hash": "0x50b0d4a522d28dfb1a698b988aa3c8aa5359b85f5a3e6af3635367cfddb6472d",
            "comment": "`execution-spec-tests` generated test",
            "filling-transition-tool": "ethereum-spec-evm-resolver 0.0.5",
            "description": "Test ModExp using in transaction entry points with different precompile gas modifiers.",
            "url": "https://github.com/ethereum/execution-spec-tests/blob/fusaka-devnet-5@v1.1.0/tests/osaka/eip7883_modexp_gas_increase/test_modexp_thresholds.py#L237",
            "fixture-format": "state_test",
            "reference-spec": "https://github.com/ethereum/EIPs/blob/master/EIPS/eip-7883.md",
            "reference-spec-version": "13aa65810336d4f243d4563a828d5afe36035d23",
            "eels-resolution": {
                "git-url": "https://github.com/marioevz/execution-specs.git",
                "branch": "forks/bpo1",
                "commit": "3387e5f4aedfe99becfdc39b444d6371e25e0924"
            }
        }
    },
    "tests/osaka/eip7883_modexp_gas_increase/test_modexp_thresholds.py::test_modexp_used_in_transaction_entry_points[fork_Prague-state_test-extra_gas]": {
        "env": {
            "currentCoinbase": "0x2adc25665018aa1fe0e6bc666dac8fc2697ff9ba",
            "currentGasLimit": "0x055d4a80",
            "currentNumber": "0x01",
            "currentTimestamp": "0x03e8",
            "currentRandom": "0x0000000000000000000000000000000000000000000000000000000000000000",
            "currentDifficulty": "0x00",
            "currentBaseFee": "0x07",
            "currentExcessBlobGas": "0x00"
        },
        "pre": {
            "0xd66efb348a2ec74c22b1e8849ed64de90197bbe5": {
                "nonce": "0x01",
                "balance": "0x00",
                "code": "0x3660006000375a600060003660006000600560c9f15a906000553d60015561007a0190036002553d600060003e3d600020600355",
                "storage": {}
            },
            "0xd48983842de9e7896cc154a1b51259e3b0c250e3": {
                "nonce": "0x00",
                "balance": "0x3635c9adc5dea00000",
                "code": "0x",
                "storage": {}
            },
            "0x2bf5c92b2d68cfe3748f3f0e80fc75ddc8d24279": {
                "nonce": "0x00",
                "balance": "0x3635c9adc5dea00000",
                "code": "0x",
                "storage": {}
            }
        },
        "transaction": {
            "nonce": "0x00",
            "gasPrice": "0x0a",
            "gasLimit": [
                "0x0238a0"
            ],
            "to": "0x0000000000000000000000000000000000000005",
            "value": [
                "0x00"
            ],
            "data": [
                "0x000000000000000000000000000000000000000000000000000000000000002800000000000000000000000000000000000000000000000000000000000000040000000000000000000000000000000000000000000000000000000000000028e8e77626586f73b955364c7b4bbf0bb7f7685ebd40e852b164633a4acbd3244c000102030405060701fffffff01681d2220bfea4bb888a5543db8c0916274ddb1ea93b144c042c01d8164c950001020304050607"
            ],
            "sender": "0x2bf5c92b2d68cfe3748f3f0e80fc75ddc8d24279",
            "secretKey": "0x11cf7bb79324fc9aed0bdad1d66efb348a2ec74c22b1e8849ed64de90197bbe6"
        },
        "post": {
            "Prague": [
                {
                    "hash": "0x37291670445ab353080f0d073a12b02cbd64eecfd38945f61238202a91717900",
                    "logs": "0x1dcc4de8dec75d7aab85b567b6ccd41ad312451b948a7413f0a142fd40d49347",
                    "txbytes": "0xf90115800a830238a094000000000000000000000000000000000000000580b8b4000000000000000000000000000000000000000000000000000000000000002800000000000000000000000000000000000000000000000000000000000000040000000000000000000000000000000000000000000000000000000000000028e8e77626586f73b955364c7b4bbf0bb7f7685ebd40e852b164633a4acbd3244c000102030405060701fffffff01681d2220bfea4bb888a5543db8c0916274ddb1ea93b144c042c01d8164c95000102030405060726a0ab6554f9862ae4ceb86ffd9fc32116b44d52c9e01626d3db802bd99ccf21e113a02f385eeee756abf480b6d9d4b6cd9012bf617ebe43ae0a4cad5c6cc79dcb4be7",
                    "indexes": {
                        "data": 0,
                        "gas": 0,
                        "value": 0
                    },
                    "state": {
                        "0xd66efb348a2ec74c22b1e8849ed64de90197bbe5": {
                            "nonce": "0x01",
                            "balance": "0x00",
                            "code": "0x3660006000375a600060003660006000600560c9f15a906000553d60015561007a0190036002553d600060003e3d600020600355",
                            "storage": {}
                        },
                        "0xd48983842de9e7896cc154a1b51259e3b0c250e3": {
                            "nonce": "0x00",
                            "balance": "0x3635c9adc5dea00000",
                            "code": "0x",
                            "storage": {}
                        },
                        "0x2bf5c92b2d68cfe3748f3f0e80fc75ddc8d24279": {
                            "nonce": "0x01",
                            "balance": "0x3635c9adc5de9c21c4",
                            "code": "0x",
                            "storage": {}
                        },
                        "0x2adc25665018aa1fe0e6bc666dac8fc2697ff9ba": {
                            "nonce": "0x00",
                            "balance": "0x012912",
                            "code": "0x",
                            "storage": {}
                        }
                    }
                }
            ]
        },
        "config": {
            "blobSchedule": {
                "Cancun": {
                    "target": "0x03",
                    "max": "0x06",
                    "baseFeeUpdateFraction": "0x32f0ed"
                },
                "Prague": {
                    "target": "0x06",
                    "max": "0x09",
                    "baseFeeUpdateFraction": "0x4c6964"
                }
            },
            "chainid": "0x01"
        },
        "_info": {
            "hash": "0x7c467db235ff664cf5192a12553fcead5865e3f79328ce33e730f30a1171d3f0",
            "comment": "`execution-spec-tests` generated test",
            "filling-transition-tool": "ethereum-spec-evm-resolver 0.0.5",
            "description": "Test ModExp using in transaction entry points with different precompile gas modifiers.",
            "url": "https://github.com/ethereum/execution-spec-tests/blob/fusaka-devnet-5@v1.1.0/tests/osaka/eip7883_modexp_gas_increase/test_modexp_thresholds.py#L237",
            "fixture-format": "state_test",
            "reference-spec": "https://github.com/ethereum/EIPs/blob/master/EIPS/eip-7883.md",
            "reference-spec-version": "13aa65810336d4f243d4563a828d5afe36035d23",
            "eels-resolution": {
                "git-url": "https://github.com/marioevz/execution-specs.git",
                "branch": "forks/bpo1",
                "commit": "3387e5f4aedfe99becfdc39b444d6371e25e0924"
            }
        }
    },
    "tests/osaka/eip7883_modexp_gas_increase/test_modexp_thresholds.py::test_modexp_used_in_transaction_entry_points[fork_Prague-state_test-insufficient_gas]": {
        "env": {
            "currentCoinbase": "0x2adc25665018aa1fe0e6bc666dac8fc2697ff9ba",
            "currentGasLimit": "0x055d4a80",
            "currentNumber": "0x01",
            "currentTimestamp": "0x03e8",
            "currentRandom": "0x0000000000000000000000000000000000000000000000000000000000000000",
            "currentDifficulty": "0x00",
            "currentBaseFee": "0x07",
            "currentExcessBlobGas": "0x00"
        },
        "pre": {
            "0x86adadeb48ff37202798338051cfb30b8095f718": {
                "nonce": "0x01",
                "balance": "0x00",
                "code": "0x3660006000375a600060003660006000600560c7f15a906000553d600155",
                "storage": {}
            },
            "0x9e8e27b5b9f275dcd5c50a63a9597104406ea8bb": {
                "nonce": "0x00",
                "balance": "0x3635c9adc5dea00000",
                "code": "0x",
                "storage": {}
            },
            "0x630c943e978c4306793dcbe500e887f3ecd94cfd": {
                "nonce": "0x00",
                "balance": "0x3635c9adc5dea00000",
                "code": "0x",
                "storage": {}
            }
        },
        "transaction": {
            "nonce": "0x00",
            "gasPrice": "0x0a",
            "gasLimit": [
                "0x01ea80"
            ],
            "to": "0x0000000000000000000000000000000000000005",
            "value": [
                "0x00"
            ],
            "data": [
                "0x000000000000000000000000000000000000000000000000000000000000002800000000000000000000000000000000000000000000000000000000000000040000000000000000000000000000000000000000000000000000000000000028e8e77626586f73b955364c7b4bbf0bb7f7685ebd40e852b164633a4acbd3244c000102030405060701fffffff01681d2220bfea4bb888a5543db8c0916274ddb1ea93b144c042c01d8164c950001020304050607"
            ],
            "sender": "0x630c943e978c4306793dcbe500e887f3ecd94cfd",
            "secretKey": "0xf9f1e1e1c5c3bfc1343b7cfb86adadeb48ff37202798338051cfb30b8095f719"
        },
        "post": {
            "Prague": [
                {
                    "hash": "0x4dbdd3c56e7b0d8b7bf1de00415c90f2748e9efde2fc986137cc516353878944",
                    "logs": "0x1dcc4de8dec75d7aab85b567b6ccd41ad312451b948a7413f0a142fd40d49347",
                    "txbytes": "0xf90115800a8301ea8094000000000000000000000000000000000000000580b8b4000000000000000000000000000000000000000000000000000000000000002800000000000000000000000000000000000000000000000000000000000000040000000000000000000000000000000000000000000000000000000000000028e8e77626586f73b955364c7b4bbf0bb7f7685ebd40e852b164633a4acbd3244c000102030405060701fffffff01681d2220bfea4bb888a5543db8c0916274ddb1ea93b144c042c01d8164c95000102030405060726a0380143f850eac05fd6e6201fc7d9ec1123c6252cf1c74543e230b0d3be535f45a07cf860b15e58f9d9f8aa788d285acd3609b5921fd4a9d6c6151d0b9b80a4c883",
                    "indexes": {
                        "data": 0,
                        "gas": 0,
                        "value": 0
                    },
                    "state": {
                        "0x86adadeb48ff37202798338051cfb30b8095f718": {
                            "nonce": "0x01",
                            "balance": "0x00",
                            "code": "0x3660006000375a600060003660006000600560c7f15a906000553d600155",
                            "storage": {}
                        },
                        "0x9e8e27b5b9f275dcd5c50a63a9597104406ea8bb": {
                            "nonce": "0x00",
                            "balance": "0x3635c9adc5dea00000",
                            "code": "0x",
                            "storage": {}
                        },
                        "0x630c943e978c4306793dcbe500e887f3ecd94cfd": {
                            "nonce": "0x01",
                            "balance": "0x3635c9adc5de9c21c4",
                            "code": "0x",
                            "storage": {}
                        },
                        "0x2adc25665018aa1fe0e6bc666dac8fc2697ff9ba": {
                            "nonce": "0x00",
                            "balance": "0x012912",
                            "code": "0x",
                            "storage": {}
                        }
                    }
                }
            ]
        },
        "config": {
            "blobSchedule": {
                "Cancun": {
                    "target": "0x03",
                    "max": "0x06",
                    "baseFeeUpdateFraction": "0x32f0ed"
                },
                "Prague": {
                    "target": "0x06",
                    "max": "0x09",
                    "baseFeeUpdateFraction": "0x4c6964"
                }
            },
            "chainid": "0x01"
        },
        "_info": {
            "hash": "0x024b0b4b7a808c63ae7627ea0b5855995be9dfd8fd1f3e86bc8055ddb37e1870",
            "comment": "`execution-spec-tests` generated test",
            "filling-transition-tool": "ethereum-spec-evm-resolver 0.0.5",
            "description": "Test ModExp using in transaction entry points with different precompile gas modifiers.",
            "url": "https://github.com/ethereum/execution-spec-tests/blob/fusaka-devnet-5@v1.1.0/tests/osaka/eip7883_modexp_gas_increase/test_modexp_thresholds.py#L237",
            "fixture-format": "state_test",
            "reference-spec": "https://github.com/ethereum/EIPs/blob/master/EIPS/eip-7883.md",
            "reference-spec-version": "13aa65810336d4f243d4563a828d5afe36035d23",
            "eels-resolution": {
                "git-url": "https://github.com/marioevz/execution-specs.git",
                "branch": "forks/bpo1",
                "commit": "3387e5f4aedfe99becfdc39b444d6371e25e0924"
            }
        }
    }
}