{
    "tests/osaka/eip7883_modexp_gas_increase/test_modexp_thresholds.py::test_modexp_invalid_inputs[fork_Osaka-state_test-modexp_expected_b''-call_succeeds_False-invalid-case-1]": {
        "env": {
            "currentCoinbase": "0x2adc25665018aa1fe0e6bc666dac8fc2697ff9ba",
            "currentGasLimit": "0x055d4a80",
            "currentNumber": "0x01",
            "currentTimestamp": "0x03e8",
            "currentRandom": "0x0000000000000000000000000000000000000000000000000000000000000000",
            "currentDifficulty": "0x00",
            "currentBaseFee": "0x07",
            "currentExcessBlobGas": "0x00"
        },
        "pre": {
            "0xc77c0da7a2612582fc68da7f0040500c5e1dc644": {
                "nonce": "0x01",
                "balance": "0x00",
                "code": "0x3660006000375a60006000366000600060056101f4f15a906000553d600155",
                "storage": {}
            },
            "0x9a307b10f4c0f13998298ee903101e8858beaf71": {
                "nonce": "0x00",
                "balance": "0x3635c9adc5dea00000",
                "code": "0x",
                "storage": {}
            }
        },
        "transaction": {
            "nonce": "0x00",
            "gasPrice": "0x0a",
            "gasLimit": [
                "0x01db3f"
            ],
            "to": "0xc77c0da7a2612582fc68da7f0040500c5e1dc644",
            "value": [
                "0x00"
            ],
            "data": [
                "0x9e5faafc"
            ],
            "sender": "0x9a307b10f4c0f13998298ee903101e8858beaf71",
            "secretKey": "0xe3d7e9dcd1581481ddd7b0f6c77c0da7a2612582fc68da7f0040500c5e1dc644"
        },
        "post": {
            "Osaka": [
                {
                    "hash": "0xf1b448d228edcebe9ac5c7533eac9821cdca80eddbaf67f98af8acb44b920280",
                    "logs": "0x1dcc4de8dec75d7aab85b567b6ccd41ad312451b948a7413f0a142fd40d49347",
                    "txbytes": "0xf864800a8301db3f94c77c0da7a2612582fc68da7f0040500c5e1dc64480849e5faafc26a071796c348d333a5e5c37f8dbeb58c90496740481e572e326d6f214924f8fee78a07edab04f79f5b9d1905306880673e163e91de934d7126749a2f3fd8dbd85d107",
                    "indexes": {
                        "data": 0,
                        "gas": 0,
                        "value": 0
                    },
                    "state": {
                        "0xc77c0da7a2612582fc68da7f0040500c5e1dc644": {
                            "nonce": "0x01",
                            "balance": "0x00",
                            "code": "0x3660006000375a60006000366000600060056101f4f15a906000553d600155",
                            "storage": {}
                        },
                        "0x9a307b10f4c0f13998298ee903101e8858beaf71": {
                            "nonce": "0x01",
                            "balance": "0x3635c9adc5de9c03d8",
                            "code": "0x",
                            "storage": {}
                        },
                        "0x2adc25665018aa1fe0e6bc666dac8fc2697ff9ba": {
                            "nonce": "0x00",
                            "balance": "0x01320c",
                            "code": "0x",
                            "storage": {}
                        }
                    }
                }
            ]
        },
        "config": {
            "blobSchedule": {
                "Cancun": {
                    "target": "0x03",
                    "max": "0x06",
                    "baseFeeUpdateFraction": "0x32f0ed"
                },
                "Prague": {
                    "target": "0x06",
                    "max": "0x09",
                    "baseFeeUpdateFraction": "0x4c6964"
                },
                "Osaka": {
                    "target": "0x06",
                    "max": "0x09",
                    "baseFeeUpdateFraction": "0x4c6964"
                }
            },
            "chainid": "0x01"
        },
        "_info": {
            "hash": "0xf520a5a6efcb4283b6a13aadfb8017aa1406f98544fc74050720c74d9e7ce5e5",
            "comment": "`execution-spec-tests` generated test",
            "filling-transition-tool": "ethereum-spec-evm-resolver 0.0.5",
            "description": "Test ModExp gas cost with invalid inputs.",
            "url": "https://github.com/ethereum/execution-spec-tests/blob/fusaka-devnet-5@v1.1.0/tests/osaka/eip7883_modexp_gas_increase/test_modexp_thresholds.py#L62",
            "fixture-format": "state_test",
            "reference-spec": "https://github.com/ethereum/EIPs/blob/master/EIPS/eip-7883.md",
            "reference-spec-version": "13aa65810336d4f243d4563a828d5afe36035d23",
            "eels-resolution": {
                "git-url": "https://github.com/marioevz/execution-specs.git",
                "branch": "forks/bpo1",
                "commit": "3387e5f4aedfe99becfdc39b444d6371e25e0924"
            }
        }
    },
    "tests/osaka/eip7883_modexp_gas_increase/test_modexp_thresholds.py::test_modexp_invalid_inputs[fork_Osaka-state_test-modexp_expected_b''-call_succeeds_False-invalid-case-2]": {
        "env": {
            "currentCoinbase": "0x2adc25665018aa1fe0e6bc666dac8fc2697ff9ba",
            "currentGasLimit": "0x055d4a80",
            "currentNumber": "0x01",
            "currentTimestamp": "0x03e8",
            "currentRandom": "0x0000000000000000000000000000000000000000000000000000000000000000",
            "currentDifficulty": "0x00",
            "currentBaseFee": "0x07",
            "currentExcessBlobGas": "0x00"
        },
        "pre": {
            "0xfc60a1b14962c4135096088ec18d3deec959fd15": {
                "nonce": "0x01",
                "balance": "0x00",
                "code": "0x3660006000375a60006000366000600060056101f4f15a906000553d600155",
                "storage": {}
            },
            "0x04952b6a7b74ea7de014a29529034a7b212ce65c": {
                "nonce": "0x00",
                "balance": "0x3635c9adc5dea00000",
                "code": "0x",
                "storage": {}
            }
        },
        "transaction": {
            "nonce": "0x00",
            "gasPrice": "0x0a",
            "gasLimit": [
                "0x01db3f"
            ],
            "to": "0xfc60a1b14962c4135096088ec18d3deec959fd15",
            "value": [
                "0x00"
            ],
            "data": [
                "0x85474728"
            ],
            "sender": "0x04952b6a7b74ea7de014a29529034a7b212ce65c",
            "secretKey": "0x93fe898810e0619706721847fc60a1b14962c4135096088ec18d3deec959fd15"
        },
        "post": {
            "Osaka": [
                {
                    "hash": "0xcf055ec6e632429fd0c2e6fff6550b99c08261eb98c43e656dba93d0d7a2b005",
                    "logs": "0x1dcc4de8dec75d7aab85b567b6ccd41ad312451b948a7413f0a142fd40d49347",
                    "txbytes": "0xf864800a8301db3f94fc60a1b14962c4135096088ec18d3deec959fd1580848547472825a0697704294d1afb56a62e2ab9a4728120e0d898a7dcee2175dd338ea5e62f95c5a05eb43858355a37e4896b20a06815aeec455ec393c206fef99da0f344459d572e",
                    "indexes": {
                        "data": 0,
                        "gas": 0,
                        "value": 0
                    },
                    "state": {
                        "0xfc60a1b14962c4135096088ec18d3deec959fd15": {
                            "nonce": "0x01",
                            "balance": "0x00",
                            "code": "0x3660006000375a60006000366000600060056101f4f15a906000553d600155",
                            "storage": {}
                        },
                        "0x04952b6a7b74ea7de014a29529034a7b212ce65c": {
                            "nonce": "0x01",
                            "balance": "0x3635c9adc5de9c03d8",
                            "code": "0x",
                            "storage": {}
                        },
                        "0x2adc25665018aa1fe0e6bc666dac8fc2697ff9ba": {
                            "nonce": "0x00",
                            "balance": "0x01320c",
                            "code": "0x",
                            "storage": {}
                        }
                    }
                }
            ]
        },
        "config": {
            "blobSchedule": {
                "Cancun": {
                    "target": "0x03",
                    "max": "0x06",
                    "baseFeeUpdateFraction": "0x32f0ed"
                },
                "Prague": {
                    "target": "0x06",
                    "max": "0x09",
                    "baseFeeUpdateFraction": "0x4c6964"
                },
                "Osaka": {
                    "target": "0x06",
                    "max": "0x09",
                    "baseFeeUpdateFraction": "0x4c6964"
                }
            },
            "chainid": "0x01"
        },
        "_info": {
            "hash": "0x43608db155dde975287f062c62d783963b0929c329801695377dd9d89a82cc8a",
            "comment": "`execution-spec-tests` generated test",
            "filling-transition-tool": "ethereum-spec-evm-resolver 0.0.5",
            "description": "Test ModExp gas cost with invalid inputs.",
            "url": "https://github.com/ethereum/execution-spec-tests/blob/fusaka-devnet-5@v1.1.0/tests/osaka/eip7883_modexp_gas_increase/test_modexp_thresholds.py#L62",
            "fixture-format": "state_test",
            "reference-spec": "https://github.com/ethereum/EIPs/blob/master/EIPS/eip-7883.md",
            "reference-spec-version": "13aa65810336d4f243d4563a828d5afe36035d23",
            "eels-resolution": {
                "git-url": "https://github.com/marioevz/execution-specs.git",
                "branch": "forks/bpo1",
                "commit": "3387e5f4aedfe99becfdc39b444d6371e25e0924"
            }
        }
    },
    "tests/osaka/eip7883_modexp_gas_increase/test_modexp_thresholds.py::test_modexp_invalid_inputs[fork_Osaka-state_test-modexp_expected_b''-call_succeeds_False-invalid-case-3]": {
        "env": {
            "currentCoinbase": "0x2adc25665018aa1fe0e6bc666dac8fc2697ff9ba",
            "currentGasLimit": "0x055d4a80",
            "currentNumber": "0x01",
            "currentTimestamp": "0x03e8",
            "currentRandom": "0x0000000000000000000000000000000000000000000000000000000000000000",
            "currentDifficulty": "0x00",
            "currentBaseFee": "0x07",
            "currentExcessBlobGas": "0x00"
        },
        "pre": {
            "0xd04985a10fa25d0539093151e7cc2207bd674466": {
                "nonce": "0x01",
                "balance": "0x00",
                "code": "0x3660006000375a60006000366000600060056101f4f15a906000553d600155",
                "storage": {}
            },
            "0x40e236bd68857543b71cad6d279759c3d9963bc0": {
                "nonce": "0x00",
                "balance": "0x3635c9adc5dea00000",
                "code": "0x",
                "storage": {}
            }
        },
        "transaction": {
            "nonce": "0x00",
            "gasPrice": "0x0a",
            "gasLimit": [
                "0x01deb5"
            ],
            "to": "0xd04985a10fa25d0539093151e7cc2207bd674466",
            "value": [
                "0x00"
            ],
            "data": [
                "0x9e281a98000000000000000000000000000000000000000000000000000000000000000000000000000000000000000000000000000000000000021e19e0c9bab2400000"
            ],
            "sender": "0x40e236bd68857543b71cad6d279759c3d9963bc0",
            "secretKey": "0x94e5404deeee47cc58cf4b1ed04985a10fa25d0539093151e7cc2207bd674466"
        },
        "post": {
            "Osaka": [
                {
                    "hash": "0x4f6e563a12b1c4e35305548fc73da9e4a8542bb20dff3f27f3dde9a3e9ed599f",
                    "logs": "0x1dcc4de8dec75d7aab85b567b6ccd41ad312451b948a7413f0a142fd40d49347",
                    "txbytes": "0xf8a5800a8301deb594d04985a10fa25d0539093151e7cc2207bd67446680b8449e281a98000000000000000000000000000000000000000000000000000000000000000000000000000000000000000000000000000000000000021e19e0c9bab240000025a057df8bd35f3e0a02210b617ee89fc55127691dd2383f9b06cd317e1c83953004a057a415becee2ac907b1ef7d67a856409d11a5f793f9a36a7e4b784dbe3d13e7f",
                    "indexes": {
                        "data": 0,
                        "gas": 0,
                        "value": 0
                    },
                    "state": {
                        "0xd04985a10fa25d0539093151e7cc2207bd674466": {
                            "nonce": "0x01",
                            "balance": "0x00",
                            "code": "0x3660006000375a60006000366000600060056101f4f15a906000553d600155",
                            "storage": {}
                        },
                        "0x40e236bd68857543b71cad6d279759c3d9963bc0": {
                            "nonce": "0x01",
                            "balance": "0x3635c9adc5de9bf5a0",
                            "code": "0x",
                            "storage": {}
                        },
                        "0x2adc25665018aa1fe0e6bc666dac8fc2697ff9ba": {
                            "nonce": "0x00",
                            "balance": "0x013650",
                            "code": "0x",
                            "storage": {}
                        }
                    }
                }
            ]
        },
        "config": {
            "blobSchedule": {
                "Cancun": {
                    "target": "0x03",
                    "max": "0x06",
                    "baseFeeUpdateFraction": "0x32f0ed"
                },
                "Prague": {
                    "target": "0x06",
                    "max": "0x09",
                    "baseFeeUpdateFraction": "0x4c6964"
                },
                "Osaka": {
                    "target": "0x06",
                    "max": "0x09",
                    "baseFeeUpdateFraction": "0x4c6964"
                }
            },
            "chainid": "0x01"
        },
        "_info": {
            "hash": "0x41c738d92b108c8320a2928c48e3d5ed6e5fa57f48a5cd20c26bb02f7938e436",
            "comment": "`execution-spec-tests` generated test",
            "filling-transition-tool": "ethereum-spec-evm-resolver 0.0.5",
            "description": "Test ModExp gas cost with invalid inputs.",
            "url": "https://github.com/ethereum/execution-spec-tests/blob/fusaka-devnet-5@v1.1.0/tests/osaka/eip7883_modexp_gas_increase/test_modexp_thresholds.py#L62",
            "fixture-format": "state_test",
            "reference-spec": "https://github.com/ethereum/EIPs/blob/master/EIPS/eip-7883.md",
            "reference-spec-version": "13aa65810336d4f243d4563a828d5afe36035d23",
            "eels-resolution": {
                "git-url": "https://github.com/marioevz/execution-specs.git",
                "branch": "forks/bpo1",
                "commit": "3387e5f4aedfe99becfdc39b444d6371e25e0924"
            }
        }
    },
    "tests/osaka/eip7883_modexp_gas_increase/test_modexp_thresholds.py::test_modexp_invalid_inputs[fork_Prague-state_test-modexp_expected_b''-call_succeeds_False-invalid-case-1]": {
        "env": {
            "currentCoinbase": "0x2adc25665018aa1fe0e6bc666dac8fc2697ff9ba",
            "currentGasLimit": "0x055d4a80",
            "currentNumber": "0x01",
            "currentTimestamp": "0x03e8",
            "currentRandom": "0x0000000000000000000000000000000000000000000000000000000000000000",
            "currentDifficulty": "0x00",
            "currentBaseFee": "0x07",
            "currentExcessBlobGas": "0x00"
        },
        "pre": {
            "0xc77c0da7a2612582fc68da7f0040500c5e1dc644": {
                "nonce": "0x01",
                "balance": "0x00",
                "code": "0x3660006000375a600060003660006000600560c8f15a906000553d600155",
                "storage": {}
            },
            "0x9a307b10f4c0f13998298ee903101e8858beaf71": {
                "nonce": "0x00",
                "balance": "0x3635c9adc5dea00000",
                "code": "0x",
                "storage": {}
            }
        },
        "transaction": {
            "nonce": "0x00",
            "gasPrice": "0x0a",
            "gasLimit": [
                "0x01da13"
            ],
            "to": "0xc77c0da7a2612582fc68da7f0040500c5e1dc644",
            "value": [
                "0x00"
            ],
            "data": [
                "0x9e5faafc"
            ],
            "sender": "0x9a307b10f4c0f13998298ee903101e8858beaf71",
            "secretKey": "0xe3d7e9dcd1581481ddd7b0f6c77c0da7a2612582fc68da7f0040500c5e1dc644"
        },
        "post": {
            "Prague": [
                {
                    "hash": "0xaeb0e39173c57b3f88f380cc71846aa530f2a2e1a83d05d4930c096f23284ff5",
                    "logs": "0x1dcc4de8dec75d7aab85b567b6ccd41ad312451b948a7413f0a142fd40d49347",
                    "txbytes": "0xf864800a8301da1394c77c0da7a2612582fc68da7f0040500c5e1dc64480849e5faafc26a076d32f2b7313dfe5b11107de73f09aebccdec353dffa60e70ebbebedecd93db6a00e5764e547a9a66aff8795ed0b9b09df86a290b0390dfbad60bf487ddb913b8b",
                    "indexes": {
                        "data": 0,
                        "gas": 0,
                        "value": 0
                    },
                    "state": {
                        "0xc77c0da7a2612582fc68da7f0040500c5e1dc644": {
                            "nonce": "0x01",
                            "balance": "0x00",
                            "code": "0x3660006000375a600060003660006000600560c8f15a906000553d600155",
                            "storage": {}
                        },
                        "0x9a307b10f4c0f13998298ee903101e8858beaf71": {
                            "nonce": "0x01",
                            "balance": "0x3635c9adc5de9c0f90",
                            "code": "0x",
                            "storage": {}
                        },
                        "0x2adc25665018aa1fe0e6bc666dac8fc2697ff9ba": {
                            "nonce": "0x00",
                            "balance": "0x012e88",
                            "code": "0x",
                            "storage": {}
                        }
                    }
                }
            ]
        },
        "config": {
            "blobSchedule": {
                "Cancun": {
                    "target": "0x03",
                    "max": "0x06",
                    "baseFeeUpdateFraction": "0x32f0ed"
                },
                "Prague": {
                    "target": "0x06",
                    "max": "0x09",
                    "baseFeeUpdateFraction": "0x4c6964"
                }
            },
            "chainid": "0x01"
        },
        "_info": {
            "hash": "0xe9091b1dedadf2205155cc8d948229aea8b5c7c2c2339c1227c7388aa4097f18",
            "comment": "`execution-spec-tests` generated test",
            "filling-transition-tool": "ethereum-spec-evm-resolver 0.0.5",
            "description": "Test ModExp gas cost with invalid inputs.",
            "url": "https://github.com/ethereum/execution-spec-tests/blob/fusaka-devnet-5@v1.1.0/tests/osaka/eip7883_modexp_gas_increase/test_modexp_thresholds.py#L62",
            "fixture-format": "state_test",
            "reference-spec": "https://github.com/ethereum/EIPs/blob/master/EIPS/eip-7883.md",
            "reference-spec-version": "13aa65810336d4f243d4563a828d5afe36035d23",
            "eels-resolution": {
                "git-url": "https://github.com/marioevz/execution-specs.git",
                "branch": "forks/bpo1",
                "commit": "3387e5f4aedfe99becfdc39b444d6371e25e0924"
            }
        }
    },
    "tests/osaka/eip7883_modexp_gas_increase/test_modexp_thresholds.py::test_modexp_invalid_inputs[fork_Prague-state_test-modexp_expected_b''-call_succeeds_False-invalid-case-2]": {
        "env": {
            "currentCoinbase": "0x2adc25665018aa1fe0e6bc666dac8fc2697ff9ba",
            "currentGasLimit": "0x055d4a80",
            "currentNumber": "0x01",
            "currentTimestamp": "0x03e8",
            "currentRandom": "0x0000000000000000000000000000000000000000000000000000000000000000",
            "currentDifficulty": "0x00",
            "currentBaseFee": "0x07",
            "currentExcessBlobGas": "0x00"
        },
        "pre": {
            "0xfc60a1b14962c4135096088ec18d3deec959fd15": {
                "nonce": "0x01",
                "balance": "0x00",
                "code": "0x3660006000375a600060003660006000600560c8f15a906000553d600155",
                "storage": {}
            },
            "0x04952b6a7b74ea7de014a29529034a7b212ce65c": {
                "nonce": "0x00",
                "balance": "0x3635c9adc5dea00000",
                "code": "0x",
                "storage": {}
            }
        },
        "transaction": {
            "nonce": "0x00",
            "gasPrice": "0x0a",
            "gasLimit": [
                "0x01da13"
            ],
            "to": "0xfc60a1b14962c4135096088ec18d3deec959fd15",
            "value": [
                "0x00"
            ],
            "data": [
                "0x85474728"
            ],
            "sender": "0x04952b6a7b74ea7de014a29529034a7b212ce65c",
            "secretKey": "0x93fe898810e0619706721847fc60a1b14962c4135096088ec18d3deec959fd15"
        },
        "post": {
            "Prague": [
                {
                    "hash": "0xafd76fc78cf3f264f65454d12bb70ff8a2a2c4d5f79beba74285c1d83e51dd5f",
                    "logs": "0x1dcc4de8dec75d7aab85b567b6ccd41ad312451b948a7413f0a142fd40d49347",
                    "txbytes": "0xf864800a8301da1394fc60a1b14962c4135096088ec18d3deec959fd1580848547472826a0edb0eecedfb47b029eb76bde0bd3bb0990dcc3f59bc49da42cc0ec9ce4e05752a02a875c92a026c45815b1cda3bda98745b142de6c3b0b6a687bff7869b9279804",
                    "indexes": {
                        "data": 0,
                        "gas": 0,
                        "value": 0
                    },
                    "state": {
                        "0xfc60a1b14962c4135096088ec18d3deec959fd15": {
                            "nonce": "0x01",
                            "balance": "0x00",
                            "code": "0x3660006000375a600060003660006000600560c8f15a906000553d600155",
                            "storage": {}
                        },
                        "0x04952b6a7b74ea7de014a29529034a7b212ce65c": {
                            "nonce": "0x01",
                            "balance": "0x3635c9adc5de9c0f90",
                            "code": "0x",
                            "storage": {}
                        },
                        "0x2adc25665018aa1fe0e6bc666dac8fc2697ff9ba": {
                            "nonce": "0x00",
                            "balance": "0x012e88",
                            "code": "0x",
                            "storage": {}
                        }
                    }
                }
            ]
        },
        "config": {
            "blobSchedule": {
                "Cancun": {
                    "target": "0x03",
                    "max": "0x06",
                    "baseFeeUpdateFraction": "0x32f0ed"
                },
                "Prague": {
                    "target": "0x06",
                    "max": "0x09",
                    "baseFeeUpdateFraction": "0x4c6964"
                }
            },
            "chainid": "0x01"
        },
        "_info": {
            "hash": "0x18707390425214f28ce516ce03ff1be3774b5f1992425503bf43e9d43e177f63",
            "comment": "`execution-spec-tests` generated test",
            "filling-transition-tool": "ethereum-spec-evm-resolver 0.0.5",
            "description": "Test ModExp gas cost with invalid inputs.",
            "url": "https://github.com/ethereum/execution-spec-tests/blob/fusaka-devnet-5@v1.1.0/tests/osaka/eip7883_modexp_gas_increase/test_modexp_thresholds.py#L62",
            "fixture-format": "state_test",
            "reference-spec": "https://github.com/ethereum/EIPs/blob/master/EIPS/eip-7883.md",
            "reference-spec-version": "13aa65810336d4f243d4563a828d5afe36035d23",
            "eels-resolution": {
                "git-url": "https://github.com/marioevz/execution-specs.git",
                "branch": "forks/bpo1",
                "commit": "3387e5f4aedfe99becfdc39b444d6371e25e0924"
            }
        }
    },
    "tests/osaka/eip7883_modexp_gas_increase/test_modexp_thresholds.py::test_modexp_invalid_inputs[fork_Prague-state_test-modexp_expected_b''-call_succeeds_False-invalid-case-3]": {
        "env": {
            "currentCoinbase": "0x2adc25665018aa1fe0e6bc666dac8fc2697ff9ba",
            "currentGasLimit": "0x055d4a80",
            "currentNumber": "0x01",
            "currentTimestamp": "0x03e8",
            "currentRandom": "0x0000000000000000000000000000000000000000000000000000000000000000",
            "currentDifficulty": "0x00",
            "currentBaseFee": "0x07",
            "currentExcessBlobGas": "0x00"
        },
        "pre": {
            "0xd04985a10fa25d0539093151e7cc2207bd674466": {
                "nonce": "0x01",
                "balance": "0x00",
                "code": "0x3660006000375a600060003660006000600560c8f15a906000553d600155",
                "storage": {}
            },
            "0x40e236bd68857543b71cad6d279759c3d9963bc0": {
                "nonce": "0x00",
                "balance": "0x3635c9adc5dea00000",
                "code": "0x",
                "storage": {}
            }
        },
        "transaction": {
            "nonce": "0x00",
            "gasPrice": "0x0a",
            "gasLimit": [
                "0x01dd89"
            ],
            "to": "0xd04985a10fa25d0539093151e7cc2207bd674466",
            "value": [
                "0x00"
            ],
            "data": [
                "0x9e281a98000000000000000000000000000000000000000000000000000000000000000000000000000000000000000000000000000000000000021e19e0c9bab2400000"
            ],
            "sender": "0x40e236bd68857543b71cad6d279759c3d9963bc0",
            "secretKey": "0x94e5404deeee47cc58cf4b1ed04985a10fa25d0539093151e7cc2207bd674466"
        },
        "post": {
            "Prague": [
                {
                    "hash": "0x70d706deb3fb38a71ff9babaa934e966b259859c741eccd338eb0417ccc06747",
                    "logs": "0x1dcc4de8dec75d7aab85b567b6ccd41ad312451b948a7413f0a142fd40d49347",
                    "txbytes": "0xf8a5800a8301dd8994d04985a10fa25d0539093151e7cc2207bd67446680b8449e281a98000000000000000000000000000000000000000000000000000000000000000000000000000000000000000000000000000000000000021e19e0c9bab240000026a0f08ab22181957e34b6a392ffb4e5a52da9f17cc2a5513c245316b3c27872a8f0a02450125d26b782191b8e75df810fc5202c5241217946b5c6438ec3c0aa2636fb",
                    "indexes": {
                        "data": 0,
                        "gas": 0,
                        "value": 0
                    },
                    "state": {
                        "0xd04985a10fa25d0539093151e7cc2207bd674466": {
                            "nonce": "0x01",
                            "balance": "0x00",
                            "code": "0x3660006000375a600060003660006000600560c8f15a906000553d600155",
                            "storage": {}
                        },
                        "0x40e236bd68857543b71cad6d279759c3d9963bc0": {
                            "nonce": "0x01",
                            "balance": "0x3635c9adc5de9c0158",
                            "code": "0x",
                            "storage": {}
                        },
                        "0x2adc25665018aa1fe0e6bc666dac8fc2697ff9ba": {
                            "nonce": "0x00",
                            "balance": "0x0132cc",
                            "code": "0x",
                            "storage": {}
                        }
                    }
                }
            ]
        },
        "config": {
            "blobSchedule": {
                "Cancun": {
                    "target": "0x03",
                    "max": "0x06",
                    "baseFeeUpdateFraction": "0x32f0ed"
                },
                "Prague": {
                    "target": "0x06",
                    "max": "0x09",
                    "baseFeeUpdateFraction": "0x4c6964"
                }
            },
            "chainid": "0x01"
        },
        "_info": {
            "hash": "0x7caec4a625de465dd0475d6dc3301b94069d4cb599e73727638c44275a1534c4",
            "comment": "`execution-spec-tests` generated test",
            "filling-transition-tool": "ethereum-spec-evm-resolver 0.0.5",
            "description": "Test ModExp gas cost with invalid inputs.",
            "url": "https://github.com/ethereum/execution-spec-tests/blob/fusaka-devnet-5@v1.1.0/tests/osaka/eip7883_modexp_gas_increase/test_modexp_thresholds.py#L62",
            "fixture-format": "state_test",
            "reference-spec": "https://github.com/ethereum/EIPs/blob/master/EIPS/eip-7883.md",
            "reference-spec-version": "13aa65810336d4f243d4563a828d5afe36035d23",
            "eels-resolution": {
                "git-url": "https://github.com/marioevz/execution-specs.git",
                "branch": "forks/bpo1",
                "commit": "3387e5f4aedfe99becfdc39b444d6371e25e0924"
            }
        }
    }
}