{
    "tests/osaka/eip7883_modexp_gas_increase/test_modexp_thresholds.py::test_modexp_call_operations[fork_Osaka-state_test-base-heavy-call_opcode_CALLCODE]": {
        "env": {
            "currentCoinbase": "0x2adc25665018aa1fe0e6bc666dac8fc2697ff9ba",
            "currentGasLimit": "0x055d4a80",
            "currentNumber": "0x01",
            "currentTimestamp": "0x03e8",
            "currentRandom": "0x0000000000000000000000000000000000000000000000000000000000000000",
            "currentDifficulty": "0x00",
            "currentBaseFee": "0x07",
            "currentExcessBlobGas": "0x00"
        },
        "pre": {
            "0x2af898aa328a87cfb23fbaf9302887d7c37df8fe": {
                "nonce": "0x01",
                "balance": "0x00",
                "code": "0x3660006000375a60006000366000600060056104b0f25a906000553d60015561007a0190036002553d600060003e3d600020600355",
                "storage": {}
            },
            "0xe88c5d94c986f78708f74a3ed89b9ea177cbb8e5": {
                "nonce": "0x00",
                "balance": "0x3635c9adc5dea00000",
                "code": "0x",
                "storage": {}
            }
        },
        "transaction": {
            "nonce": "0x00",
            "gasPrice": "0x0a",
            "gasLimit": [
                "0x023c88"
            ],
            "to": "0x2af898aa328a87cfb23fbaf9302887d7c37df8fe",
            "value": [
                "0x00"
            ],
            "data": [
                "0x000000000000000000000000000000000000000000000000000000000000002800000000000000000000000000000000000000000000000000000000000000040000000000000000000000000000000000000000000000000000000000000028e8e77626586f73b955364c7b4bbf0bb7f7685ebd40e852b164633a4acbd3244c000102030405060701fffffff01681d2220bfea4bb888a5543db8c0916274ddb1ea93b144c042c01d8164c950001020304050607"
            ],
            "sender": "0xe88c5d94c986f78708f74a3ed89b9ea177cbb8e5",
            "secretKey": "0xe60e9ffc4869563b341596802af898aa328a87cfb23fbaf9302887d7c37df8fe"
        },
        "post": {
            "Osaka": [
                {
                    "hash": "0xb3053ebd5db4c69e70f46966f006baf99d4a9c950f2745aa57c6fd94138d956b",
                    "logs": "0x1dcc4de8dec75d7aab85b567b6ccd41ad312451b948a7413f0a142fd40d49347",
                    "txbytes": "0xf90115800a83023c88942af898aa328a87cfb23fbaf9302887d7c37df8fe80b8b4000000000000000000000000000000000000000000000000000000000000002800000000000000000000000000000000000000000000000000000000000000040000000000000000000000000000000000000000000000000000000000000028e8e77626586f73b955364c7b4bbf0bb7f7685ebd40e852b164633a4acbd3244c000102030405060701fffffff01681d2220bfea4bb888a5543db8c0916274ddb1ea93b144c042c01d8164c95000102030405060725a092dd0e34a48ccc72eb66358bc29b4351dfa9b03b74a8efaab9a0cd237a459694a04dd2ac98c945dc2fcd73a8fc969f75229c153493e14455d6e294dd20b7f6991c",
                    "indexes": {
                        "data": 0,
                        "gas": 0,
                        "value": 0
                    },
                    "state": {
                        "0x2af898aa328a87cfb23fbaf9302887d7c37df8fe": {
                            "nonce": "0x01",
                            "balance": "0x00",
                            "code": "0x3660006000375a60006000366000600060056104b0f25a906000553d60015561007a0190036002553d600060003e3d600020600355",
                            "storage": {
                                "0x00": "0x01",
                                "0x01": "0x28",
                                "0x02": "0x04b0",
                                "0x03": "0x7f8a6c56dfa7eb36c5813257a65db0d4503a9c3b69afc9247d97efb4af16ac18"
                            }
                        },
                        "0xe88c5d94c986f78708f74a3ed89b9ea177cbb8e5": {
                            "nonce": "0x01",
                            "balance": "0x3635c9adc5de8ed168",
                            "code": "0x",
                            "storage": {}
                        },
                        "0x2adc25665018aa1fe0e6bc666dac8fc2697ff9ba": {
                            "nonce": "0x00",
                            "balance": "0x052794",
                            "code": "0x",
                            "storage": {}
                        }
                    }
                }
            ]
        },
        "config": {
            "blobSchedule": {
                "Cancun": {
                    "target": "0x03",
                    "max": "0x06",
                    "baseFeeUpdateFraction": "0x32f0ed"
                },
                "Prague": {
                    "target": "0x06",
                    "max": "0x09",
                    "baseFeeUpdateFraction": "0x4c6964"
                },
                "Osaka": {
                    "target": "0x06",
                    "max": "0x09",
                    "baseFeeUpdateFraction": "0x4c6964"
                }
            },
            "chainid": "0x01"
        },
        "_info": {
            "hash": "0x437bd34ebd36d0c88037000cbf9b02cbb41fdb1da5161ca33fea062b99e0f816",
            "comment": "`execution-spec-tests` generated test",
            "filling-transition-tool": "ethereum-spec-evm-resolver 0.0.5",
            "description": "Test ModExp call related operations with EIP-7883.",
            "url": "https://github.com/ethereum/execution-spec-tests/blob/fusaka-devnet-5@v1.1.0/tests/osaka/eip7883_modexp_gas_increase/test_modexp_thresholds.py#L163",
            "fixture-format": "state_test",
            "reference-spec": "https://github.com/ethereum/EIPs/blob/master/EIPS/eip-7883.md",
            "reference-spec-version": "13aa65810336d4f243d4563a828d5afe36035d23",
            "eels-resolution": {
                "git-url": "https://github.com/marioevz/execution-specs.git",
                "branch": "forks/bpo1",
                "commit": "3387e5f4aedfe99becfdc39b444d6371e25e0924"
            }
        }
    },
    "tests/osaka/eip7883_modexp_gas_increase/test_modexp_thresholds.py::test_modexp_call_operations[fork_Osaka-state_test-base-heavy-call_opcode_CALL]": {
        "env": {
            "currentCoinbase": "0x2adc25665018aa1fe0e6bc666dac8fc2697ff9ba",
            "currentGasLimit": "0x055d4a80",
            "currentNumber": "0x01",
            "currentTimestamp": "0x03e8",
            "currentRandom": "0x0000000000000000000000000000000000000000000000000000000000000000",
            "currentDifficulty": "0x00",
            "currentBaseFee": "0x07",
            "currentExcessBlobGas": "0x00"
        },
        "pre": {
            "0xdd0eb157795b67d43567952b725112422a37afb2": {
                "nonce": "0x01",
                "balance": "0x00",
                "code": "0x3660006000375a60006000366000600060056104b0f15a906000553d60015561007a0190036002553d600060003e3d600020600355",
                "storage": {}
            },
            "0xcacc57e88a4721b6d41c7521b4875823fe1cc9e6": {
                "nonce": "0x00",
                "balance": "0x3635c9adc5dea00000",
                "code": "0x",
                "storage": {}
            }
        },
        "transaction": {
            "nonce": "0x00",
            "gasPrice": "0x0a",
            "gasLimit": [
                "0x023c88"
            ],
            "to": "0xdd0eb157795b67d43567952b725112422a37afb2",
            "value": [
                "0x00"
            ],
            "data": [
                "0x000000000000000000000000000000000000000000000000000000000000002800000000000000000000000000000000000000000000000000000000000000040000000000000000000000000000000000000000000000000000000000000028e8e77626586f73b955364c7b4bbf0bb7f7685ebd40e852b164633a4acbd3244c000102030405060701fffffff01681d2220bfea4bb888a5543db8c0916274ddb1ea93b144c042c01d8164c950001020304050607"
            ],
            "sender": "0xcacc57e88a4721b6d41c7521b4875823fe1cc9e6",
            "secretKey": "0x25c5a118c5df98794d68ddafdd0eb157795b67d43567952b725112422a37afb2"
        },
        "post": {
            "Osaka": [
                {
                    "hash": "0xa92533f5ccc67e12bfbe3bc4aab99879809f7402ab1e71ad7f0702ed7b19f22c",
                    "logs": "0x1dcc4de8dec75d7aab85b567b6ccd41ad312451b948a7413f0a142fd40d49347",
                    "txbytes": "0xf90115800a83023c8894dd0eb157795b67d43567952b725112422a37afb280b8b4000000000000000000000000000000000000000000000000000000000000002800000000000000000000000000000000000000000000000000000000000000040000000000000000000000000000000000000000000000000000000000000028e8e77626586f73b955364c7b4bbf0bb7f7685ebd40e852b164633a4acbd3244c000102030405060701fffffff01681d2220bfea4bb888a5543db8c0916274ddb1ea93b144c042c01d8164c95000102030405060726a027a7e94e51cb1777e66fd576ecdef2450093b172342fb1c0d248226712691468a070b2608b78e4e8a2f8ed644d44abd3f4c6649423ea3e2f7a375870adf8a4a72a",
                    "indexes": {
                        "data": 0,
                        "gas": 0,
                        "value": 0
                    },
                    "state": {
                        "0xdd0eb157795b67d43567952b725112422a37afb2": {
                            "nonce": "0x01",
                            "balance": "0x00",
                            "code": "0x3660006000375a60006000366000600060056104b0f15a906000553d60015561007a0190036002553d600060003e3d600020600355",
                            "storage": {
                                "0x00": "0x01",
                                "0x01": "0x28",
                                "0x02": "0x04b0",
                                "0x03": "0x7f8a6c56dfa7eb36c5813257a65db0d4503a9c3b69afc9247d97efb4af16ac18"
                            }
                        },
                        "0xcacc57e88a4721b6d41c7521b4875823fe1cc9e6": {
                            "nonce": "0x01",
                            "balance": "0x3635c9adc5de8ed168",
                            "code": "0x",
                            "storage": {}
                        },
                        "0x2adc25665018aa1fe0e6bc666dac8fc2697ff9ba": {
                            "nonce": "0x00",
                            "balance": "0x052794",
                            "code": "0x",
                            "storage": {}
                        }
                    }
                }
            ]
        },
        "config": {
            "blobSchedule": {
                "Cancun": {
                    "target": "0x03",
                    "max": "0x06",
                    "baseFeeUpdateFraction": "0x32f0ed"
                },
                "Prague": {
                    "target": "0x06",
                    "max": "0x09",
                    "baseFeeUpdateFraction": "0x4c6964"
                },
                "Osaka": {
                    "target": "0x06",
                    "max": "0x09",
                    "baseFeeUpdateFraction": "0x4c6964"
                }
            },
            "chainid": "0x01"
        },
        "_info": {
            "hash": "0xab81edf253584e495c13ef40eece59a3bfbbbaea73257035cc215806380a5434",
            "comment": "`execution-spec-tests` generated test",
            "filling-transition-tool": "ethereum-spec-evm-resolver 0.0.5",
            "description": "Test ModExp call related operations with EIP-7883.",
            "url": "https://github.com/ethereum/execution-spec-tests/blob/fusaka-devnet-5@v1.1.0/tests/osaka/eip7883_modexp_gas_increase/test_modexp_thresholds.py#L163",
            "fixture-format": "state_test",
            "reference-spec": "https://github.com/ethereum/EIPs/blob/master/EIPS/eip-7883.md",
            "reference-spec-version": "13aa65810336d4f243d4563a828d5afe36035d23",
            "eels-resolution": {
                "git-url": "https://github.com/marioevz/execution-specs.git",
                "branch": "forks/bpo1",
                "commit": "3387e5f4aedfe99becfdc39b444d6371e25e0924"
            }
        }
    },
    "tests/osaka/eip7883_modexp_gas_increase/test_modexp_thresholds.py::test_modexp_call_operations[fork_Osaka-state_test-base-heavy-call_opcode_DELEGATECALL]": {
        "env": {
            "currentCoinbase": "0x2adc25665018aa1fe0e6bc666dac8fc2697ff9ba",
            "currentGasLimit": "0x055d4a80",
            "currentNumber": "0x01",
            "currentTimestamp": "0x03e8",
            "currentRandom": "0x0000000000000000000000000000000000000000000000000000000000000000",
            "currentDifficulty": "0x00",
            "currentBaseFee": "0x07",
            "currentExcessBlobGas": "0x00"
        },
        "pre": {
            "0xcb175ab48db964350b917258644b58c1ae9b1141": {
                "nonce": "0x01",
                "balance": "0x00",
                "code": "0x3660006000375a6000600036600060056104b0f45a906000553d6001556100770190036002553d600060003e3d600020600355",
                "storage": {}
            },
            "0xfe9c02c06be3d02c9bbfe7851c159a81cccce390": {
                "nonce": "0x00",
                "balance": "0x3635c9adc5dea00000",
                "code": "0x",
                "storage": {}
            }
        },
        "transaction": {
            "nonce": "0x00",
            "gasPrice": "0x0a",
            "gasLimit": [
                "0x023c88"
            ],
            "to": "0xcb175ab48db964350b917258644b58c1ae9b1141",
            "value": [
                "0x00"
            ],
            "data": [
                "0x000000000000000000000000000000000000000000000000000000000000002800000000000000000000000000000000000000000000000000000000000000040000000000000000000000000000000000000000000000000000000000000028e8e77626586f73b955364c7b4bbf0bb7f7685ebd40e852b164633a4acbd3244c000102030405060701fffffff01681d2220bfea4bb888a5543db8c0916274ddb1ea93b144c042c01d8164c950001020304050607"
            ],
            "sender": "0xfe9c02c06be3d02c9bbfe7851c159a81cccce390",
            "secretKey": "0xbb48a671aee509e8b8fe1180cb175ab48db964350b917258644b58c1ae9b1141"
        },
        "post": {
            "Osaka": [
                {
                    "hash": "0x07c07db4779398165e56fa262ad5fe7efbb8cc45bf2622f131651a837748a3a8",
                    "logs": "0x1dcc4de8dec75d7aab85b567b6ccd41ad312451b948a7413f0a142fd40d49347",
                    "txbytes": "0xf90115800a83023c8894cb175ab48db964350b917258644b58c1ae9b114180b8b4000000000000000000000000000000000000000000000000000000000000002800000000000000000000000000000000000000000000000000000000000000040000000000000000000000000000000000000000000000000000000000000028e8e77626586f73b955364c7b4bbf0bb7f7685ebd40e852b164633a4acbd3244c000102030405060701fffffff01681d2220bfea4bb888a5543db8c0916274ddb1ea93b144c042c01d8164c95000102030405060725a07e3ce29f02c0abf0cb16a198fbd7ef2e7e1b25be22bac54cc5d8f149c766fd2ba054715d9c6e0f260d146fe94158c0f3453e13dfeaffd757b7e5e74830ac1e605c",
                    "indexes": {
                        "data": 0,
                        "gas": 0,
                        "value": 0
                    },
                    "state": {
                        "0xcb175ab48db964350b917258644b58c1ae9b1141": {
                            "nonce": "0x01",
                            "balance": "0x00",
                            "code": "0x3660006000375a6000600036600060056104b0f45a906000553d6001556100770190036002553d600060003e3d600020600355",
                            "storage": {
                                "0x00": "0x01",
                                "0x01": "0x28",
                                "0x02": "0x04b0",
                                "0x03": "0x7f8a6c56dfa7eb36c5813257a65db0d4503a9c3b69afc9247d97efb4af16ac18"
                            }
                        },
                        "0xfe9c02c06be3d02c9bbfe7851c159a81cccce390": {
                            "nonce": "0x01",
                            "balance": "0x3635c9adc5de8ed186",
                            "code": "0x",
                            "storage": {}
                        },
                        "0x2adc25665018aa1fe0e6bc666dac8fc2697ff9ba": {
                            "nonce": "0x00",
                            "balance": "0x05278b",
                            "code": "0x",
                            "storage": {}
                        }
                    }
                }
            ]
        },
        "config": {
            "blobSchedule": {
                "Cancun": {
                    "target": "0x03",
                    "max": "0x06",
                    "baseFeeUpdateFraction": "0x32f0ed"
                },
                "Prague": {
                    "target": "0x06",
                    "max": "0x09",
                    "baseFeeUpdateFraction": "0x4c6964"
                },
                "Osaka": {
                    "target": "0x06",
                    "max": "0x09",
                    "baseFeeUpdateFraction": "0x4c6964"
                }
            },
            "chainid": "0x01"
        },
        "_info": {
            "hash": "0xb676d457e3aa54a1bf7d2f6eb382cc30a245ae36f6c15d7b950f1256f4112009",
            "comment": "`execution-spec-tests` generated test",
            "filling-transition-tool": "ethereum-spec-evm-resolver 0.0.5",
            "description": "Test ModExp call related operations with EIP-7883.",
            "url": "https://github.com/ethereum/execution-spec-tests/blob/fusaka-devnet-5@v1.1.0/tests/osaka/eip7883_modexp_gas_increase/test_modexp_thresholds.py#L163",
            "fixture-format": "state_test",
            "reference-spec": "https://github.com/ethereum/EIPs/blob/master/EIPS/eip-7883.md",
            "reference-spec-version": "13aa65810336d4f243d4563a828d5afe36035d23",
            "eels-resolution": {
                "git-url": "https://github.com/marioevz/execution-specs.git",
                "branch": "forks/bpo1",
                "commit": "3387e5f4aedfe99becfdc39b444d6371e25e0924"
            }
        }
    },
    "tests/osaka/eip7883_modexp_gas_increase/test_modexp_thresholds.py::test_modexp_call_operations[fork_Osaka-state_test-base-heavy-call_opcode_STATICCALL]": {
        "env": {
            "currentCoinbase": "0x2adc25665018aa1fe0e6bc666dac8fc2697ff9ba",
            "currentGasLimit": "0x055d4a80",
            "currentNumber": "0x01",
            "currentTimestamp": "0x03e8",
            "currentRandom": "0x0000000000000000000000000000000000000000000000000000000000000000",
            "currentDifficulty": "0x00",
            "currentBaseFee": "0x07",
            "currentExcessBlobGas": "0x00"
        },
        "pre": {
            "0x997e586a07aac2a258a1f49feb996504f83623c6": {
                "nonce": "0x01",
                "balance": "0x00",
                "code": "0x3660006000375a6000600036600060056104b0fa5a906000553d6001556100770190036002553d600060003e3d600020600355",
                "storage": {}
            },
            "0x12e2fe0e2c5a214cbb59a6610d955640ceeba222": {
                "nonce": "0x00",
                "balance": "0x3635c9adc5dea00000",
                "code": "0x",
                "storage": {}
            }
        },
        "transaction": {
            "nonce": "0x00",
            "gasPrice": "0x0a",
            "gasLimit": [
                "0x023c88"
            ],
            "to": "0x997e586a07aac2a258a1f49feb996504f83623c6",
            "value": [
                "0x00"
            ],
            "data": [
                "0x000000000000000000000000000000000000000000000000000000000000002800000000000000000000000000000000000000000000000000000000000000040000000000000000000000000000000000000000000000000000000000000028e8e77626586f73b955364c7b4bbf0bb7f7685ebd40e852b164633a4acbd3244c000102030405060701fffffff01681d2220bfea4bb888a5543db8c0916274ddb1ea93b144c042c01d8164c950001020304050607"
            ],
            "sender": "0x12e2fe0e2c5a214cbb59a6610d955640ceeba222",
            "secretKey": "0xb0ffef88cc90f459027d1fc4997e586a07aac2a258a1f49feb996504f83623c6"
        },
        "post": {
            "Osaka": [
                {
                    "hash": "0xe033a59b8b0bea67591331f4393741ef49d8f38a7b422fed843f256b4114ea6e",
                    "logs": "0x1dcc4de8dec75d7aab85b567b6ccd41ad312451b948a7413f0a142fd40d49347",
                    "txbytes": "0xf90115800a83023c8894997e586a07aac2a258a1f49feb996504f83623c680b8b4000000000000000000000000000000000000000000000000000000000000002800000000000000000000000000000000000000000000000000000000000000040000000000000000000000000000000000000000000000000000000000000028e8e77626586f73b955364c7b4bbf0bb7f7685ebd40e852b164633a4acbd3244c000102030405060701fffffff01681d2220bfea4bb888a5543db8c0916274ddb1ea93b144c042c01d8164c95000102030405060726a0aff31f1e0b206957cc9247b6483bd2d6ff6710ab751c63b28e9867ba2dc930a6a07214a80b97935bf428ed0dff7a95f1f9f8988daa1a11fa31f095d748d81a5447",
                    "indexes": {
                        "data": 0,
                        "gas": 0,
                        "value": 0
                    },
                    "state": {
                        "0x997e586a07aac2a258a1f49feb996504f83623c6": {
                            "nonce": "0x01",
                            "balance": "0x00",
                            "code": "0x3660006000375a6000600036600060056104b0fa5a906000553d6001556100770190036002553d600060003e3d600020600355",
                            "storage": {
                                "0x00": "0x01",
                                "0x01": "0x28",
                                "0x02": "0x04b0",
                                "0x03": "0x7f8a6c56dfa7eb36c5813257a65db0d4503a9c3b69afc9247d97efb4af16ac18"
                            }
                        },
                        "0x12e2fe0e2c5a214cbb59a6610d955640ceeba222": {
                            "nonce": "0x01",
                            "balance": "0x3635c9adc5de8ed186",
                            "code": "0x",
                            "storage": {}
                        },
                        "0x2adc25665018aa1fe0e6bc666dac8fc2697ff9ba": {
                            "nonce": "0x00",
                            "balance": "0x05278b",
                            "code": "0x",
                            "storage": {}
                        }
                    }
                }
            ]
        },
        "config": {
            "blobSchedule": {
                "Cancun": {
                    "target": "0x03",
                    "max": "0x06",
                    "baseFeeUpdateFraction": "0x32f0ed"
                },
                "Prague": {
                    "target": "0x06",
                    "max": "0x09",
                    "baseFeeUpdateFraction": "0x4c6964"
                },
                "Osaka": {
                    "target": "0x06",
                    "max": "0x09",
                    "baseFeeUpdateFraction": "0x4c6964"
                }
            },
            "chainid": "0x01"
        },
        "_info": {
            "hash": "0xf0a8e3959c65a4f9b6030a29b5c253ec6f9bac59a24e96d89fb88bda8608a32f",
            "comment": "`execution-spec-tests` generated test",
            "filling-transition-tool": "ethereum-spec-evm-resolver 0.0.5",
            "description": "Test ModExp call related operations with EIP-7883.",
            "url": "https://github.com/ethereum/execution-spec-tests/blob/fusaka-devnet-5@v1.1.0/tests/osaka/eip7883_modexp_gas_increase/test_modexp_thresholds.py#L163",
            "fixture-format": "state_test",
            "reference-spec": "https://github.com/ethereum/EIPs/blob/master/EIPS/eip-7883.md",
            "reference-spec-version": "13aa65810336d4f243d4563a828d5afe36035d23",
            "eels-resolution": {
                "git-url": "https://github.com/marioevz/execution-specs.git",
                "branch": "forks/bpo1",
                "commit": "3387e5f4aedfe99becfdc39b444d6371e25e0924"
            }
        }
    },
    "tests/osaka/eip7883_modexp_gas_increase/test_modexp_thresholds.py::test_modexp_call_operations[fork_Prague-state_test-base-heavy-call_opcode_CALLCODE]": {
        "env": {
            "currentCoinbase": "0x2adc25665018aa1fe0e6bc666dac8fc2697ff9ba",
            "currentGasLimit": "0x055d4a80",
            "currentNumber": "0x01",
            "currentTimestamp": "0x03e8",
            "currentRandom": "0x0000000000000000000000000000000000000000000000000000000000000000",
            "currentDifficulty": "0x00",
            "currentBaseFee": "0x07",
            "currentExcessBlobGas": "0x00"
        },
        "pre": {
            "0x2af898aa328a87cfb23fbaf9302887d7c37df8fe": {
                "nonce": "0x01",
                "balance": "0x00",
                "code": "0x3660006000375a600060003660006000600560c8f25a906000553d60015561007a0190036002553d600060003e3d600020600355",
                "storage": {}
            },
            "0xe88c5d94c986f78708f74a3ed89b9ea177cbb8e5": {
                "nonce": "0x00",
                "balance": "0x3635c9adc5dea00000",
                "code": "0x",
                "storage": {}
            }
        },
        "transaction": {
            "nonce": "0x00",
            "gasPrice": "0x0a",
            "gasLimit": [
                "0x0238a0"
            ],
            "to": "0x2af898aa328a87cfb23fbaf9302887d7c37df8fe",
            "value": [
                "0x00"
            ],
            "data": [
                "0x000000000000000000000000000000000000000000000000000000000000002800000000000000000000000000000000000000000000000000000000000000040000000000000000000000000000000000000000000000000000000000000028e8e77626586f73b955364c7b4bbf0bb7f7685ebd40e852b164633a4acbd3244c000102030405060701fffffff01681d2220bfea4bb888a5543db8c0916274ddb1ea93b144c042c01d8164c950001020304050607"
            ],
            "sender": "0xe88c5d94c986f78708f74a3ed89b9ea177cbb8e5",
            "secretKey": "0xe60e9ffc4869563b341596802af898aa328a87cfb23fbaf9302887d7c37df8fe"
        },
        "post": {
            "Prague": [
                {
                    "hash": "0x11a2c71dfd23aad09d446aa1b8667af127320f7e3118655fc10c766e18aabe1c",
                    "logs": "0x1dcc4de8dec75d7aab85b567b6ccd41ad312451b948a7413f0a142fd40d49347",
                    "txbytes": "0xf90115800a830238a0942af898aa328a87cfb23fbaf9302887d7c37df8fe80b8b4000000000000000000000000000000000000000000000000000000000000002800000000000000000000000000000000000000000000000000000000000000040000000000000000000000000000000000000000000000000000000000000028e8e77626586f73b955364c7b4bbf0bb7f7685ebd40e852b164633a4acbd3244c000102030405060701fffffff01681d2220bfea4bb888a5543db8c0916274ddb1ea93b144c042c01d8164c95000102030405060725a0b91d234ae1c45c877fe9c6b426e1afdda5ead3dbdd5dea5e39a8f8036d7252cda07a42235d29b14d1427b9992bd72f5c090b05e76686a4869497d8a313cde684b9",
                    "indexes": {
                        "data": 0,
                        "gas": 0,
                        "value": 0
                    },
                    "state": {
                        "0x2af898aa328a87cfb23fbaf9302887d7c37df8fe": {
                            "nonce": "0x01",
                            "balance": "0x00",
                            "code": "0x3660006000375a600060003660006000600560c8f25a906000553d60015561007a0190036002553d600060003e3d600020600355",
                            "storage": {
                                "0x00": "0x01",
                                "0x01": "0x28",
                                "0x02": "0xc8",
                                "0x03": "0x7f8a6c56dfa7eb36c5813257a65db0d4503a9c3b69afc9247d97efb4af16ac18"
                            }
                        },
                        "0xe88c5d94c986f78708f74a3ed89b9ea177cbb8e5": {
                            "nonce": "0x01",
                            "balance": "0x3635c9adc5de8ef878",
                            "code": "0x",
                            "storage": {}
                        },
                        "0x2adc25665018aa1fe0e6bc666dac8fc2697ff9ba": {
                            "nonce": "0x00",
                            "balance": "0x051bdc",
                            "code": "0x",
                            "storage": {}
                        }
                    }
                }
            ]
        },
        "config": {
            "blobSchedule": {
                "Cancun": {
                    "target": "0x03",
                    "max": "0x06",
                    "baseFeeUpdateFraction": "0x32f0ed"
                },
                "Prague": {
                    "target": "0x06",
                    "max": "0x09",
                    "baseFeeUpdateFraction": "0x4c6964"
                }
            },
            "chainid": "0x01"
        },
        "_info": {
            "hash": "0x2a06e0fe9234b14059efb1cfb9d79b2122df386f1ee3a4915715bfdd9feb38ad",
            "comment": "`execution-spec-tests` generated test",
            "filling-transition-tool": "ethereum-spec-evm-resolver 0.0.5",
            "description": "Test ModExp call related operations with EIP-7883.",
            "url": "https://github.com/ethereum/execution-spec-tests/blob/fusaka-devnet-5@v1.1.0/tests/osaka/eip7883_modexp_gas_increase/test_modexp_thresholds.py#L163",
            "fixture-format": "state_test",
            "reference-spec": "https://github.com/ethereum/EIPs/blob/master/EIPS/eip-7883.md",
            "reference-spec-version": "13aa65810336d4f243d4563a828d5afe36035d23",
            "eels-resolution": {
                "git-url": "https://github.com/marioevz/execution-specs.git",
                "branch": "forks/bpo1",
                "commit": "3387e5f4aedfe99becfdc39b444d6371e25e0924"
            }
        }
    },
    "tests/osaka/eip7883_modexp_gas_increase/test_modexp_thresholds.py::test_modexp_call_operations[fork_Prague-state_test-base-heavy-call_opcode_CALL]": {
        "env": {
            "currentCoinbase": "0x2adc25665018aa1fe0e6bc666dac8fc2697ff9ba",
            "currentGasLimit": "0x055d4a80",
            "currentNumber": "0x01",
            "currentTimestamp": "0x03e8",
            "currentRandom": "0x0000000000000000000000000000000000000000000000000000000000000000",
            "currentDifficulty": "0x00",
            "currentBaseFee": "0x07",
            "currentExcessBlobGas": "0x00"
        },
        "pre": {
            "0xdd0eb157795b67d43567952b725112422a37afb2": {
                "nonce": "0x01",
                "balance": "0x00",
                "code": "0x3660006000375a600060003660006000600560c8f15a906000553d60015561007a0190036002553d600060003e3d600020600355",
                "storage": {}
            },
            "0xcacc57e88a4721b6d41c7521b4875823fe1cc9e6": {
                "nonce": "0x00",
                "balance": "0x3635c9adc5dea00000",
                "code": "0x",
                "storage": {}
            }
        },
        "transaction": {
            "nonce": "0x00",
            "gasPrice": "0x0a",
            "gasLimit": [
                "0x0238a0"
            ],
            "to": "0xdd0eb157795b67d43567952b725112422a37afb2",
            "value": [
                "0x00"
            ],
            "data": [
                "0x000000000000000000000000000000000000000000000000000000000000002800000000000000000000000000000000000000000000000000000000000000040000000000000000000000000000000000000000000000000000000000000028e8e77626586f73b955364c7b4bbf0bb7f7685ebd40e852b164633a4acbd3244c000102030405060701fffffff01681d2220bfea4bb888a5543db8c0916274ddb1ea93b144c042c01d8164c950001020304050607"
            ],
            "sender": "0xcacc57e88a4721b6d41c7521b4875823fe1cc9e6",
            "secretKey": "0x25c5a118c5df98794d68ddafdd0eb157795b67d43567952b725112422a37afb2"
        },
        "post": {
            "Prague": [
                {
                    "hash": "0xf897dc0b5411b9b186608643e0b8a3e15a1161b2eaec64b3cbd2cd692dff8c34",
                    "logs": "0x1dcc4de8dec75d7aab85b567b6ccd41ad312451b948a7413f0a142fd40d49347",
                    "txbytes": "0xf90115800a830238a094dd0eb157795b67d43567952b725112422a37afb280b8b4000000000000000000000000000000000000000000000000000000000000002800000000000000000000000000000000000000000000000000000000000000040000000000000000000000000000000000000000000000000000000000000028e8e77626586f73b955364c7b4bbf0bb7f7685ebd40e852b164633a4acbd3244c000102030405060701fffffff01681d2220bfea4bb888a5543db8c0916274ddb1ea93b144c042c01d8164c95000102030405060725a0ce1e450e1a1c1300d8ba7c83312dfb9d3753e6be4f1748dc41c24363fcf9aa6ea076c93314f599feedb10e51a1948291a90e145fcdfff8d7ef5a09d85c5860f7f1",
                    "indexes": {
                        "data": 0,
                        "gas": 0,
                        "value": 0
                    },
                    "state": {
                        "0xdd0eb157795b67d43567952b725112422a37afb2": {
                            "nonce": "0x01",
                            "balance": "0x00",
                            "code": "0x3660006000375a600060003660006000600560c8f15a906000553d60015561007a0190036002553d600060003e3d600020600355",
                            "storage": {
                                "0x00": "0x01",
                                "0x01": "0x28",
                                "0x02": "0xc8",
                                "0x03": "0x7f8a6c56dfa7eb36c5813257a65db0d4503a9c3b69afc9247d97efb4af16ac18"
                            }
                        },
                        "0xcacc57e88a4721b6d41c7521b4875823fe1cc9e6": {
                            "nonce": "0x01",
                            "balance": "0x3635c9adc5de8ef878",
                            "code": "0x",
                            "storage": {}
                        },
                        "0x2adc25665018aa1fe0e6bc666dac8fc2697ff9ba": {
                            "nonce": "0x00",
                            "balance": "0x051bdc",
                            "code": "0x",
                            "storage": {}
                        }
                    }
                }
            ]
        },
        "config": {
            "blobSchedule": {
                "Cancun": {
                    "target": "0x03",
                    "max": "0x06",
                    "baseFeeUpdateFraction": "0x32f0ed"
                },
                "Prague": {
                    "target": "0x06",
                    "max": "0x09",
                    "baseFeeUpdateFraction": "0x4c6964"
                }
            },
            "chainid": "0x01"
        },
        "_info": {
            "hash": "0x22854e80577f80ff591406ee52c768903e3f49bc89962572f19662c5804f4cc9",
            "comment": "`execution-spec-tests` generated test",
            "filling-transition-tool": "ethereum-spec-evm-resolver 0.0.5",
            "description": "Test ModExp call related operations with EIP-7883.",
            "url": "https://github.com/ethereum/execution-spec-tests/blob/fusaka-devnet-5@v1.1.0/tests/osaka/eip7883_modexp_gas_increase/test_modexp_thresholds.py#L163",
            "fixture-format": "state_test",
            "reference-spec": "https://github.com/ethereum/EIPs/blob/master/EIPS/eip-7883.md",
            "reference-spec-version": "13aa65810336d4f243d4563a828d5afe36035d23",
            "eels-resolution": {
                "git-url": "https://github.com/marioevz/execution-specs.git",
                "branch": "forks/bpo1",
                "commit": "3387e5f4aedfe99becfdc39b444d6371e25e0924"
            }
        }
    },
    "tests/osaka/eip7883_modexp_gas_increase/test_modexp_thresholds.py::test_modexp_call_operations[fork_Prague-state_test-base-heavy-call_opcode_DELEGATECALL]": {
        "env": {
            "currentCoinbase": "0x2adc25665018aa1fe0e6bc666dac8fc2697ff9ba",
            "currentGasLimit": "0x055d4a80",
            "currentNumber": "0x01",
            "currentTimestamp": "0x03e8",
            "currentRandom": "0x0000000000000000000000000000000000000000000000000000000000000000",
            "currentDifficulty": "0x00",
            "currentBaseFee": "0x07",
            "currentExcessBlobGas": "0x00"
        },
        "pre": {
            "0xcb175ab48db964350b917258644b58c1ae9b1141": {
                "nonce": "0x01",
                "balance": "0x00",
                "code": "0x3660006000375a60006000366000600560c8f45a906000553d6001556100770190036002553d600060003e3d600020600355",
                "storage": {}
            },
            "0xfe9c02c06be3d02c9bbfe7851c159a81cccce390": {
                "nonce": "0x00",
                "balance": "0x3635c9adc5dea00000",
                "code": "0x",
                "storage": {}
            }
        },
        "transaction": {
            "nonce": "0x00",
            "gasPrice": "0x0a",
            "gasLimit": [
                "0x0238a0"
            ],
            "to": "0xcb175ab48db964350b917258644b58c1ae9b1141",
            "value": [
                "0x00"
            ],
            "data": [
                "0x000000000000000000000000000000000000000000000000000000000000002800000000000000000000000000000000000000000000000000000000000000040000000000000000000000000000000000000000000000000000000000000028e8e77626586f73b955364c7b4bbf0bb7f7685ebd40e852b164633a4acbd3244c000102030405060701fffffff01681d2220bfea4bb888a5543db8c0916274ddb1ea93b144c042c01d8164c950001020304050607"
            ],
            "sender": "0xfe9c02c06be3d02c9bbfe7851c159a81cccce390",
            "secretKey": "0xbb48a671aee509e8b8fe1180cb175ab48db964350b917258644b58c1ae9b1141"
        },
        "post": {
            "Prague": [
                {
                    "hash": "0x9a8fbc96bc17c72ffd6a465f5b6816aa4bb5b8e6764813f3c4c982223539b941",
                    "logs": "0x1dcc4de8dec75d7aab85b567b6ccd41ad312451b948a7413f0a142fd40d49347",
                    "txbytes": "0xf90115800a830238a094cb175ab48db964350b917258644b58c1ae9b114180b8b4000000000000000000000000000000000000000000000000000000000000002800000000000000000000000000000000000000000000000000000000000000040000000000000000000000000000000000000000000000000000000000000028e8e77626586f73b955364c7b4bbf0bb7f7685ebd40e852b164633a4acbd3244c000102030405060701fffffff01681d2220bfea4bb888a5543db8c0916274ddb1ea93b144c042c01d8164c95000102030405060725a0a8982e0472c90f5c8841c99b4796b6435fbb2debbd115f3b936e449c2ec1896da03fe8b2afd9dfb3c1c25729f0d9c09a3f7652240ebc9ddca2880a06793e8947b6",
                    "indexes": {
                        "data": 0,
                        "gas": 0,
                        "value": 0
                    },
                    "state": {
                        "0xcb175ab48db964350b917258644b58c1ae9b1141": {
                            "nonce": "0x01",
                            "balance": "0x00",
                            "code": "0x3660006000375a60006000366000600560c8f45a906000553d6001556100770190036002553d600060003e3d600020600355",
                            "storage": {
                                "0x00": "0x01",
                                "0x01": "0x28",
                                "0x02": "0xc8",
                                "0x03": "0x7f8a6c56dfa7eb36c5813257a65db0d4503a9c3b69afc9247d97efb4af16ac18"
                            }
                        },
                        "0xfe9c02c06be3d02c9bbfe7851c159a81cccce390": {
                            "nonce": "0x01",
                            "balance": "0x3635c9adc5de8ef896",
                            "code": "0x",
                            "storage": {}
                        },
                        "0x2adc25665018aa1fe0e6bc666dac8fc2697ff9ba": {
                            "nonce": "0x00",
                            "balance": "0x051bd3",
                            "code": "0x",
                            "storage": {}
                        }
                    }
                }
            ]
        },
        "config": {
            "blobSchedule": {
                "Cancun": {
                    "target": "0x03",
                    "max": "0x06",
                    "baseFeeUpdateFraction": "0x32f0ed"
                },
                "Prague": {
                    "target": "0x06",
                    "max": "0x09",
                    "baseFeeUpdateFraction": "0x4c6964"
                }
            },
            "chainid": "0x01"
        },
        "_info": {
            "hash": "0x8b8972ec9ed84df72c496a84875e5a758d8d6173dd8b04f9116a725c22f08cde",
            "comment": "`execution-spec-tests` generated test",
            "filling-transition-tool": "ethereum-spec-evm-resolver 0.0.5",
            "description": "Test ModExp call related operations with EIP-7883.",
            "url": "https://github.com/ethereum/execution-spec-tests/blob/fusaka-devnet-5@v1.1.0/tests/osaka/eip7883_modexp_gas_increase/test_modexp_thresholds.py#L163",
            "fixture-format": "state_test",
            "reference-spec": "https://github.com/ethereum/EIPs/blob/master/EIPS/eip-7883.md",
            "reference-spec-version": "13aa65810336d4f243d4563a828d5afe36035d23",
            "eels-resolution": {
                "git-url": "https://github.com/marioevz/execution-specs.git",
                "branch": "forks/bpo1",
                "commit": "3387e5f4aedfe99becfdc39b444d6371e25e0924"
            }
        }
    },
    "tests/osaka/eip7883_modexp_gas_increase/test_modexp_thresholds.py::test_modexp_call_operations[fork_Prague-state_test-base-heavy-call_opcode_STATICCALL]": {
        "env": {
            "currentCoinbase": "0x2adc25665018aa1fe0e6bc666dac8fc2697ff9ba",
            "currentGasLimit": "0x055d4a80",
            "currentNumber": "0x01",
            "currentTimestamp": "0x03e8",
            "currentRandom": "0x0000000000000000000000000000000000000000000000000000000000000000",
            "currentDifficulty": "0x00",
            "currentBaseFee": "0x07",
            "currentExcessBlobGas": "0x00"
        },
        "pre": {
            "0x997e586a07aac2a258a1f49feb996504f83623c6": {
                "nonce": "0x01",
                "balance": "0x00",
                "code": "0x3660006000375a60006000366000600560c8fa5a906000553d6001556100770190036002553d600060003e3d600020600355",
                "storage": {}
            },
            "0x12e2fe0e2c5a214cbb59a6610d955640ceeba222": {
                "nonce": "0x00",
                "balance": "0x3635c9adc5dea00000",
                "code": "0x",
                "storage": {}
            }
        },
        "transaction": {
            "nonce": "0x00",
            "gasPrice": "0x0a",
            "gasLimit": [
                "0x0238a0"
            ],
            "to": "0x997e586a07aac2a258a1f49feb996504f83623c6",
            "value": [
                "0x00"
            ],
            "data": [
                "0x000000000000000000000000000000000000000000000000000000000000002800000000000000000000000000000000000000000000000000000000000000040000000000000000000000000000000000000000000000000000000000000028e8e77626586f73b955364c7b4bbf0bb7f7685ebd40e852b164633a4acbd3244c000102030405060701fffffff01681d2220bfea4bb888a5543db8c0916274ddb1ea93b144c042c01d8164c950001020304050607"
            ],
            "sender": "0x12e2fe0e2c5a214cbb59a6610d955640ceeba222",
            "secretKey": "0xb0ffef88cc90f459027d1fc4997e586a07aac2a258a1f49feb996504f83623c6"
        },
        "post": {
            "Prague": [
                {
                    "hash": "0xe3aefe360341ddaa728a74f6e8873993b95b80679b8fb09dfe2af7f213c9dd85",
                    "logs": "0x1dcc4de8dec75d7aab85b567b6ccd41ad312451b948a7413f0a142fd40d49347",
                    "txbytes": "0xf90115800a830238a094997e586a07aac2a258a1f49feb996504f83623c680b8b4000000000000000000000000000000000000000000000000000000000000002800000000000000000000000000000000000000000000000000000000000000040000000000000000000000000000000000000000000000000000000000000028e8e77626586f73b955364c7b4bbf0bb7f7685ebd40e852b164633a4acbd3244c000102030405060701fffffff01681d2220bfea4bb888a5543db8c0916274ddb1ea93b144c042c01d8164c95000102030405060725a0780ccfab548c79b7720edda0e570d988555e2a43041ac28e00c85e377bfa1ce1a05d595807f4b95f252c6897cc471dfc3b1fb990c1e3b520c71ffc5644cf1219f3",
                    "indexes": {
                        "data": 0,
                        "gas": 0,
                        "value": 0
                    },
                    "state": {
                        "0x997e586a07aac2a258a1f49feb996504f83623c6": {
                            "nonce": "0x01",
                            "balance": "0x00",
                            "code": "0x3660006000375a60006000366000600560c8fa5a906000553d6001556100770190036002553d600060003e3d600020600355",
                            "storage": {
                                "0x00": "0x01",
                                "0x01": "0x28",
                                "0x02": "0xc8",
                                "0x03": "0x7f8a6c56dfa7eb36c5813257a65db0d4503a9c3b69afc9247d97efb4af16ac18"
                            }
                        },
                        "0x12e2fe0e2c5a214cbb59a6610d955640ceeba222": {
                            "nonce": "0x01",
                            "balance": "0x3635c9adc5de8ef896",
                            "code": "0x",
                            "storage": {}
                        },
                        "0x2adc25665018aa1fe0e6bc666dac8fc2697ff9ba": {
                            "nonce": "0x00",
                            "balance": "0x051bd3",
                            "code": "0x",
                            "storage": {}
                        }
                    }
                }
            ]
        },
        "config": {
            "blobSchedule": {
                "Cancun": {
                    "target": "0x03",
                    "max": "0x06",
                    "baseFeeUpdateFraction": "0x32f0ed"
                },
                "Prague": {
                    "target": "0x06",
                    "max": "0x09",
                    "baseFeeUpdateFraction": "0x4c6964"
                }
            },
            "chainid": "0x01"
        },
        "_info": {
            "hash": "0xc7e80424ef9b30e86f2683a970a8ccc6ee40d66d66ce30fd0af61d10819667b0",
            "comment": "`execution-spec-tests` generated test",
            "filling-transition-tool": "ethereum-spec-evm-resolver 0.0.5",
            "description": "Test ModExp call related operations with EIP-7883.",
            "url": "https://github.com/ethereum/execution-spec-tests/blob/fusaka-devnet-5@v1.1.0/tests/osaka/eip7883_modexp_gas_increase/test_modexp_thresholds.py#L163",
            "fixture-format": "state_test",
            "reference-spec": "https://github.com/ethereum/EIPs/blob/master/EIPS/eip-7883.md",
            "reference-spec-version": "13aa65810336d4f243d4563a828d5afe36035d23",
            "eels-resolution": {
                "git-url": "https://github.com/marioevz/execution-specs.git",
                "branch": "forks/bpo1",
                "commit": "3387e5f4aedfe99becfdc39b444d6371e25e0924"
            }
        }
    }
}